{"contracts/MarksheetVerification.sol":{"MarksheetVerification":{"abi":[{"inputs":[],"stateMutability":"nonpayable","type":"constructor"},{"anonymous":false,"inputs":[{"indexed":true,"internalType":"address","name":"owner","type":"address"},{"indexed":true,"internalType":"address","name":"approved","type":"address"},{"indexed":true,"internalType":"uint256","name":"tokenId","type":"uint256"}],"name":"Approval","type":"event"},{"anonymous":false,"inputs":[{"indexed":true,"internalType":"address","name":"owner","type":"address"},{"indexed":true,"internalType":"address","name":"operator","type":"address"},{"indexed":false,"internalType":"bool","name":"approved","type":"bool"}],"name":"ApprovalForAll","type":"event"},{"anonymous":false,"inputs":[{"indexed":false,"internalType":"uint256","name":"totalUploaded","type":"uint256"}],"name":"BatchUploadCompleted","type":"event"},{"anonymous":false,"inputs":[{"indexed":true,"internalType":"address","name":"recipient","type":"address"},{"indexed":false,"internalType":"uint256","name":"tokenId","type":"uint256"},{"indexed":false,"internalType":"string","name":"uri","type":"string"}],"name":"CertificateNFTMinted","type":"event"},{"anonymous":false,"inputs":[{"indexed":true,"internalType":"bytes32","name":"marksheetHash","type":"bytes32"},{"indexed":false,"internalType":"string","name":"studentName","type":"string"},{"indexed":false,"internalType":"string","name":"prn","type":"string"},{"indexed":false,"internalType":"string","name":"ipfsHash","type":"string"}],"name":"MarksheetUploaded","type":"event"},{"anonymous":false,"inputs":[{"indexed":true,"internalType":"address","name":"from","type":"address"},{"indexed":true,"internalType":"address","name":"to","type":"address"},{"indexed":true,"internalType":"uint256","name":"tokenId","type":"uint256"}],"name":"Transfer","type":"event"},{"anonymous":false,"inputs":[{"indexed":true,"internalType":"address","name":"verifier","type":"address"},{"indexed":true,"internalType":"bytes32","name":"marksheetHash","type":"bytes32"},{"indexed":false,"internalType":"uint256","name":"timestamp","type":"uint256"}],"name":"VerificationAttempt","type":"event"},{"inputs":[{"internalType":"address","name":"to","type":"address"},{"internalType":"uint256","name":"tokenId","type":"uint256"}],"name":"approve","outputs":[],"stateMutability":"nonpayable","type":"function"},{"inputs":[{"internalType":"address","name":"owner","type":"address"}],"name":"balanceOf","outputs":[{"internalType":"uint256","name":"","type":"uint256"}],"stateMutability":"view","type":"function"},{"inputs":[{"internalType":"bytes32","name":"","type":"bytes32"}],"name":"documentHashToTokenURI","outputs":[{"internalType":"string","name":"","type":"string"}],"stateMutability":"view","type":"function"},{"inputs":[{"internalType":"uint256","name":"tokenId","type":"uint256"}],"name":"getApproved","outputs":[{"internalType":"address","name":"","type":"address"}],"stateMutability":"view","type":"function"},{"inputs":[{"internalType":"bytes32","name":"_providedHash","type":"bytes32"}],"name":"getMarksheetDetails","outputs":[{"internalType":"string","name":"","type":"string"},{"internalType":"string","name":"","type":"string"},{"internalType":"string","name":"","type":"string"}],"stateMutability":"view","type":"function"},{"inputs":[{"internalType":"bytes32","name":"hash","type":"bytes32"}],"name":"getTokenURIByHash","outputs":[{"internalType":"string","name":"","type":"string"}],"stateMutability":"view","type":"function"},{"inputs":[{"internalType":"address","name":"owner","type":"address"},{"internalType":"address","name":"operator","type":"address"}],"name":"isApprovedForAll","outputs":[{"internalType":"bool","name":"","type":"bool"}],"stateMutability":"view","type":"function"},{"inputs":[{"internalType":"bytes32","name":"","type":"bytes32"}],"name":"marksheets","outputs":[{"internalType":"string","name":"studentName","type":"string"},{"internalType":"string","name":"prn","type":"string"},{"internalType":"bytes32","name":"marksheetHash","type":"bytes32"},{"internalType":"string","name":"ipfsHash","type":"string"}],"stateMutability":"view","type":"function"},{"inputs":[{"internalType":"address","name":"recipient","type":"address"},{"internalType":"string","name":"uri","type":"string"},{"internalType":"bytes32","name":"documentHash","type":"bytes32"}],"name":"mintCertificateNFT","outputs":[{"internalType":"uint256","name":"","type":"uint256"}],"stateMutability":"nonpayable","type":"function"},{"inputs":[],"name":"name","outputs":[{"internalType":"string","name":"","type":"string"}],"stateMutability":"view","type":"function"},{"inputs":[{"internalType":"uint256","name":"tokenId","type":"uint256"}],"name":"ownerOf","outputs":[{"internalType":"address","name":"","type":"address"}],"stateMutability":"view","type":"function"},{"inputs":[{"internalType":"address","name":"from","type":"address"},{"internalType":"address","name":"to","type":"address"},{"internalType":"uint256","name":"tokenId","type":"uint256"}],"name":"safeTransferFrom","outputs":[],"stateMutability":"nonpayable","type":"function"},{"inputs":[{"internalType":"address","name":"from","type":"address"},{"internalType":"address","name":"to","type":"address"},{"internalType":"uint256","name":"tokenId","type":"uint256"},{"internalType":"bytes","name":"_data","type":"bytes"}],"name":"safeTransferFrom","outputs":[],"stateMutability":"nonpayable","type":"function"},{"inputs":[{"internalType":"address","name":"operator","type":"address"},{"internalType":"bool","name":"approved","type":"bool"}],"name":"setApprovalForAll","outputs":[],"stateMutability":"nonpayable","type":"function"},{"inputs":[{"internalType":"bytes4","name":"interfaceId","type":"bytes4"}],"name":"supportsInterface","outputs":[{"internalType":"bool","name":"","type":"bool"}],"stateMutability":"view","type":"function"},{"inputs":[],"name":"symbol","outputs":[{"internalType":"string","name":"","type":"string"}],"stateMutability":"view","type":"function"},{"inputs":[{"internalType":"uint256","name":"tokenId","type":"uint256"}],"name":"tokenURI","outputs":[{"internalType":"string","name":"","type":"string"}],"stateMutability":"view","type":"function"},{"inputs":[{"internalType":"address","name":"from","type":"address"},{"internalType":"address","name":"to","type":"address"},{"internalType":"uint256","name":"tokenId","type":"uint256"}],"name":"transferFrom","outputs":[],"stateMutability":"nonpayable","type":"function"},{"inputs":[{"internalType":"string","name":"_studentName","type":"string"},{"internalType":"string","name":"_prn","type":"string"},{"internalType":"bytes32","name":"_marksheetHash","type":"bytes32"},{"internalType":"string","name":"_ipfsHash","type":"string"}],"name":"uploadMarksheet","outputs":[],"stateMutability":"nonpayable","type":"function"},{"inputs":[{"internalType":"string[]","name":"_studentNames","type":"string[]"},{"internalType":"string[]","name":"_prns","type":"string[]"},{"internalType":"bytes32[]","name":"_marksheetHashes","type":"bytes32[]"},{"internalType":"string[]","name":"_ipfsHashes","type":"string[]"}],"name":"uploadMultipleMarkSheets","outputs":[],"stateMutability":"nonpayable","type":"function"},{"inputs":[{"internalType":"bytes32","name":"_providedHash","type":"bytes32"}],"name":"verifyMarksheet","outputs":[{"internalType":"bool","name":"","type":"bool"}],"stateMutability":"nonpayable","type":"function"}],"evm":{"bytecode":{"linkReferences":{},"object":"60806040523480156200001157600080fd5b506040518060400160405280600e81526020017f43657274696669636174654e46540000000000000000000000000000000000008152506040518060400160405280600481526020017f434552540000000000000000000000000000000000000000000000000000000081525081600090816200008f919062000324565b508060019081620000a1919062000324565b5050506200040b565b600081519050919050565b7f4e487b7100000000000000000000000000000000000000000000000000000000600052604160045260246000fd5b7f4e487b7100000000000000000000000000000000000000000000000000000000600052602260045260246000fd5b600060028204905060018216806200012c57607f821691505b602082108103620001425762000141620000e4565b5b50919050565b60008190508160005260206000209050919050565b60006020601f8301049050919050565b600082821b905092915050565b600060088302620001ac7fffffffffffffffffffffffffffffffffffffffffffffffffffffffffffffffff826200016d565b620001b886836200016d565b95508019841693508086168417925050509392505050565b6000819050919050565b6000819050919050565b600062000205620001ff620001f984620001d0565b620001da565b620001d0565b9050919050565b6000819050919050565b6200022183620001e4565b6200023962000230826200020c565b8484546200017a565b825550505050565b600090565b6200025062000241565b6200025d81848462000216565b505050565b5b8181101562000285576200027960008262000246565b60018101905062000263565b5050565b601f821115620002d4576200029e8162000148565b620002a9846200015d565b81016020851015620002b9578190505b620002d1620002c8856200015d565b83018262000262565b50505b505050565b600082821c905092915050565b6000620002f960001984600802620002d9565b1980831691505092915050565b6000620003148383620002e6565b9150826002028217905092915050565b6200032f82620000aa565b67ffffffffffffffff8111156200034b576200034a620000b5565b5b62000357825462000113565b6200036482828562000289565b600060209050601f8311600181146200039c576000841562000387578287015190505b62000393858262000306565b86555062000403565b601f198416620003ac8662000148565b60005b82811015620003d657848901518255600182019150602085019450602081019050620003af565b86831015620003f65784890151620003f2601f891682620002e6565b8355505b6001600288020188555050505b505050505050565b613fe8806200041b6000396000f3fe608060405234801561001057600080fd5b50600436106101375760003560e01c80636352211e116100b8578063a22cb4651161007c578063a22cb4651461039d578063a55ebd80146103b9578063b88d4fde146103e9578063c8024cf314610405578063c87b56dd14610421578063e985e9c51461045157610137565b80636352211e146102bc5780636ea80f34146102ec57806370a082311461031c57806393d860111461034c57806395d89b411461037f57610137565b806323b872dd116100ff57806323b872dd146101f25780633c14bea61461020e5780633e451d071461024057806342842e0e146102705780635a9e37f01461028c57610137565b806301ffc9a71461013c57806306fdde031461016c578063073dcbd61461018a578063081812fc146101a6578063095ea7b3146101d6575b600080fd5b61015660048036038101906101519190612466565b610481565b60405161016391906124ae565b60405180910390f35b610174610563565b6040516101819190612559565b60405180910390f35b6101a4600480360381019061019f91906126e6565b6105f5565b005b6101c060048036038101906101bb91906127d7565b6107e1565b6040516101cd9190612845565b60405180910390f35b6101f060048036038101906101eb919061288c565b610866565b005b61020c600480360381019061020791906128cc565b61097d565b005b6102286004803603810190610223919061291f565b6109dd565b6040516102379392919061294c565b60405180910390f35b61025a6004803603810190610255919061291f565b610c3c565b6040516102679190612559565b60405180910390f35b61028a600480360381019061028591906128cc565b610cdc565b005b6102a660048036038101906102a1919061291f565b610cfc565b6040516102b39190612559565b60405180910390f35b6102d660048036038101906102d191906127d7565b610da1565b6040516102e39190612845565b60405180910390f35b61030660048036038101906103019190612998565b610e52565b6040516103139190612a16565b60405180910390f35b61033660048036038101906103319190612a31565b610ff3565b6040516103439190612a16565b60405180910390f35b6103666004803603810190610361919061291f565b6110aa565b6040516103769493929190612a6d565b60405180910390f35b610387611272565b6040516103949190612559565b60405180910390f35b6103b760048036038101906103b29190612af3565b611304565b005b6103d360048036038101906103ce919061291f565b611484565b6040516103e091906124ae565b60405180910390f35b61040360048036038101906103fe9190612bd4565b611539565b005b61041f600480360381019061041a9190612e00565b61159b565b005b61043b600480360381019061043691906127d7565b611998565b6040516104489190612559565b60405180910390f35b61046b60048036038101906104669190612ed7565b611a85565b60405161047891906124ae565b60405180910390f35b60007f80ac58cd000000000000000000000000000000000000000000000000000000007bffffffffffffffffffffffffffffffffffffffffffffffffffffffff1916827bffffffffffffffffffffffffffffffffffffffffffffffffffffffff1916148061054c57507f5b5e139f000000000000000000000000000000000000000000000000000000007bffffffffffffffffffffffffffffffffffffffffffffffffffffffff1916827bffffffffffffffffffffffffffffffffffffffffffffffffffffffff1916145b8061055c575061055b82611b19565b5b9050919050565b60606000805461057290612f46565b80601f016020809104026020016040519081016040528092919081815260200182805461059e90612f46565b80156105eb5780601f106105c0576101008083540402835291602001916105eb565b820191906000526020600020905b8154815290600101906020018083116105ce57829003601f168201915b5050505050905090565b6000801b600760008481526020019081526020016000206002015414610650576040517f08c379a000000000000000000000000000000000000000000000000000000000815260040161064790612fc3565b60405180910390fd5b6000845111610694576040517f08c379a000000000000000000000000000000000000000000000000000000000815260040161068b9061302f565b60405180910390fd5b60008351116106d8576040517f08c379a00000000000000000000000000000000000000000000000000000000081526004016106cf9061309b565b60405180910390fd5b600081511161071c576040517f08c379a000000000000000000000000000000000000000000000000000000000815260040161071390613107565b60405180910390fd5b60405180608001604052808581526020018481526020018381526020018281525060076000848152602001908152602001600020600082015181600001908161076591906132d3565b50602082015181600101908161077b91906132d3565b5060408201518160020155606082015181600301908161079b91906132d3565b50905050817fdd5dcbf222aef8b9d7fcaaff69bbcc6b0c91631a1f1bf156fcdacfb1d2d1ed0b8585846040516107d39392919061294c565b60405180910390a250505050565b60006107ec82611b83565b61082b576040517f08c379a000000000000000000000000000000000000000000000000000000000815260040161082290613417565b60405180910390fd5b6004600083815260200190815260200160002060009054906101000a900473ffffffffffffffffffffffffffffffffffffffff169050919050565b600061087182610da1565b90508073ffffffffffffffffffffffffffffffffffffffff168373ffffffffffffffffffffffffffffffffffffffff16036108e1576040517f08c379a00000000000000000000000000000000000000000000000000000000081526004016108d8906134a9565b60405180910390fd5b8073ffffffffffffffffffffffffffffffffffffffff16610900611bef565b73ffffffffffffffffffffffffffffffffffffffff16148061092f575061092e81610929611bef565b611a85565b5b61096e576040517f08c379a00000000000000000000000000000000000000000000000000000000081526004016109659061353b565b60405180910390fd5b6109788383611bf7565b505050565b61098e610988611bef565b82611cb0565b6109cd576040517f08c379a00000000000000000000000000000000000000000000000000000000081526004016109c4906135cd565b60405180910390fd5b6109d8838383611d8e565b505050565b60608060606000801b600760008681526020019081526020016000206002015403610a3d576040517f08c379a0000000000000000000000000000000000000000000000000000000008152600401610a3490613639565b60405180910390fd5b600060076000868152602001908152602001600020604051806080016040529081600082018054610a6d90612f46565b80601f0160208091040260200160405190810160405280929190818152602001828054610a9990612f46565b8015610ae65780601f10610abb57610100808354040283529160200191610ae6565b820191906000526020600020905b815481529060010190602001808311610ac957829003601f168201915b50505050508152602001600182018054610aff90612f46565b80601f0160208091040260200160405190810160405280929190818152602001828054610b2b90612f46565b8015610b785780601f10610b4d57610100808354040283529160200191610b78565b820191906000526020600020905b815481529060010190602001808311610b5b57829003601f168201915b5050505050815260200160028201548152602001600382018054610b9b90612f46565b80601f0160208091040260200160405190810160405280929190818152602001828054610bc790612f46565b8015610c145780601f10610be957610100808354040283529160200191610c14565b820191906000526020600020905b815481529060010190602001808311610bf757829003601f168201915b5050505050815250509050806000015181602001518260600151935093509350509193909250565b60096020528060005260406000206000915090508054610c5b90612f46565b80601f0160208091040260200160405190810160405280929190818152602001828054610c8790612f46565b8015610cd45780601f10610ca957610100808354040283529160200191610cd4565b820191906000526020600020905b815481529060010190602001808311610cb757829003601f168201915b505050505081565b610cf783838360405180602001604052806000815250611539565b505050565b6060600960008381526020019081526020016000208054610d1c90612f46565b80601f0160208091040260200160405190810160405280929190818152602001828054610d4890612f46565b8015610d955780601f10610d6a57610100808354040283529160200191610d95565b820191906000526020600020905b815481529060010190602001808311610d7857829003601f168201915b50505050509050919050565b6000806002600084815260200190815260200160002060009054906101000a900473ffffffffffffffffffffffffffffffffffffffff169050600073ffffffffffffffffffffffffffffffffffffffff168173ffffffffffffffffffffffffffffffffffffffff1603610e49576040517f08c379a0000000000000000000000000000000000000000000000000000000008152600401610e40906136cb565b60405180910390fd5b80915050919050565b600080835111610e97576040517f08c379a0000000000000000000000000000000000000000000000000000000008152600401610e8e90613737565b60405180910390fd5b600073ffffffffffffffffffffffffffffffffffffffff168473ffffffffffffffffffffffffffffffffffffffff1603610f06576040517f08c379a0000000000000000000000000000000000000000000000000000000008152600401610efd906137a3565b60405180910390fd5b6000801b8203610f4b576040517f08c379a0000000000000000000000000000000000000000000000000000000008152600401610f429061380f565b60405180910390fd5b610f556006611fe9565b6000610f616006611fff565b9050610f6d858261200d565b610f7781856121da565b83600960008581526020019081526020016000209081610f9791906132d3565b508473ffffffffffffffffffffffffffffffffffffffff167fd365109541e56a01d10f82079302356a6f67a0ea812aa056441a99071b916c9a8286604051610fe092919061382f565b60405180910390a2809150509392505050565b60008073ffffffffffffffffffffffffffffffffffffffff168273ffffffffffffffffffffffffffffffffffffffff1603611063576040517f08c379a000000000000000000000000000000000000000000000000000000000815260040161105a906138d1565b60405180910390fd5b600360008373ffffffffffffffffffffffffffffffffffffffff1673ffffffffffffffffffffffffffffffffffffffff168152602001908152602001600020549050919050565b60076020528060005260406000206000915090508060000180546110cd90612f46565b80601f01602080910402602001604051908101604052809291908181526020018280546110f990612f46565b80156111465780601f1061111b57610100808354040283529160200191611146565b820191906000526020600020905b81548152906001019060200180831161112957829003601f168201915b50505050509080600101805461115b90612f46565b80601f016020809104026020016040519081016040528092919081815260200182805461118790612f46565b80156111d45780601f106111a9576101008083540402835291602001916111d4565b820191906000526020600020905b8154815290600101906020018083116111b757829003601f168201915b5050505050908060020154908060030180546111ef90612f46565b80601f016020809104026020016040519081016040528092919081815260200182805461121b90612f46565b80156112685780601f1061123d57610100808354040283529160200191611268565b820191906000526020600020905b81548152906001019060200180831161124b57829003601f168201915b5050505050905084565b60606001805461128190612f46565b80601f01602080910402602001604051908101604052809291908181526020018280546112ad90612f46565b80156112fa5780601f106112cf576101008083540402835291602001916112fa565b820191906000526020600020905b8154815290600101906020018083116112dd57829003601f168201915b5050505050905090565b61130c611bef565b73ffffffffffffffffffffffffffffffffffffffff168273ffffffffffffffffffffffffffffffffffffffff1603611379576040517f08c379a00000000000000000000000000000000000000000000000000000000081526004016113709061393d565b60405180910390fd5b8060056000611386611bef565b73ffffffffffffffffffffffffffffffffffffffff1673ffffffffffffffffffffffffffffffffffffffff16815260200190815260200160002060008473ffffffffffffffffffffffffffffffffffffffff1673ffffffffffffffffffffffffffffffffffffffff16815260200190815260200160002060006101000a81548160ff0219169083151502179055508173ffffffffffffffffffffffffffffffffffffffff16611433611bef565b73ffffffffffffffffffffffffffffffffffffffff167f17307eab39ab6107e8899845ad3d59bd9653f200f220920489ca2b5937696c318360405161147891906124ae565b60405180910390a35050565b60008060001b6007600084815260200190815260200160002060020154036114e1576040517f08c379a00000000000000000000000000000000000000000000000000000000081526004016114d890613639565b60405180910390fd5b813373ffffffffffffffffffffffffffffffffffffffff167f59f56502d3dda330c978152a745d7df39110b2795dc69a0c82de880e452ab4d4426040516115289190612a16565b60405180910390a360019050919050565b61154a611544611bef565b83611cb0565b611589576040517f08c379a0000000000000000000000000000000000000000000000000000000008152600401611580906135cd565b60405180910390fd5b611595848484846121ff565b50505050565b825184511480156115ad575081518351145b80156115ba575080518251145b6115f9576040517f08c379a00000000000000000000000000000000000000000000000000000000081526004016115f0906139a9565b60405180910390fd5b6000805b8551811015611959576000801b60076000868481518110611621576116206139c9565b5b60200260200101518152602001908152602001600020600201541461167b576040517f08c379a000000000000000000000000000000000000000000000000000000000815260040161167290613a44565b60405180910390fd5b60008682815181106116905761168f6139c9565b5b602002602001015151116116d9576040517f08c379a00000000000000000000000000000000000000000000000000000000081526004016116d09061302f565b60405180910390fd5b60008582815181106116ee576116ed6139c9565b5b60200260200101515111611737576040517f08c379a000000000000000000000000000000000000000000000000000000000815260040161172e9061309b565b60405180910390fd5b600083828151811061174c5761174b6139c9565b5b60200260200101515111611795576040517f08c379a000000000000000000000000000000000000000000000000000000000815260040161178c90613107565b60405180910390fd5b60405180608001604052808783815181106117b3576117b26139c9565b5b602002602001015181526020018683815181106117d3576117d26139c9565b5b602002602001015181526020018583815181106117f3576117f26139c9565b5b60200260200101518152602001848381518110611813576118126139c9565b5b602002602001015181525060076000868481518110611835576118346139c9565b5b60200260200101518152602001908152602001600020600082015181600001908161186091906132d3565b50602082015181600101908161187691906132d3565b5060408201518160020155606082015181600301908161189691906132d3565b509050508381815181106118ad576118ac6139c9565b5b60200260200101517fdd5dcbf222aef8b9d7fcaaff69bbcc6b0c91631a1f1bf156fcdacfb1d2d1ed0b8783815181106118e9576118e86139c9565b5b6020026020010151878481518110611904576119036139c9565b5b602002602001015186858151811061191f5761191e6139c9565b5b60200260200101516040516119369392919061294c565b60405180910390a2818061194990613a93565b92505080806001019150506115fd565b507f325d2eb1aec8f7019309a6d6167e5e242224b000bf25b45286e9cfe2e43c9566816040516119899190612a16565b60405180910390a15050505050565b60606119a382611b83565b6119e2576040517f08c379a00000000000000000000000000000000000000000000000000000000081526004016119d990613b27565b60405180910390fd5b600860008381526020019081526020016000208054611a0090612f46565b80601f0160208091040260200160405190810160405280929190818152602001828054611a2c90612f46565b8015611a795780601f10611a4e57610100808354040283529160200191611a79565b820191906000526020600020905b815481529060010190602001808311611a5c57829003601f168201915b50505050509050919050565b6000600560008473ffffffffffffffffffffffffffffffffffffffff1673ffffffffffffffffffffffffffffffffffffffff16815260200190815260200160002060008373ffffffffffffffffffffffffffffffffffffffff1673ffffffffffffffffffffffffffffffffffffffff16815260200190815260200160002060009054906101000a900460ff16905092915050565b60007f01ffc9a7000000000000000000000000000000000000000000000000000000007bffffffffffffffffffffffffffffffffffffffffffffffffffffffff1916827bffffffffffffffffffffffffffffffffffffffffffffffffffffffff1916149050919050565b60008073ffffffffffffffffffffffffffffffffffffffff166002600084815260200190815260200160002060009054906101000a900473ffffffffffffffffffffffffffffffffffffffff1673ffffffffffffffffffffffffffffffffffffffff1614159050919050565b600033905090565b816004600083815260200190815260200160002060006101000a81548173ffffffffffffffffffffffffffffffffffffffff021916908373ffffffffffffffffffffffffffffffffffffffff160217905550808273ffffffffffffffffffffffffffffffffffffffff16611c6a83610da1565b73ffffffffffffffffffffffffffffffffffffffff167f8c5be1e5ebec7d5bd14f71427d1e84f3dd0314c0f7b2291e5b200ac8c7c3b92560405160405180910390a45050565b6000611cbb82611b83565b611cfa576040517f08c379a0000000000000000000000000000000000000000000000000000000008152600401611cf190613bb9565b60405180910390fd5b6000611d0583610da1565b90508073ffffffffffffffffffffffffffffffffffffffff168473ffffffffffffffffffffffffffffffffffffffff161480611d7457508373ffffffffffffffffffffffffffffffffffffffff16611d5c846107e1565b73ffffffffffffffffffffffffffffffffffffffff16145b80611d855750611d848185611a85565b5b91505092915050565b8273ffffffffffffffffffffffffffffffffffffffff16611dae82610da1565b73ffffffffffffffffffffffffffffffffffffffff1614611e04576040517f08c379a0000000000000000000000000000000000000000000000000000000008152600401611dfb90613c4b565b60405180910390fd5b600073ffffffffffffffffffffffffffffffffffffffff168273ffffffffffffffffffffffffffffffffffffffff1603611e73576040517f08c379a0000000000000000000000000000000000000000000000000000000008152600401611e6a90613cdd565b60405180910390fd5b611e7e83838361225b565b611e89600082611bf7565b6001600360008573ffffffffffffffffffffffffffffffffffffffff1673ffffffffffffffffffffffffffffffffffffffff1681526020019081526020016000206000828254611ed99190613cfd565b925050819055506001600360008473ffffffffffffffffffffffffffffffffffffffff1673ffffffffffffffffffffffffffffffffffffffff1681526020019081526020016000206000828254611f309190613d31565b92505081905550816002600083815260200190815260200160002060006101000a81548173ffffffffffffffffffffffffffffffffffffffff021916908373ffffffffffffffffffffffffffffffffffffffff160217905550808273ffffffffffffffffffffffffffffffffffffffff168473ffffffffffffffffffffffffffffffffffffffff167fddf252ad1be2c89b69c2b068fc378daa952ba7f163c4a11628f55a4df523b3ef60405160405180910390a4505050565b6001816000016000828254019250508190555050565b600081600001549050919050565b600073ffffffffffffffffffffffffffffffffffffffff168273ffffffffffffffffffffffffffffffffffffffff160361207c576040517f08c379a000000000000000000000000000000000000000000000000000000000815260040161207390613db1565b60405180910390fd5b61208581611b83565b156120c5576040517f08c379a00000000000000000000000000000000000000000000000000000000081526004016120bc90613e1d565b60405180910390fd5b6120d16000838361225b565b6001600360008473ffffffffffffffffffffffffffffffffffffffff1673ffffffffffffffffffffffffffffffffffffffff16815260200190815260200160002060008282546121219190613d31565b92505081905550816002600083815260200190815260200160002060006101000a81548173ffffffffffffffffffffffffffffffffffffffff021916908373ffffffffffffffffffffffffffffffffffffffff160217905550808273ffffffffffffffffffffffffffffffffffffffff16600073ffffffffffffffffffffffffffffffffffffffff167fddf252ad1be2c89b69c2b068fc378daa952ba7f163c4a11628f55a4df523b3ef60405160405180910390a45050565b806008600084815260200190815260200160002090816121fa91906132d3565b505050565b61220a848484611d8e565b61221684848484612260565b612255576040517f08c379a000000000000000000000000000000000000000000000000000000000815260040161224c90613eaf565b60405180910390fd5b50505050565b505050565b60006122818473ffffffffffffffffffffffffffffffffffffffff166123e7565b156123da578373ffffffffffffffffffffffffffffffffffffffff1663150b7a026122aa611bef565b8786866040518563ffffffff1660e01b81526004016122cc9493929190613f24565b6020604051808303816000875af192505050801561230857506040513d601f19601f820116820180604052508101906123059190613f85565b60015b61238a573d8060008114612338576040519150601f19603f3d011682016040523d82523d6000602084013e61233d565b606091505b506000815103612382576040517f08c379a000000000000000000000000000000000000000000000000000000000815260040161237990613eaf565b60405180910390fd5b805181602001fd5b63150b7a0260e01b7bffffffffffffffffffffffffffffffffffffffffffffffffffffffff1916817bffffffffffffffffffffffffffffffffffffffffffffffffffffffff1916149150506123df565b600190505b949350505050565b600080823b905060008111915050919050565b6000604051905090565b600080fd5b600080fd5b60007fffffffff0000000000000000000000000000000000000000000000000000000082169050919050565b6124438161240e565b811461244e57600080fd5b50565b6000813590506124608161243a565b92915050565b60006020828403121561247c5761247b612404565b5b600061248a84828501612451565b91505092915050565b60008115159050919050565b6124a881612493565b82525050565b60006020820190506124c3600083018461249f565b92915050565b600081519050919050565b600082825260208201905092915050565b60005b838110156125035780820151818401526020810190506124e8565b60008484015250505050565b6000601f19601f8301169050919050565b600061252b826124c9565b61253581856124d4565b93506125458185602086016124e5565b61254e8161250f565b840191505092915050565b600060208201905081810360008301526125738184612520565b905092915050565b600080fd5b600080fd5b7f4e487b7100000000000000000000000000000000000000000000000000000000600052604160045260246000fd5b6125bd8261250f565b810181811067ffffffffffffffff821117156125dc576125db612585565b5b80604052505050565b60006125ef6123fa565b90506125fb82826125b4565b919050565b600067ffffffffffffffff82111561261b5761261a612585565b5b6126248261250f565b9050602081019050919050565b82818337600083830152505050565b600061265361264e84612600565b6125e5565b90508281526020810184848401111561266f5761266e612580565b5b61267a848285612631565b509392505050565b600082601f8301126126975761269661257b565b5b81356126a7848260208601612640565b91505092915050565b6000819050919050565b6126c3816126b0565b81146126ce57600080fd5b50565b6000813590506126e0816126ba565b92915050565b60008060008060808587031215612700576126ff612404565b5b600085013567ffffffffffffffff81111561271e5761271d612409565b5b61272a87828801612682565b945050602085013567ffffffffffffffff81111561274b5761274a612409565b5b61275787828801612682565b9350506040612768878288016126d1565b925050606085013567ffffffffffffffff81111561278957612788612409565b5b61279587828801612682565b91505092959194509250565b6000819050919050565b6127b4816127a1565b81146127bf57600080fd5b50565b6000813590506127d1816127ab565b92915050565b6000602082840312156127ed576127ec612404565b5b60006127fb848285016127c2565b91505092915050565b600073ffffffffffffffffffffffffffffffffffffffff82169050919050565b600061282f82612804565b9050919050565b61283f81612824565b82525050565b600060208201905061285a6000830184612836565b92915050565b61286981612824565b811461287457600080fd5b50565b60008135905061288681612860565b92915050565b600080604083850312156128a3576128a2612404565b5b60006128b185828601612877565b92505060206128c2858286016127c2565b9150509250929050565b6000806000606084860312156128e5576128e4612404565b5b60006128f386828701612877565b935050602061290486828701612877565b9250506040612915868287016127c2565b9150509250925092565b60006020828403121561293557612934612404565b5b6000612943848285016126d1565b91505092915050565b600060608201905081810360008301526129668186612520565b9050818103602083015261297a8185612520565b9050818103604083015261298e8184612520565b9050949350505050565b6000806000606084860312156129b1576129b0612404565b5b60006129bf86828701612877565b935050602084013567ffffffffffffffff8111156129e0576129df612409565b5b6129ec86828701612682565b92505060406129fd868287016126d1565b9150509250925092565b612a10816127a1565b82525050565b6000602082019050612a2b6000830184612a07565b92915050565b600060208284031215612a4757612a46612404565b5b6000612a5584828501612877565b91505092915050565b612a67816126b0565b82525050565b60006080820190508181036000830152612a878187612520565b90508181036020830152612a9b8186612520565b9050612aaa6040830185612a5e565b8181036060830152612abc8184612520565b905095945050505050565b612ad081612493565b8114612adb57600080fd5b50565b600081359050612aed81612ac7565b92915050565b60008060408385031215612b0a57612b09612404565b5b6000612b1885828601612877565b9250506020612b2985828601612ade565b9150509250929050565b600067ffffffffffffffff821115612b4e57612b4d612585565b5b612b578261250f565b9050602081019050919050565b6000612b77612b7284612b33565b6125e5565b905082815260208101848484011115612b9357612b92612580565b5b612b9e848285612631565b509392505050565b600082601f830112612bbb57612bba61257b565b5b8135612bcb848260208601612b64565b91505092915050565b60008060008060808587031215612bee57612bed612404565b5b6000612bfc87828801612877565b9450506020612c0d87828801612877565b9350506040612c1e878288016127c2565b925050606085013567ffffffffffffffff811115612c3f57612c3e612409565b5b612c4b87828801612ba6565b91505092959194509250565b600067ffffffffffffffff821115612c7257612c71612585565b5b602082029050602081019050919050565b600080fd5b6000612c9b612c9684612c57565b6125e5565b90508083825260208201905060208402830185811115612cbe57612cbd612c83565b5b835b81811015612d0557803567ffffffffffffffff811115612ce357612ce261257b565b5b808601612cf08982612682565b85526020850194505050602081019050612cc0565b5050509392505050565b600082601f830112612d2457612d2361257b565b5b8135612d34848260208601612c88565b91505092915050565b600067ffffffffffffffff821115612d5857612d57612585565b5b602082029050602081019050919050565b6000612d7c612d7784612d3d565b6125e5565b90508083825260208201905060208402830185811115612d9f57612d9e612c83565b5b835b81811015612dc85780612db488826126d1565b845260208401935050602081019050612da1565b5050509392505050565b600082601f830112612de757612de661257b565b5b8135612df7848260208601612d69565b91505092915050565b60008060008060808587031215612e1a57612e19612404565b5b600085013567ffffffffffffffff811115612e3857612e37612409565b5b612e4487828801612d0f565b945050602085013567ffffffffffffffff811115612e6557612e64612409565b5b612e7187828801612d0f565b935050604085013567ffffffffffffffff811115612e9257612e91612409565b5b612e9e87828801612dd2565b925050606085013567ffffffffffffffff811115612ebf57612ebe612409565b5b612ecb87828801612d0f565b91505092959194509250565b60008060408385031215612eee57612eed612404565b5b6000612efc85828601612877565b9250506020612f0d85828601612877565b9150509250929050565b7f4e487b7100000000000000000000000000000000000000000000000000000000600052602260045260246000fd5b60006002820490506001821680612f5e57607f821691505b602082108103612f7157612f70612f17565b5b50919050565b7f4d61726b736865657420616c7265616479206578697374730000000000000000600082015250565b6000612fad6018836124d4565b9150612fb882612f77565b602082019050919050565b60006020820190508181036000830152612fdc81612fa0565b9050919050565b7f53747564656e74206e616d652063616e6e6f7420626520656d70747900000000600082015250565b6000613019601c836124d4565b915061302482612fe3565b602082019050919050565b600060208201905081810360008301526130488161300c565b9050919050565b7f50524e2063616e6e6f7420626520656d70747900000000000000000000000000600082015250565b60006130856013836124d4565b91506130908261304f565b602082019050919050565b600060208201905081810360008301526130b481613078565b9050919050565b7f4950465320686173682063616e6e6f7420626520656d70747900000000000000600082015250565b60006130f16019836124d4565b91506130fc826130bb565b602082019050919050565b60006020820190508181036000830152613120816130e4565b9050919050565b60008190508160005260206000209050919050565b60006020601f8301049050919050565b600082821b905092915050565b6000600883026131897fffffffffffffffffffffffffffffffffffffffffffffffffffffffffffffffff8261314c565b613193868361314c565b95508019841693508086168417925050509392505050565b6000819050919050565b60006131d06131cb6131c6846127a1565b6131ab565b6127a1565b9050919050565b6000819050919050565b6131ea836131b5565b6131fe6131f6826131d7565b848454613159565b825550505050565b600090565b613213613206565b61321e8184846131e1565b505050565b5b818110156132425761323760008261320b565b600181019050613224565b5050565b601f8211156132875761325881613127565b6132618461313c565b81016020851015613270578190505b61328461327c8561313c565b830182613223565b50505b505050565b600082821c905092915050565b60006132aa6000198460080261328c565b1980831691505092915050565b60006132c38383613299565b9150826002028217905092915050565b6132dc826124c9565b67ffffffffffffffff8111156132f5576132f4612585565b5b6132ff8254612f46565b61330a828285613246565b600060209050601f83116001811461333d576000841561332b578287015190505b61333585826132b7565b86555061339d565b601f19841661334b86613127565b60005b828110156133735784890151825560018201915060208501945060208101905061334e565b86831015613390578489015161338c601f891682613299565b8355505b6001600288020188555050505b505050505050565b7f4552433732313a20617070726f76656420717565727920666f72206e6f6e657860008201527f697374656e7420746f6b656e0000000000000000000000000000000000000000602082015250565b6000613401602c836124d4565b915061340c826133a5565b604082019050919050565b60006020820190508181036000830152613430816133f4565b9050919050565b7f4552433732313a20617070726f76616c20746f2063757272656e74206f776e6560008201527f7200000000000000000000000000000000000000000000000000000000000000602082015250565b60006134936021836124d4565b915061349e82613437565b604082019050919050565b600060208201905081810360008301526134c281613486565b9050919050565b7f4552433732313a20617070726f76652063616c6c6572206973206e6f74206f7760008201527f6e6572206e6f7220617070726f76656420666f7220616c6c0000000000000000602082015250565b60006135256038836124d4565b9150613530826134c9565b604082019050919050565b6000602082019050818103600083015261355481613518565b9050919050565b7f4552433732313a207472616e736665722063616c6c6572206973206e6f74206f60008201527f776e6572206e6f7220617070726f766564000000000000000000000000000000602082015250565b60006135b76031836124d4565b91506135c28261355b565b604082019050919050565b600060208201905081810360008301526135e6816135aa565b9050919050565b7f4d61726b736865657420646f6573206e6f742065786973740000000000000000600082015250565b60006136236018836124d4565b915061362e826135ed565b602082019050919050565b6000602082019050818103600083015261365281613616565b9050919050565b7f4552433732313a206f776e657220717565727920666f72206e6f6e657869737460008201527f656e7420746f6b656e0000000000000000000000000000000000000000000000602082015250565b60006136b56029836124d4565b91506136c082613659565b604082019050919050565b600060208201905081810360008301526136e4816136a8565b9050919050565b7f5552492063616e6e6f7420626520656d70747900000000000000000000000000600082015250565b60006137216013836124d4565b915061372c826136eb565b602082019050919050565b6000602082019050818103600083015261375081613714565b9050919050565b7f496e76616c696420726563697069656e74000000000000000000000000000000600082015250565b600061378d6011836124d4565b915061379882613757565b602082019050919050565b600060208201905081810360008301526137bc81613780565b9050919050565b7f446f63756d656e7420686173682063616e6e6f7420626520656d707479000000600082015250565b60006137f9601d836124d4565b9150613804826137c3565b602082019050919050565b60006020820190508181036000830152613828816137ec565b9050919050565b60006040820190506138446000830185612a07565b81810360208301526138568184612520565b90509392505050565b7f4552433732313a2062616c616e636520717565727920666f7220746865207a6560008201527f726f206164647265737300000000000000000000000000000000000000000000602082015250565b60006138bb602a836124d4565b91506138c68261385f565b604082019050919050565b600060208201905081810360008301526138ea816138ae565b9050919050565b7f4552433732313a20617070726f766520746f2063616c6c657200000000000000600082015250565b60006139276019836124d4565b9150613932826138f1565b602082019050919050565b600060208201905081810360008301526139568161391a565b9050919050565b7f496e707574206172726179206c656e67746873206d757374206d617463680000600082015250565b6000613993601e836124d4565b915061399e8261395d565b602082019050919050565b600060208201905081810360008301526139c281613986565b9050919050565b7f4e487b7100000000000000000000000000000000000000000000000000000000600052603260045260246000fd5b7f4475706c6963617465206d61726b736865657420646574656374656400000000600082015250565b6000613a2e601c836124d4565b9150613a39826139f8565b602082019050919050565b60006020820190508181036000830152613a5d81613a21565b9050919050565b7f4e487b7100000000000000000000000000000000000000000000000000000000600052601160045260246000fd5b6000613a9e826127a1565b91507fffffffffffffffffffffffffffffffffffffffffffffffffffffffffffffffff8203613ad057613acf613a64565b5b600182019050919050565b7f55524920717565727920666f72206e6f6e6578697374656e7420746f6b656e00600082015250565b6000613b11601f836124d4565b9150613b1c82613adb565b602082019050919050565b60006020820190508181036000830152613b4081613b04565b9050919050565b7f4552433732313a206f70657261746f7220717565727920666f72206e6f6e657860008201527f697374656e7420746f6b656e0000000000000000000000000000000000000000602082015250565b6000613ba3602c836124d4565b9150613bae82613b47565b604082019050919050565b60006020820190508181036000830152613bd281613b96565b9050919050565b7f4552433732313a207472616e73666572206f6620746f6b656e2074686174206960008201527f73206e6f74206f776e0000000000000000000000000000000000000000000000602082015250565b6000613c356029836124d4565b9150613c4082613bd9565b604082019050919050565b60006020820190508181036000830152613c6481613c28565b9050919050565b7f4552433732313a207472616e7366657220746f20746865207a65726f2061646460008201527f7265737300000000000000000000000000000000000000000000000000000000602082015250565b6000613cc76024836124d4565b9150613cd282613c6b565b604082019050919050565b60006020820190508181036000830152613cf681613cba565b9050919050565b6000613d08826127a1565b9150613d13836127a1565b9250828203905081811115613d2b57613d2a613a64565b5b92915050565b6000613d3c826127a1565b9150613d47836127a1565b9250828201905080821115613d5f57613d5e613a64565b5b92915050565b7f4552433732313a206d696e7420746f20746865207a65726f2061646472657373600082015250565b6000613d9b6020836124d4565b9150613da682613d65565b602082019050919050565b60006020820190508181036000830152613dca81613d8e565b9050919050565b7f4552433732313a20746f6b656e20616c7265616479206d696e74656400000000600082015250565b6000613e07601c836124d4565b9150613e1282613dd1565b602082019050919050565b60006020820190508181036000830152613e3681613dfa565b9050919050565b7f4552433732313a207472616e7366657220746f206e6f6e20455243373231526560008201527f63656976657220696d706c656d656e7465720000000000000000000000000000602082015250565b6000613e996032836124d4565b9150613ea482613e3d565b604082019050919050565b60006020820190508181036000830152613ec881613e8c565b9050919050565b600081519050919050565b600082825260208201905092915050565b6000613ef682613ecf565b613f008185613eda565b9350613f108185602086016124e5565b613f198161250f565b840191505092915050565b6000608082019050613f396000830187612836565b613f466020830186612836565b613f536040830185612a07565b8181036060830152613f658184613eeb565b905095945050505050565b600081519050613f7f8161243a565b92915050565b600060208284031215613f9b57613f9a612404565b5b6000613fa984828501613f70565b9150509291505056fea2646970667358221220f279689563f1693579c2196a3773c2a7bac560262a80eb827dd146fb77330cb864736f6c63430008180033","opcodes":"PUSH1 0x80 PUSH1 0x40 MSTORE CALLVALUE DUP1 ISZERO PUSH3 0x11 JUMPI PUSH1 0x0 DUP1 REVERT JUMPDEST POP PUSH1 0x40 MLOAD DUP1 PUSH1 0x40 ADD PUSH1 0x40 MSTORE DUP1 PUSH1 0xE DUP2 MSTORE PUSH1 0x20 ADD PUSH32 0x43657274696669636174654E4654000000000000000000000000000000000000 DUP2 MSTORE POP PUSH1 0x40 MLOAD DUP1 PUSH1 0x40 ADD PUSH1 0x40 MSTORE DUP1 PUSH1 0x4 DUP2 MSTORE PUSH1 0x20 ADD PUSH32 0x4345525400000000000000000000000000000000000000000000000000000000 DUP2 MSTORE POP DUP2 PUSH1 0x0 SWAP1 DUP2 PUSH3 0x8F SWAP2 SWAP1 PUSH3 0x324 JUMP JUMPDEST POP DUP1 PUSH1 0x1 SWAP1 DUP2 PUSH3 0xA1 SWAP2 SWAP1 PUSH3 0x324 JUMP JUMPDEST POP POP POP PUSH3 0x40B JUMP JUMPDEST PUSH1 0x0 DUP2 MLOAD SWAP1 POP SWAP2 SWAP1 POP JUMP JUMPDEST PUSH32 0x4E487B7100000000000000000000000000000000000000000000000000000000 PUSH1 0x0 MSTORE PUSH1 0x41 PUSH1 0x4 MSTORE PUSH1 0x24 PUSH1 0x0 REVERT JUMPDEST PUSH32 0x4E487B7100000000000000000000000000000000000000000000000000000000 PUSH1 0x0 MSTORE PUSH1 0x22 PUSH1 0x4 MSTORE PUSH1 0x24 PUSH1 0x0 REVERT JUMPDEST PUSH1 0x0 PUSH1 0x2 DUP3 DIV SWAP1 POP PUSH1 0x1 DUP3 AND DUP1 PUSH3 0x12C JUMPI PUSH1 0x7F DUP3 AND SWAP2 POP JUMPDEST PUSH1 0x20 DUP3 LT DUP2 SUB PUSH3 0x142 JUMPI PUSH3 0x141 PUSH3 0xE4 JUMP JUMPDEST JUMPDEST POP SWAP2 SWAP1 POP JUMP JUMPDEST PUSH1 0x0 DUP2 SWAP1 POP DUP2 PUSH1 0x0 MSTORE PUSH1 0x20 PUSH1 0x0 KECCAK256 SWAP1 POP SWAP2 SWAP1 POP JUMP JUMPDEST PUSH1 0x0 PUSH1 0x20 PUSH1 0x1F DUP4 ADD DIV SWAP1 POP SWAP2 SWAP1 POP JUMP JUMPDEST PUSH1 0x0 DUP3 DUP3 SHL SWAP1 POP SWAP3 SWAP2 POP POP JUMP JUMPDEST PUSH1 0x0 PUSH1 0x8 DUP4 MUL PUSH3 0x1AC PUSH32 0xFFFFFFFFFFFFFFFFFFFFFFFFFFFFFFFFFFFFFFFFFFFFFFFFFFFFFFFFFFFFFFFF DUP3 PUSH3 0x16D JUMP JUMPDEST PUSH3 0x1B8 DUP7 DUP4 PUSH3 0x16D JUMP JUMPDEST SWAP6 POP DUP1 NOT DUP5 AND SWAP4 POP DUP1 DUP7 AND DUP5 OR SWAP3 POP POP POP SWAP4 SWAP3 POP POP POP JUMP JUMPDEST PUSH1 0x0 DUP2 SWAP1 POP SWAP2 SWAP1 POP JUMP JUMPDEST PUSH1 0x0 DUP2 SWAP1 POP SWAP2 SWAP1 POP JUMP JUMPDEST PUSH1 0x0 PUSH3 0x205 PUSH3 0x1FF PUSH3 0x1F9 DUP5 PUSH3 0x1D0 JUMP JUMPDEST PUSH3 0x1DA JUMP JUMPDEST PUSH3 0x1D0 JUMP JUMPDEST SWAP1 POP SWAP2 SWAP1 POP JUMP JUMPDEST PUSH1 0x0 DUP2 SWAP1 POP SWAP2 SWAP1 POP JUMP JUMPDEST PUSH3 0x221 DUP4 PUSH3 0x1E4 JUMP JUMPDEST PUSH3 0x239 PUSH3 0x230 DUP3 PUSH3 0x20C JUMP JUMPDEST DUP5 DUP5 SLOAD PUSH3 0x17A JUMP JUMPDEST DUP3 SSTORE POP POP POP POP JUMP JUMPDEST PUSH1 0x0 SWAP1 JUMP JUMPDEST PUSH3 0x250 PUSH3 0x241 JUMP JUMPDEST PUSH3 0x25D DUP2 DUP5 DUP5 PUSH3 0x216 JUMP JUMPDEST POP POP POP JUMP JUMPDEST JUMPDEST DUP2 DUP2 LT ISZERO PUSH3 0x285 JUMPI PUSH3 0x279 PUSH1 0x0 DUP3 PUSH3 0x246 JUMP JUMPDEST PUSH1 0x1 DUP2 ADD SWAP1 POP PUSH3 0x263 JUMP JUMPDEST POP POP JUMP JUMPDEST PUSH1 0x1F DUP3 GT ISZERO PUSH3 0x2D4 JUMPI PUSH3 0x29E DUP2 PUSH3 0x148 JUMP JUMPDEST PUSH3 0x2A9 DUP5 PUSH3 0x15D JUMP JUMPDEST DUP2 ADD PUSH1 0x20 DUP6 LT ISZERO PUSH3 0x2B9 JUMPI DUP2 SWAP1 POP JUMPDEST PUSH3 0x2D1 PUSH3 0x2C8 DUP6 PUSH3 0x15D JUMP JUMPDEST DUP4 ADD DUP3 PUSH3 0x262 JUMP JUMPDEST POP POP JUMPDEST POP POP POP JUMP JUMPDEST PUSH1 0x0 DUP3 DUP3 SHR SWAP1 POP SWAP3 SWAP2 POP POP JUMP JUMPDEST PUSH1 0x0 PUSH3 0x2F9 PUSH1 0x0 NOT DUP5 PUSH1 0x8 MUL PUSH3 0x2D9 JUMP JUMPDEST NOT DUP1 DUP4 AND SWAP2 POP POP SWAP3 SWAP2 POP POP JUMP JUMPDEST PUSH1 0x0 PUSH3 0x314 DUP4 DUP4 PUSH3 0x2E6 JUMP JUMPDEST SWAP2 POP DUP3 PUSH1 0x2 MUL DUP3 OR SWAP1 POP SWAP3 SWAP2 POP POP JUMP JUMPDEST PUSH3 0x32F DUP3 PUSH3 0xAA JUMP JUMPDEST PUSH8 0xFFFFFFFFFFFFFFFF DUP2 GT ISZERO PUSH3 0x34B JUMPI PUSH3 0x34A PUSH3 0xB5 JUMP JUMPDEST JUMPDEST PUSH3 0x357 DUP3 SLOAD PUSH3 0x113 JUMP JUMPDEST PUSH3 0x364 DUP3 DUP3 DUP6 PUSH3 0x289 JUMP JUMPDEST PUSH1 0x0 PUSH1 0x20 SWAP1 POP PUSH1 0x1F DUP4 GT PUSH1 0x1 DUP2 EQ PUSH3 0x39C JUMPI PUSH1 0x0 DUP5 ISZERO PUSH3 0x387 JUMPI DUP3 DUP8 ADD MLOAD SWAP1 POP JUMPDEST PUSH3 0x393 DUP6 DUP3 PUSH3 0x306 JUMP JUMPDEST DUP7 SSTORE POP PUSH3 0x403 JUMP JUMPDEST PUSH1 0x1F NOT DUP5 AND PUSH3 0x3AC DUP7 PUSH3 0x148 JUMP JUMPDEST PUSH1 0x0 JUMPDEST DUP3 DUP2 LT ISZERO PUSH3 0x3D6 JUMPI DUP5 DUP10 ADD MLOAD DUP3 SSTORE PUSH1 0x1 DUP3 ADD SWAP2 POP PUSH1 0x20 DUP6 ADD SWAP5 POP PUSH1 0x20 DUP2 ADD SWAP1 POP PUSH3 0x3AF JUMP JUMPDEST DUP7 DUP4 LT ISZERO PUSH3 0x3F6 JUMPI DUP5 DUP10 ADD MLOAD PUSH3 0x3F2 PUSH1 0x1F DUP10 AND DUP3 PUSH3 0x2E6 JUMP JUMPDEST DUP4 SSTORE POP JUMPDEST PUSH1 0x1 PUSH1 0x2 DUP9 MUL ADD DUP9 SSTORE POP POP POP JUMPDEST POP POP POP POP POP POP JUMP JUMPDEST PUSH2 0x3FE8 DUP1 PUSH3 0x41B PUSH1 0x0 CODECOPY PUSH1 0x0 RETURN INVALID PUSH1 0x80 PUSH1 0x40 MSTORE CALLVALUE DUP1 ISZERO PUSH2 0x10 JUMPI PUSH1 0x0 DUP1 REVERT JUMPDEST POP PUSH1 0x4 CALLDATASIZE LT PUSH2 0x137 JUMPI PUSH1 0x0 CALLDATALOAD PUSH1 0xE0 SHR DUP1 PUSH4 0x6352211E GT PUSH2 0xB8 JUMPI DUP1 PUSH4 0xA22CB465 GT PUSH2 0x7C JUMPI DUP1 PUSH4 0xA22CB465 EQ PUSH2 0x39D JUMPI DUP1 PUSH4 0xA55EBD80 EQ PUSH2 0x3B9 JUMPI DUP1 PUSH4 0xB88D4FDE EQ PUSH2 0x3E9 JUMPI DUP1 PUSH4 0xC8024CF3 EQ PUSH2 0x405 JUMPI DUP1 PUSH4 0xC87B56DD EQ PUSH2 0x421 JUMPI DUP1 PUSH4 0xE985E9C5 EQ PUSH2 0x451 JUMPI PUSH2 0x137 JUMP JUMPDEST DUP1 PUSH4 0x6352211E EQ PUSH2 0x2BC JUMPI DUP1 PUSH4 0x6EA80F34 EQ PUSH2 0x2EC JUMPI DUP1 PUSH4 0x70A08231 EQ PUSH2 0x31C JUMPI DUP1 PUSH4 0x93D86011 EQ PUSH2 0x34C JUMPI DUP1 PUSH4 0x95D89B41 EQ PUSH2 0x37F JUMPI PUSH2 0x137 JUMP JUMPDEST DUP1 PUSH4 0x23B872DD GT PUSH2 0xFF JUMPI DUP1 PUSH4 0x23B872DD EQ PUSH2 0x1F2 JUMPI DUP1 PUSH4 0x3C14BEA6 EQ PUSH2 0x20E JUMPI DUP1 PUSH4 0x3E451D07 EQ PUSH2 0x240 JUMPI DUP1 PUSH4 0x42842E0E EQ PUSH2 0x270 JUMPI DUP1 PUSH4 0x5A9E37F0 EQ PUSH2 0x28C JUMPI PUSH2 0x137 JUMP JUMPDEST DUP1 PUSH4 0x1FFC9A7 EQ PUSH2 0x13C JUMPI DUP1 PUSH4 0x6FDDE03 EQ PUSH2 0x16C JUMPI DUP1 PUSH4 0x73DCBD6 EQ PUSH2 0x18A JUMPI DUP1 PUSH4 0x81812FC EQ PUSH2 0x1A6 JUMPI DUP1 PUSH4 0x95EA7B3 EQ PUSH2 0x1D6 JUMPI JUMPDEST PUSH1 0x0 DUP1 REVERT JUMPDEST PUSH2 0x156 PUSH1 0x4 DUP1 CALLDATASIZE SUB DUP2 ADD SWAP1 PUSH2 0x151 SWAP2 SWAP1 PUSH2 0x2466 JUMP JUMPDEST PUSH2 0x481 JUMP JUMPDEST PUSH1 0x40 MLOAD PUSH2 0x163 SWAP2 SWAP1 PUSH2 0x24AE JUMP JUMPDEST PUSH1 0x40 MLOAD DUP1 SWAP2 SUB SWAP1 RETURN JUMPDEST PUSH2 0x174 PUSH2 0x563 JUMP JUMPDEST PUSH1 0x40 MLOAD PUSH2 0x181 SWAP2 SWAP1 PUSH2 0x2559 JUMP JUMPDEST PUSH1 0x40 MLOAD DUP1 SWAP2 SUB SWAP1 RETURN JUMPDEST PUSH2 0x1A4 PUSH1 0x4 DUP1 CALLDATASIZE SUB DUP2 ADD SWAP1 PUSH2 0x19F SWAP2 SWAP1 PUSH2 0x26E6 JUMP JUMPDEST PUSH2 0x5F5 JUMP JUMPDEST STOP JUMPDEST PUSH2 0x1C0 PUSH1 0x4 DUP1 CALLDATASIZE SUB DUP2 ADD SWAP1 PUSH2 0x1BB SWAP2 SWAP1 PUSH2 0x27D7 JUMP JUMPDEST PUSH2 0x7E1 JUMP JUMPDEST PUSH1 0x40 MLOAD PUSH2 0x1CD SWAP2 SWAP1 PUSH2 0x2845 JUMP JUMPDEST PUSH1 0x40 MLOAD DUP1 SWAP2 SUB SWAP1 RETURN JUMPDEST PUSH2 0x1F0 PUSH1 0x4 DUP1 CALLDATASIZE SUB DUP2 ADD SWAP1 PUSH2 0x1EB SWAP2 SWAP1 PUSH2 0x288C JUMP JUMPDEST PUSH2 0x866 JUMP JUMPDEST STOP JUMPDEST PUSH2 0x20C PUSH1 0x4 DUP1 CALLDATASIZE SUB DUP2 ADD SWAP1 PUSH2 0x207 SWAP2 SWAP1 PUSH2 0x28CC JUMP JUMPDEST PUSH2 0x97D JUMP JUMPDEST STOP JUMPDEST PUSH2 0x228 PUSH1 0x4 DUP1 CALLDATASIZE SUB DUP2 ADD SWAP1 PUSH2 0x223 SWAP2 SWAP1 PUSH2 0x291F JUMP JUMPDEST PUSH2 0x9DD JUMP JUMPDEST PUSH1 0x40 MLOAD PUSH2 0x237 SWAP4 SWAP3 SWAP2 SWAP1 PUSH2 0x294C JUMP JUMPDEST PUSH1 0x40 MLOAD DUP1 SWAP2 SUB SWAP1 RETURN JUMPDEST PUSH2 0x25A PUSH1 0x4 DUP1 CALLDATASIZE SUB DUP2 ADD SWAP1 PUSH2 0x255 SWAP2 SWAP1 PUSH2 0x291F JUMP JUMPDEST PUSH2 0xC3C JUMP JUMPDEST PUSH1 0x40 MLOAD PUSH2 0x267 SWAP2 SWAP1 PUSH2 0x2559 JUMP JUMPDEST PUSH1 0x40 MLOAD DUP1 SWAP2 SUB SWAP1 RETURN JUMPDEST PUSH2 0x28A PUSH1 0x4 DUP1 CALLDATASIZE SUB DUP2 ADD SWAP1 PUSH2 0x285 SWAP2 SWAP1 PUSH2 0x28CC JUMP JUMPDEST PUSH2 0xCDC JUMP JUMPDEST STOP JUMPDEST PUSH2 0x2A6 PUSH1 0x4 DUP1 CALLDATASIZE SUB DUP2 ADD SWAP1 PUSH2 0x2A1 SWAP2 SWAP1 PUSH2 0x291F JUMP JUMPDEST PUSH2 0xCFC JUMP JUMPDEST PUSH1 0x40 MLOAD PUSH2 0x2B3 SWAP2 SWAP1 PUSH2 0x2559 JUMP JUMPDEST PUSH1 0x40 MLOAD DUP1 SWAP2 SUB SWAP1 RETURN JUMPDEST PUSH2 0x2D6 PUSH1 0x4 DUP1 CALLDATASIZE SUB DUP2 ADD SWAP1 PUSH2 0x2D1 SWAP2 SWAP1 PUSH2 0x27D7 JUMP JUMPDEST PUSH2 0xDA1 JUMP JUMPDEST PUSH1 0x40 MLOAD PUSH2 0x2E3 SWAP2 SWAP1 PUSH2 0x2845 JUMP JUMPDEST PUSH1 0x40 MLOAD DUP1 SWAP2 SUB SWAP1 RETURN JUMPDEST PUSH2 0x306 PUSH1 0x4 DUP1 CALLDATASIZE SUB DUP2 ADD SWAP1 PUSH2 0x301 SWAP2 SWAP1 PUSH2 0x2998 JUMP JUMPDEST PUSH2 0xE52 JUMP JUMPDEST PUSH1 0x40 MLOAD PUSH2 0x313 SWAP2 SWAP1 PUSH2 0x2A16 JUMP JUMPDEST PUSH1 0x40 MLOAD DUP1 SWAP2 SUB SWAP1 RETURN JUMPDEST PUSH2 0x336 PUSH1 0x4 DUP1 CALLDATASIZE SUB DUP2 ADD SWAP1 PUSH2 0x331 SWAP2 SWAP1 PUSH2 0x2A31 JUMP JUMPDEST PUSH2 0xFF3 JUMP JUMPDEST PUSH1 0x40 MLOAD PUSH2 0x343 SWAP2 SWAP1 PUSH2 0x2A16 JUMP JUMPDEST PUSH1 0x40 MLOAD DUP1 SWAP2 SUB SWAP1 RETURN JUMPDEST PUSH2 0x366 PUSH1 0x4 DUP1 CALLDATASIZE SUB DUP2 ADD SWAP1 PUSH2 0x361 SWAP2 SWAP1 PUSH2 0x291F JUMP JUMPDEST PUSH2 0x10AA JUMP JUMPDEST PUSH1 0x40 MLOAD PUSH2 0x376 SWAP5 SWAP4 SWAP3 SWAP2 SWAP1 PUSH2 0x2A6D JUMP JUMPDEST PUSH1 0x40 MLOAD DUP1 SWAP2 SUB SWAP1 RETURN JUMPDEST PUSH2 0x387 PUSH2 0x1272 JUMP JUMPDEST PUSH1 0x40 MLOAD PUSH2 0x394 SWAP2 SWAP1 PUSH2 0x2559 JUMP JUMPDEST PUSH1 0x40 MLOAD DUP1 SWAP2 SUB SWAP1 RETURN JUMPDEST PUSH2 0x3B7 PUSH1 0x4 DUP1 CALLDATASIZE SUB DUP2 ADD SWAP1 PUSH2 0x3B2 SWAP2 SWAP1 PUSH2 0x2AF3 JUMP JUMPDEST PUSH2 0x1304 JUMP JUMPDEST STOP JUMPDEST PUSH2 0x3D3 PUSH1 0x4 DUP1 CALLDATASIZE SUB DUP2 ADD SWAP1 PUSH2 0x3CE SWAP2 SWAP1 PUSH2 0x291F JUMP JUMPDEST PUSH2 0x1484 JUMP JUMPDEST PUSH1 0x40 MLOAD PUSH2 0x3E0 SWAP2 SWAP1 PUSH2 0x24AE JUMP JUMPDEST PUSH1 0x40 MLOAD DUP1 SWAP2 SUB SWAP1 RETURN JUMPDEST PUSH2 0x403 PUSH1 0x4 DUP1 CALLDATASIZE SUB DUP2 ADD SWAP1 PUSH2 0x3FE SWAP2 SWAP1 PUSH2 0x2BD4 JUMP JUMPDEST PUSH2 0x1539 JUMP JUMPDEST STOP JUMPDEST PUSH2 0x41F PUSH1 0x4 DUP1 CALLDATASIZE SUB DUP2 ADD SWAP1 PUSH2 0x41A SWAP2 SWAP1 PUSH2 0x2E00 JUMP JUMPDEST PUSH2 0x159B JUMP JUMPDEST STOP JUMPDEST PUSH2 0x43B PUSH1 0x4 DUP1 CALLDATASIZE SUB DUP2 ADD SWAP1 PUSH2 0x436 SWAP2 SWAP1 PUSH2 0x27D7 JUMP JUMPDEST PUSH2 0x1998 JUMP JUMPDEST PUSH1 0x40 MLOAD PUSH2 0x448 SWAP2 SWAP1 PUSH2 0x2559 JUMP JUMPDEST PUSH1 0x40 MLOAD DUP1 SWAP2 SUB SWAP1 RETURN JUMPDEST PUSH2 0x46B PUSH1 0x4 DUP1 CALLDATASIZE SUB DUP2 ADD SWAP1 PUSH2 0x466 SWAP2 SWAP1 PUSH2 0x2ED7 JUMP JUMPDEST PUSH2 0x1A85 JUMP JUMPDEST PUSH1 0x40 MLOAD PUSH2 0x478 SWAP2 SWAP1 PUSH2 0x24AE JUMP JUMPDEST PUSH1 0x40 MLOAD DUP1 SWAP2 SUB SWAP1 RETURN JUMPDEST PUSH1 0x0 PUSH32 0x80AC58CD00000000000000000000000000000000000000000000000000000000 PUSH28 0xFFFFFFFFFFFFFFFFFFFFFFFFFFFFFFFFFFFFFFFFFFFFFFFFFFFFFFFF NOT AND DUP3 PUSH28 0xFFFFFFFFFFFFFFFFFFFFFFFFFFFFFFFFFFFFFFFFFFFFFFFFFFFFFFFF NOT AND EQ DUP1 PUSH2 0x54C JUMPI POP PUSH32 0x5B5E139F00000000000000000000000000000000000000000000000000000000 PUSH28 0xFFFFFFFFFFFFFFFFFFFFFFFFFFFFFFFFFFFFFFFFFFFFFFFFFFFFFFFF NOT AND DUP3 PUSH28 0xFFFFFFFFFFFFFFFFFFFFFFFFFFFFFFFFFFFFFFFFFFFFFFFFFFFFFFFF NOT AND EQ JUMPDEST DUP1 PUSH2 0x55C JUMPI POP PUSH2 0x55B DUP3 PUSH2 0x1B19 JUMP JUMPDEST JUMPDEST SWAP1 POP SWAP2 SWAP1 POP JUMP JUMPDEST PUSH1 0x60 PUSH1 0x0 DUP1 SLOAD PUSH2 0x572 SWAP1 PUSH2 0x2F46 JUMP JUMPDEST DUP1 PUSH1 0x1F ADD PUSH1 0x20 DUP1 SWAP2 DIV MUL PUSH1 0x20 ADD PUSH1 0x40 MLOAD SWAP1 DUP2 ADD PUSH1 0x40 MSTORE DUP1 SWAP3 SWAP2 SWAP1 DUP2 DUP2 MSTORE PUSH1 0x20 ADD DUP3 DUP1 SLOAD PUSH2 0x59E SWAP1 PUSH2 0x2F46 JUMP JUMPDEST DUP1 ISZERO PUSH2 0x5EB JUMPI DUP1 PUSH1 0x1F LT PUSH2 0x5C0 JUMPI PUSH2 0x100 DUP1 DUP4 SLOAD DIV MUL DUP4 MSTORE SWAP2 PUSH1 0x20 ADD SWAP2 PUSH2 0x5EB JUMP JUMPDEST DUP3 ADD SWAP2 SWAP1 PUSH1 0x0 MSTORE PUSH1 0x20 PUSH1 0x0 KECCAK256 SWAP1 JUMPDEST DUP2 SLOAD DUP2 MSTORE SWAP1 PUSH1 0x1 ADD SWAP1 PUSH1 0x20 ADD DUP1 DUP4 GT PUSH2 0x5CE JUMPI DUP3 SWAP1 SUB PUSH1 0x1F AND DUP3 ADD SWAP2 JUMPDEST POP POP POP POP POP SWAP1 POP SWAP1 JUMP JUMPDEST PUSH1 0x0 DUP1 SHL PUSH1 0x7 PUSH1 0x0 DUP5 DUP2 MSTORE PUSH1 0x20 ADD SWAP1 DUP2 MSTORE PUSH1 0x20 ADD PUSH1 0x0 KECCAK256 PUSH1 0x2 ADD SLOAD EQ PUSH2 0x650 JUMPI PUSH1 0x40 MLOAD PUSH32 0x8C379A000000000000000000000000000000000000000000000000000000000 DUP2 MSTORE PUSH1 0x4 ADD PUSH2 0x647 SWAP1 PUSH2 0x2FC3 JUMP JUMPDEST PUSH1 0x40 MLOAD DUP1 SWAP2 SUB SWAP1 REVERT JUMPDEST PUSH1 0x0 DUP5 MLOAD GT PUSH2 0x694 JUMPI PUSH1 0x40 MLOAD PUSH32 0x8C379A000000000000000000000000000000000000000000000000000000000 DUP2 MSTORE PUSH1 0x4 ADD PUSH2 0x68B SWAP1 PUSH2 0x302F JUMP JUMPDEST PUSH1 0x40 MLOAD DUP1 SWAP2 SUB SWAP1 REVERT JUMPDEST PUSH1 0x0 DUP4 MLOAD GT PUSH2 0x6D8 JUMPI PUSH1 0x40 MLOAD PUSH32 0x8C379A000000000000000000000000000000000000000000000000000000000 DUP2 MSTORE PUSH1 0x4 ADD PUSH2 0x6CF SWAP1 PUSH2 0x309B JUMP JUMPDEST PUSH1 0x40 MLOAD DUP1 SWAP2 SUB SWAP1 REVERT JUMPDEST PUSH1 0x0 DUP2 MLOAD GT PUSH2 0x71C JUMPI PUSH1 0x40 MLOAD PUSH32 0x8C379A000000000000000000000000000000000000000000000000000000000 DUP2 MSTORE PUSH1 0x4 ADD PUSH2 0x713 SWAP1 PUSH2 0x3107 JUMP JUMPDEST PUSH1 0x40 MLOAD DUP1 SWAP2 SUB SWAP1 REVERT JUMPDEST PUSH1 0x40 MLOAD DUP1 PUSH1 0x80 ADD PUSH1 0x40 MSTORE DUP1 DUP6 DUP2 MSTORE PUSH1 0x20 ADD DUP5 DUP2 MSTORE PUSH1 0x20 ADD DUP4 DUP2 MSTORE PUSH1 0x20 ADD DUP3 DUP2 MSTORE POP PUSH1 0x7 PUSH1 0x0 DUP5 DUP2 MSTORE PUSH1 0x20 ADD SWAP1 DUP2 MSTORE PUSH1 0x20 ADD PUSH1 0x0 KECCAK256 PUSH1 0x0 DUP3 ADD MLOAD DUP2 PUSH1 0x0 ADD SWAP1 DUP2 PUSH2 0x765 SWAP2 SWAP1 PUSH2 0x32D3 JUMP JUMPDEST POP PUSH1 0x20 DUP3 ADD MLOAD DUP2 PUSH1 0x1 ADD SWAP1 DUP2 PUSH2 0x77B SWAP2 SWAP1 PUSH2 0x32D3 JUMP JUMPDEST POP PUSH1 0x40 DUP3 ADD MLOAD DUP2 PUSH1 0x2 ADD SSTORE PUSH1 0x60 DUP3 ADD MLOAD DUP2 PUSH1 0x3 ADD SWAP1 DUP2 PUSH2 0x79B SWAP2 SWAP1 PUSH2 0x32D3 JUMP JUMPDEST POP SWAP1 POP POP DUP2 PUSH32 0xDD5DCBF222AEF8B9D7FCAAFF69BBCC6B0C91631A1F1BF156FCDACFB1D2D1ED0B DUP6 DUP6 DUP5 PUSH1 0x40 MLOAD PUSH2 0x7D3 SWAP4 SWAP3 SWAP2 SWAP1 PUSH2 0x294C JUMP JUMPDEST PUSH1 0x40 MLOAD DUP1 SWAP2 SUB SWAP1 LOG2 POP POP POP POP JUMP JUMPDEST PUSH1 0x0 PUSH2 0x7EC DUP3 PUSH2 0x1B83 JUMP JUMPDEST PUSH2 0x82B JUMPI PUSH1 0x40 MLOAD PUSH32 0x8C379A000000000000000000000000000000000000000000000000000000000 DUP2 MSTORE PUSH1 0x4 ADD PUSH2 0x822 SWAP1 PUSH2 0x3417 JUMP JUMPDEST PUSH1 0x40 MLOAD DUP1 SWAP2 SUB SWAP1 REVERT JUMPDEST PUSH1 0x4 PUSH1 0x0 DUP4 DUP2 MSTORE PUSH1 0x20 ADD SWAP1 DUP2 MSTORE PUSH1 0x20 ADD PUSH1 0x0 KECCAK256 PUSH1 0x0 SWAP1 SLOAD SWAP1 PUSH2 0x100 EXP SWAP1 DIV PUSH20 0xFFFFFFFFFFFFFFFFFFFFFFFFFFFFFFFFFFFFFFFF AND SWAP1 POP SWAP2 SWAP1 POP JUMP JUMPDEST PUSH1 0x0 PUSH2 0x871 DUP3 PUSH2 0xDA1 JUMP JUMPDEST SWAP1 POP DUP1 PUSH20 0xFFFFFFFFFFFFFFFFFFFFFFFFFFFFFFFFFFFFFFFF AND DUP4 PUSH20 0xFFFFFFFFFFFFFFFFFFFFFFFFFFFFFFFFFFFFFFFF AND SUB PUSH2 0x8E1 JUMPI PUSH1 0x40 MLOAD PUSH32 0x8C379A000000000000000000000000000000000000000000000000000000000 DUP2 MSTORE PUSH1 0x4 ADD PUSH2 0x8D8 SWAP1 PUSH2 0x34A9 JUMP JUMPDEST PUSH1 0x40 MLOAD DUP1 SWAP2 SUB SWAP1 REVERT JUMPDEST DUP1 PUSH20 0xFFFFFFFFFFFFFFFFFFFFFFFFFFFFFFFFFFFFFFFF AND PUSH2 0x900 PUSH2 0x1BEF JUMP JUMPDEST PUSH20 0xFFFFFFFFFFFFFFFFFFFFFFFFFFFFFFFFFFFFFFFF AND EQ DUP1 PUSH2 0x92F JUMPI POP PUSH2 0x92E DUP2 PUSH2 0x929 PUSH2 0x1BEF JUMP JUMPDEST PUSH2 0x1A85 JUMP JUMPDEST JUMPDEST PUSH2 0x96E JUMPI PUSH1 0x40 MLOAD PUSH32 0x8C379A000000000000000000000000000000000000000000000000000000000 DUP2 MSTORE PUSH1 0x4 ADD PUSH2 0x965 SWAP1 PUSH2 0x353B JUMP JUMPDEST PUSH1 0x40 MLOAD DUP1 SWAP2 SUB SWAP1 REVERT JUMPDEST PUSH2 0x978 DUP4 DUP4 PUSH2 0x1BF7 JUMP JUMPDEST POP POP POP JUMP JUMPDEST PUSH2 0x98E PUSH2 0x988 PUSH2 0x1BEF JUMP JUMPDEST DUP3 PUSH2 0x1CB0 JUMP JUMPDEST PUSH2 0x9CD JUMPI PUSH1 0x40 MLOAD PUSH32 0x8C379A000000000000000000000000000000000000000000000000000000000 DUP2 MSTORE PUSH1 0x4 ADD PUSH2 0x9C4 SWAP1 PUSH2 0x35CD JUMP JUMPDEST PUSH1 0x40 MLOAD DUP1 SWAP2 SUB SWAP1 REVERT JUMPDEST PUSH2 0x9D8 DUP4 DUP4 DUP4 PUSH2 0x1D8E JUMP JUMPDEST POP POP POP JUMP JUMPDEST PUSH1 0x60 DUP1 PUSH1 0x60 PUSH1 0x0 DUP1 SHL PUSH1 0x7 PUSH1 0x0 DUP7 DUP2 MSTORE PUSH1 0x20 ADD SWAP1 DUP2 MSTORE PUSH1 0x20 ADD PUSH1 0x0 KECCAK256 PUSH1 0x2 ADD SLOAD SUB PUSH2 0xA3D JUMPI PUSH1 0x40 MLOAD PUSH32 0x8C379A000000000000000000000000000000000000000000000000000000000 DUP2 MSTORE PUSH1 0x4 ADD PUSH2 0xA34 SWAP1 PUSH2 0x3639 JUMP JUMPDEST PUSH1 0x40 MLOAD DUP1 SWAP2 SUB SWAP1 REVERT JUMPDEST PUSH1 0x0 PUSH1 0x7 PUSH1 0x0 DUP7 DUP2 MSTORE PUSH1 0x20 ADD SWAP1 DUP2 MSTORE PUSH1 0x20 ADD PUSH1 0x0 KECCAK256 PUSH1 0x40 MLOAD DUP1 PUSH1 0x80 ADD PUSH1 0x40 MSTORE SWAP1 DUP2 PUSH1 0x0 DUP3 ADD DUP1 SLOAD PUSH2 0xA6D SWAP1 PUSH2 0x2F46 JUMP JUMPDEST DUP1 PUSH1 0x1F ADD PUSH1 0x20 DUP1 SWAP2 DIV MUL PUSH1 0x20 ADD PUSH1 0x40 MLOAD SWAP1 DUP2 ADD PUSH1 0x40 MSTORE DUP1 SWAP3 SWAP2 SWAP1 DUP2 DUP2 MSTORE PUSH1 0x20 ADD DUP3 DUP1 SLOAD PUSH2 0xA99 SWAP1 PUSH2 0x2F46 JUMP JUMPDEST DUP1 ISZERO PUSH2 0xAE6 JUMPI DUP1 PUSH1 0x1F LT PUSH2 0xABB JUMPI PUSH2 0x100 DUP1 DUP4 SLOAD DIV MUL DUP4 MSTORE SWAP2 PUSH1 0x20 ADD SWAP2 PUSH2 0xAE6 JUMP JUMPDEST DUP3 ADD SWAP2 SWAP1 PUSH1 0x0 MSTORE PUSH1 0x20 PUSH1 0x0 KECCAK256 SWAP1 JUMPDEST DUP2 SLOAD DUP2 MSTORE SWAP1 PUSH1 0x1 ADD SWAP1 PUSH1 0x20 ADD DUP1 DUP4 GT PUSH2 0xAC9 JUMPI DUP3 SWAP1 SUB PUSH1 0x1F AND DUP3 ADD SWAP2 JUMPDEST POP POP POP POP POP DUP2 MSTORE PUSH1 0x20 ADD PUSH1 0x1 DUP3 ADD DUP1 SLOAD PUSH2 0xAFF SWAP1 PUSH2 0x2F46 JUMP JUMPDEST DUP1 PUSH1 0x1F ADD PUSH1 0x20 DUP1 SWAP2 DIV MUL PUSH1 0x20 ADD PUSH1 0x40 MLOAD SWAP1 DUP2 ADD PUSH1 0x40 MSTORE DUP1 SWAP3 SWAP2 SWAP1 DUP2 DUP2 MSTORE PUSH1 0x20 ADD DUP3 DUP1 SLOAD PUSH2 0xB2B SWAP1 PUSH2 0x2F46 JUMP JUMPDEST DUP1 ISZERO PUSH2 0xB78 JUMPI DUP1 PUSH1 0x1F LT PUSH2 0xB4D JUMPI PUSH2 0x100 DUP1 DUP4 SLOAD DIV MUL DUP4 MSTORE SWAP2 PUSH1 0x20 ADD SWAP2 PUSH2 0xB78 JUMP JUMPDEST DUP3 ADD SWAP2 SWAP1 PUSH1 0x0 MSTORE PUSH1 0x20 PUSH1 0x0 KECCAK256 SWAP1 JUMPDEST DUP2 SLOAD DUP2 MSTORE SWAP1 PUSH1 0x1 ADD SWAP1 PUSH1 0x20 ADD DUP1 DUP4 GT PUSH2 0xB5B JUMPI DUP3 SWAP1 SUB PUSH1 0x1F AND DUP3 ADD SWAP2 JUMPDEST POP POP POP POP POP DUP2 MSTORE PUSH1 0x20 ADD PUSH1 0x2 DUP3 ADD SLOAD DUP2 MSTORE PUSH1 0x20 ADD PUSH1 0x3 DUP3 ADD DUP1 SLOAD PUSH2 0xB9B SWAP1 PUSH2 0x2F46 JUMP JUMPDEST DUP1 PUSH1 0x1F ADD PUSH1 0x20 DUP1 SWAP2 DIV MUL PUSH1 0x20 ADD PUSH1 0x40 MLOAD SWAP1 DUP2 ADD PUSH1 0x40 MSTORE DUP1 SWAP3 SWAP2 SWAP1 DUP2 DUP2 MSTORE PUSH1 0x20 ADD DUP3 DUP1 SLOAD PUSH2 0xBC7 SWAP1 PUSH2 0x2F46 JUMP JUMPDEST DUP1 ISZERO PUSH2 0xC14 JUMPI DUP1 PUSH1 0x1F LT PUSH2 0xBE9 JUMPI PUSH2 0x100 DUP1 DUP4 SLOAD DIV MUL DUP4 MSTORE SWAP2 PUSH1 0x20 ADD SWAP2 PUSH2 0xC14 JUMP JUMPDEST DUP3 ADD SWAP2 SWAP1 PUSH1 0x0 MSTORE PUSH1 0x20 PUSH1 0x0 KECCAK256 SWAP1 JUMPDEST DUP2 SLOAD DUP2 MSTORE SWAP1 PUSH1 0x1 ADD SWAP1 PUSH1 0x20 ADD DUP1 DUP4 GT PUSH2 0xBF7 JUMPI DUP3 SWAP1 SUB PUSH1 0x1F AND DUP3 ADD SWAP2 JUMPDEST POP POP POP POP POP DUP2 MSTORE POP POP SWAP1 POP DUP1 PUSH1 0x0 ADD MLOAD DUP2 PUSH1 0x20 ADD MLOAD DUP3 PUSH1 0x60 ADD MLOAD SWAP4 POP SWAP4 POP SWAP4 POP POP SWAP2 SWAP4 SWAP1 SWAP3 POP JUMP JUMPDEST PUSH1 0x9 PUSH1 0x20 MSTORE DUP1 PUSH1 0x0 MSTORE PUSH1 0x40 PUSH1 0x0 KECCAK256 PUSH1 0x0 SWAP2 POP SWAP1 POP DUP1 SLOAD PUSH2 0xC5B SWAP1 PUSH2 0x2F46 JUMP JUMPDEST DUP1 PUSH1 0x1F ADD PUSH1 0x20 DUP1 SWAP2 DIV MUL PUSH1 0x20 ADD PUSH1 0x40 MLOAD SWAP1 DUP2 ADD PUSH1 0x40 MSTORE DUP1 SWAP3 SWAP2 SWAP1 DUP2 DUP2 MSTORE PUSH1 0x20 ADD DUP3 DUP1 SLOAD PUSH2 0xC87 SWAP1 PUSH2 0x2F46 JUMP JUMPDEST DUP1 ISZERO PUSH2 0xCD4 JUMPI DUP1 PUSH1 0x1F LT PUSH2 0xCA9 JUMPI PUSH2 0x100 DUP1 DUP4 SLOAD DIV MUL DUP4 MSTORE SWAP2 PUSH1 0x20 ADD SWAP2 PUSH2 0xCD4 JUMP JUMPDEST DUP3 ADD SWAP2 SWAP1 PUSH1 0x0 MSTORE PUSH1 0x20 PUSH1 0x0 KECCAK256 SWAP1 JUMPDEST DUP2 SLOAD DUP2 MSTORE SWAP1 PUSH1 0x1 ADD SWAP1 PUSH1 0x20 ADD DUP1 DUP4 GT PUSH2 0xCB7 JUMPI DUP3 SWAP1 SUB PUSH1 0x1F AND DUP3 ADD SWAP2 JUMPDEST POP POP POP POP POP DUP2 JUMP JUMPDEST PUSH2 0xCF7 DUP4 DUP4 DUP4 PUSH1 0x40 MLOAD DUP1 PUSH1 0x20 ADD PUSH1 0x40 MSTORE DUP1 PUSH1 0x0 DUP2 MSTORE POP PUSH2 0x1539 JUMP JUMPDEST POP POP POP JUMP JUMPDEST PUSH1 0x60 PUSH1 0x9 PUSH1 0x0 DUP4 DUP2 MSTORE PUSH1 0x20 ADD SWAP1 DUP2 MSTORE PUSH1 0x20 ADD PUSH1 0x0 KECCAK256 DUP1 SLOAD PUSH2 0xD1C SWAP1 PUSH2 0x2F46 JUMP JUMPDEST DUP1 PUSH1 0x1F ADD PUSH1 0x20 DUP1 SWAP2 DIV MUL PUSH1 0x20 ADD PUSH1 0x40 MLOAD SWAP1 DUP2 ADD PUSH1 0x40 MSTORE DUP1 SWAP3 SWAP2 SWAP1 DUP2 DUP2 MSTORE PUSH1 0x20 ADD DUP3 DUP1 SLOAD PUSH2 0xD48 SWAP1 PUSH2 0x2F46 JUMP JUMPDEST DUP1 ISZERO PUSH2 0xD95 JUMPI DUP1 PUSH1 0x1F LT PUSH2 0xD6A JUMPI PUSH2 0x100 DUP1 DUP4 SLOAD DIV MUL DUP4 MSTORE SWAP2 PUSH1 0x20 ADD SWAP2 PUSH2 0xD95 JUMP JUMPDEST DUP3 ADD SWAP2 SWAP1 PUSH1 0x0 MSTORE PUSH1 0x20 PUSH1 0x0 KECCAK256 SWAP1 JUMPDEST DUP2 SLOAD DUP2 MSTORE SWAP1 PUSH1 0x1 ADD SWAP1 PUSH1 0x20 ADD DUP1 DUP4 GT PUSH2 0xD78 JUMPI DUP3 SWAP1 SUB PUSH1 0x1F AND DUP3 ADD SWAP2 JUMPDEST POP POP POP POP POP SWAP1 POP SWAP2 SWAP1 POP JUMP JUMPDEST PUSH1 0x0 DUP1 PUSH1 0x2 PUSH1 0x0 DUP5 DUP2 MSTORE PUSH1 0x20 ADD SWAP1 DUP2 MSTORE PUSH1 0x20 ADD PUSH1 0x0 KECCAK256 PUSH1 0x0 SWAP1 SLOAD SWAP1 PUSH2 0x100 EXP SWAP1 DIV PUSH20 0xFFFFFFFFFFFFFFFFFFFFFFFFFFFFFFFFFFFFFFFF AND SWAP1 POP PUSH1 0x0 PUSH20 0xFFFFFFFFFFFFFFFFFFFFFFFFFFFFFFFFFFFFFFFF AND DUP2 PUSH20 0xFFFFFFFFFFFFFFFFFFFFFFFFFFFFFFFFFFFFFFFF AND SUB PUSH2 0xE49 JUMPI PUSH1 0x40 MLOAD PUSH32 0x8C379A000000000000000000000000000000000000000000000000000000000 DUP2 MSTORE PUSH1 0x4 ADD PUSH2 0xE40 SWAP1 PUSH2 0x36CB JUMP JUMPDEST PUSH1 0x40 MLOAD DUP1 SWAP2 SUB SWAP1 REVERT JUMPDEST DUP1 SWAP2 POP POP SWAP2 SWAP1 POP JUMP JUMPDEST PUSH1 0x0 DUP1 DUP4 MLOAD GT PUSH2 0xE97 JUMPI PUSH1 0x40 MLOAD PUSH32 0x8C379A000000000000000000000000000000000000000000000000000000000 DUP2 MSTORE PUSH1 0x4 ADD PUSH2 0xE8E SWAP1 PUSH2 0x3737 JUMP JUMPDEST PUSH1 0x40 MLOAD DUP1 SWAP2 SUB SWAP1 REVERT JUMPDEST PUSH1 0x0 PUSH20 0xFFFFFFFFFFFFFFFFFFFFFFFFFFFFFFFFFFFFFFFF AND DUP5 PUSH20 0xFFFFFFFFFFFFFFFFFFFFFFFFFFFFFFFFFFFFFFFF AND SUB PUSH2 0xF06 JUMPI PUSH1 0x40 MLOAD PUSH32 0x8C379A000000000000000000000000000000000000000000000000000000000 DUP2 MSTORE PUSH1 0x4 ADD PUSH2 0xEFD SWAP1 PUSH2 0x37A3 JUMP JUMPDEST PUSH1 0x40 MLOAD DUP1 SWAP2 SUB SWAP1 REVERT JUMPDEST PUSH1 0x0 DUP1 SHL DUP3 SUB PUSH2 0xF4B JUMPI PUSH1 0x40 MLOAD PUSH32 0x8C379A000000000000000000000000000000000000000000000000000000000 DUP2 MSTORE PUSH1 0x4 ADD PUSH2 0xF42 SWAP1 PUSH2 0x380F JUMP JUMPDEST PUSH1 0x40 MLOAD DUP1 SWAP2 SUB SWAP1 REVERT JUMPDEST PUSH2 0xF55 PUSH1 0x6 PUSH2 0x1FE9 JUMP JUMPDEST PUSH1 0x0 PUSH2 0xF61 PUSH1 0x6 PUSH2 0x1FFF JUMP JUMPDEST SWAP1 POP PUSH2 0xF6D DUP6 DUP3 PUSH2 0x200D JUMP JUMPDEST PUSH2 0xF77 DUP2 DUP6 PUSH2 0x21DA JUMP JUMPDEST DUP4 PUSH1 0x9 PUSH1 0x0 DUP6 DUP2 MSTORE PUSH1 0x20 ADD SWAP1 DUP2 MSTORE PUSH1 0x20 ADD PUSH1 0x0 KECCAK256 SWAP1 DUP2 PUSH2 0xF97 SWAP2 SWAP1 PUSH2 0x32D3 JUMP JUMPDEST POP DUP5 PUSH20 0xFFFFFFFFFFFFFFFFFFFFFFFFFFFFFFFFFFFFFFFF AND PUSH32 0xD365109541E56A01D10F82079302356A6F67A0EA812AA056441A99071B916C9A DUP3 DUP7 PUSH1 0x40 MLOAD PUSH2 0xFE0 SWAP3 SWAP2 SWAP1 PUSH2 0x382F JUMP JUMPDEST PUSH1 0x40 MLOAD DUP1 SWAP2 SUB SWAP1 LOG2 DUP1 SWAP2 POP POP SWAP4 SWAP3 POP POP POP JUMP JUMPDEST PUSH1 0x0 DUP1 PUSH20 0xFFFFFFFFFFFFFFFFFFFFFFFFFFFFFFFFFFFFFFFF AND DUP3 PUSH20 0xFFFFFFFFFFFFFFFFFFFFFFFFFFFFFFFFFFFFFFFF AND SUB PUSH2 0x1063 JUMPI PUSH1 0x40 MLOAD PUSH32 0x8C379A000000000000000000000000000000000000000000000000000000000 DUP2 MSTORE PUSH1 0x4 ADD PUSH2 0x105A SWAP1 PUSH2 0x38D1 JUMP JUMPDEST PUSH1 0x40 MLOAD DUP1 SWAP2 SUB SWAP1 REVERT JUMPDEST PUSH1 0x3 PUSH1 0x0 DUP4 PUSH20 0xFFFFFFFFFFFFFFFFFFFFFFFFFFFFFFFFFFFFFFFF AND PUSH20 0xFFFFFFFFFFFFFFFFFFFFFFFFFFFFFFFFFFFFFFFF AND DUP2 MSTORE PUSH1 0x20 ADD SWAP1 DUP2 MSTORE PUSH1 0x20 ADD PUSH1 0x0 KECCAK256 SLOAD SWAP1 POP SWAP2 SWAP1 POP JUMP JUMPDEST PUSH1 0x7 PUSH1 0x20 MSTORE DUP1 PUSH1 0x0 MSTORE PUSH1 0x40 PUSH1 0x0 KECCAK256 PUSH1 0x0 SWAP2 POP SWAP1 POP DUP1 PUSH1 0x0 ADD DUP1 SLOAD PUSH2 0x10CD SWAP1 PUSH2 0x2F46 JUMP JUMPDEST DUP1 PUSH1 0x1F ADD PUSH1 0x20 DUP1 SWAP2 DIV MUL PUSH1 0x20 ADD PUSH1 0x40 MLOAD SWAP1 DUP2 ADD PUSH1 0x40 MSTORE DUP1 SWAP3 SWAP2 SWAP1 DUP2 DUP2 MSTORE PUSH1 0x20 ADD DUP3 DUP1 SLOAD PUSH2 0x10F9 SWAP1 PUSH2 0x2F46 JUMP JUMPDEST DUP1 ISZERO PUSH2 0x1146 JUMPI DUP1 PUSH1 0x1F LT PUSH2 0x111B JUMPI PUSH2 0x100 DUP1 DUP4 SLOAD DIV MUL DUP4 MSTORE SWAP2 PUSH1 0x20 ADD SWAP2 PUSH2 0x1146 JUMP JUMPDEST DUP3 ADD SWAP2 SWAP1 PUSH1 0x0 MSTORE PUSH1 0x20 PUSH1 0x0 KECCAK256 SWAP1 JUMPDEST DUP2 SLOAD DUP2 MSTORE SWAP1 PUSH1 0x1 ADD SWAP1 PUSH1 0x20 ADD DUP1 DUP4 GT PUSH2 0x1129 JUMPI DUP3 SWAP1 SUB PUSH1 0x1F AND DUP3 ADD SWAP2 JUMPDEST POP POP POP POP POP SWAP1 DUP1 PUSH1 0x1 ADD DUP1 SLOAD PUSH2 0x115B SWAP1 PUSH2 0x2F46 JUMP JUMPDEST DUP1 PUSH1 0x1F ADD PUSH1 0x20 DUP1 SWAP2 DIV MUL PUSH1 0x20 ADD PUSH1 0x40 MLOAD SWAP1 DUP2 ADD PUSH1 0x40 MSTORE DUP1 SWAP3 SWAP2 SWAP1 DUP2 DUP2 MSTORE PUSH1 0x20 ADD DUP3 DUP1 SLOAD PUSH2 0x1187 SWAP1 PUSH2 0x2F46 JUMP JUMPDEST DUP1 ISZERO PUSH2 0x11D4 JUMPI DUP1 PUSH1 0x1F LT PUSH2 0x11A9 JUMPI PUSH2 0x100 DUP1 DUP4 SLOAD DIV MUL DUP4 MSTORE SWAP2 PUSH1 0x20 ADD SWAP2 PUSH2 0x11D4 JUMP JUMPDEST DUP3 ADD SWAP2 SWAP1 PUSH1 0x0 MSTORE PUSH1 0x20 PUSH1 0x0 KECCAK256 SWAP1 JUMPDEST DUP2 SLOAD DUP2 MSTORE SWAP1 PUSH1 0x1 ADD SWAP1 PUSH1 0x20 ADD DUP1 DUP4 GT PUSH2 0x11B7 JUMPI DUP3 SWAP1 SUB PUSH1 0x1F AND DUP3 ADD SWAP2 JUMPDEST POP POP POP POP POP SWAP1 DUP1 PUSH1 0x2 ADD SLOAD SWAP1 DUP1 PUSH1 0x3 ADD DUP1 SLOAD PUSH2 0x11EF SWAP1 PUSH2 0x2F46 JUMP JUMPDEST DUP1 PUSH1 0x1F ADD PUSH1 0x20 DUP1 SWAP2 DIV MUL PUSH1 0x20 ADD PUSH1 0x40 MLOAD SWAP1 DUP2 ADD PUSH1 0x40 MSTORE DUP1 SWAP3 SWAP2 SWAP1 DUP2 DUP2 MSTORE PUSH1 0x20 ADD DUP3 DUP1 SLOAD PUSH2 0x121B SWAP1 PUSH2 0x2F46 JUMP JUMPDEST DUP1 ISZERO PUSH2 0x1268 JUMPI DUP1 PUSH1 0x1F LT PUSH2 0x123D JUMPI PUSH2 0x100 DUP1 DUP4 SLOAD DIV MUL DUP4 MSTORE SWAP2 PUSH1 0x20 ADD SWAP2 PUSH2 0x1268 JUMP JUMPDEST DUP3 ADD SWAP2 SWAP1 PUSH1 0x0 MSTORE PUSH1 0x20 PUSH1 0x0 KECCAK256 SWAP1 JUMPDEST DUP2 SLOAD DUP2 MSTORE SWAP1 PUSH1 0x1 ADD SWAP1 PUSH1 0x20 ADD DUP1 DUP4 GT PUSH2 0x124B JUMPI DUP3 SWAP1 SUB PUSH1 0x1F AND DUP3 ADD SWAP2 JUMPDEST POP POP POP POP POP SWAP1 POP DUP5 JUMP JUMPDEST PUSH1 0x60 PUSH1 0x1 DUP1 SLOAD PUSH2 0x1281 SWAP1 PUSH2 0x2F46 JUMP JUMPDEST DUP1 PUSH1 0x1F ADD PUSH1 0x20 DUP1 SWAP2 DIV MUL PUSH1 0x20 ADD PUSH1 0x40 MLOAD SWAP1 DUP2 ADD PUSH1 0x40 MSTORE DUP1 SWAP3 SWAP2 SWAP1 DUP2 DUP2 MSTORE PUSH1 0x20 ADD DUP3 DUP1 SLOAD PUSH2 0x12AD SWAP1 PUSH2 0x2F46 JUMP JUMPDEST DUP1 ISZERO PUSH2 0x12FA JUMPI DUP1 PUSH1 0x1F LT PUSH2 0x12CF JUMPI PUSH2 0x100 DUP1 DUP4 SLOAD DIV MUL DUP4 MSTORE SWAP2 PUSH1 0x20 ADD SWAP2 PUSH2 0x12FA JUMP JUMPDEST DUP3 ADD SWAP2 SWAP1 PUSH1 0x0 MSTORE PUSH1 0x20 PUSH1 0x0 KECCAK256 SWAP1 JUMPDEST DUP2 SLOAD DUP2 MSTORE SWAP1 PUSH1 0x1 ADD SWAP1 PUSH1 0x20 ADD DUP1 DUP4 GT PUSH2 0x12DD JUMPI DUP3 SWAP1 SUB PUSH1 0x1F AND DUP3 ADD SWAP2 JUMPDEST POP POP POP POP POP SWAP1 POP SWAP1 JUMP JUMPDEST PUSH2 0x130C PUSH2 0x1BEF JUMP JUMPDEST PUSH20 0xFFFFFFFFFFFFFFFFFFFFFFFFFFFFFFFFFFFFFFFF AND DUP3 PUSH20 0xFFFFFFFFFFFFFFFFFFFFFFFFFFFFFFFFFFFFFFFF AND SUB PUSH2 0x1379 JUMPI PUSH1 0x40 MLOAD PUSH32 0x8C379A000000000000000000000000000000000000000000000000000000000 DUP2 MSTORE PUSH1 0x4 ADD PUSH2 0x1370 SWAP1 PUSH2 0x393D JUMP JUMPDEST PUSH1 0x40 MLOAD DUP1 SWAP2 SUB SWAP1 REVERT JUMPDEST DUP1 PUSH1 0x5 PUSH1 0x0 PUSH2 0x1386 PUSH2 0x1BEF JUMP JUMPDEST PUSH20 0xFFFFFFFFFFFFFFFFFFFFFFFFFFFFFFFFFFFFFFFF AND PUSH20 0xFFFFFFFFFFFFFFFFFFFFFFFFFFFFFFFFFFFFFFFF AND DUP2 MSTORE PUSH1 0x20 ADD SWAP1 DUP2 MSTORE PUSH1 0x20 ADD PUSH1 0x0 KECCAK256 PUSH1 0x0 DUP5 PUSH20 0xFFFFFFFFFFFFFFFFFFFFFFFFFFFFFFFFFFFFFFFF AND PUSH20 0xFFFFFFFFFFFFFFFFFFFFFFFFFFFFFFFFFFFFFFFF AND DUP2 MSTORE PUSH1 0x20 ADD SWAP1 DUP2 MSTORE PUSH1 0x20 ADD PUSH1 0x0 KECCAK256 PUSH1 0x0 PUSH2 0x100 EXP DUP2 SLOAD DUP2 PUSH1 0xFF MUL NOT AND SWAP1 DUP4 ISZERO ISZERO MUL OR SWAP1 SSTORE POP DUP2 PUSH20 0xFFFFFFFFFFFFFFFFFFFFFFFFFFFFFFFFFFFFFFFF AND PUSH2 0x1433 PUSH2 0x1BEF JUMP JUMPDEST PUSH20 0xFFFFFFFFFFFFFFFFFFFFFFFFFFFFFFFFFFFFFFFF AND PUSH32 0x17307EAB39AB6107E8899845AD3D59BD9653F200F220920489CA2B5937696C31 DUP4 PUSH1 0x40 MLOAD PUSH2 0x1478 SWAP2 SWAP1 PUSH2 0x24AE JUMP JUMPDEST PUSH1 0x40 MLOAD DUP1 SWAP2 SUB SWAP1 LOG3 POP POP JUMP JUMPDEST PUSH1 0x0 DUP1 PUSH1 0x0 SHL PUSH1 0x7 PUSH1 0x0 DUP5 DUP2 MSTORE PUSH1 0x20 ADD SWAP1 DUP2 MSTORE PUSH1 0x20 ADD PUSH1 0x0 KECCAK256 PUSH1 0x2 ADD SLOAD SUB PUSH2 0x14E1 JUMPI PUSH1 0x40 MLOAD PUSH32 0x8C379A000000000000000000000000000000000000000000000000000000000 DUP2 MSTORE PUSH1 0x4 ADD PUSH2 0x14D8 SWAP1 PUSH2 0x3639 JUMP JUMPDEST PUSH1 0x40 MLOAD DUP1 SWAP2 SUB SWAP1 REVERT JUMPDEST DUP2 CALLER PUSH20 0xFFFFFFFFFFFFFFFFFFFFFFFFFFFFFFFFFFFFFFFF AND PUSH32 0x59F56502D3DDA330C978152A745D7DF39110B2795DC69A0C82DE880E452AB4D4 TIMESTAMP PUSH1 0x40 MLOAD PUSH2 0x1528 SWAP2 SWAP1 PUSH2 0x2A16 JUMP JUMPDEST PUSH1 0x40 MLOAD DUP1 SWAP2 SUB SWAP1 LOG3 PUSH1 0x1 SWAP1 POP SWAP2 SWAP1 POP JUMP JUMPDEST PUSH2 0x154A PUSH2 0x1544 PUSH2 0x1BEF JUMP JUMPDEST DUP4 PUSH2 0x1CB0 JUMP JUMPDEST PUSH2 0x1589 JUMPI PUSH1 0x40 MLOAD PUSH32 0x8C379A000000000000000000000000000000000000000000000000000000000 DUP2 MSTORE PUSH1 0x4 ADD PUSH2 0x1580 SWAP1 PUSH2 0x35CD JUMP JUMPDEST PUSH1 0x40 MLOAD DUP1 SWAP2 SUB SWAP1 REVERT JUMPDEST PUSH2 0x1595 DUP5 DUP5 DUP5 DUP5 PUSH2 0x21FF JUMP JUMPDEST POP POP POP POP JUMP JUMPDEST DUP3 MLOAD DUP5 MLOAD EQ DUP1 ISZERO PUSH2 0x15AD JUMPI POP DUP2 MLOAD DUP4 MLOAD EQ JUMPDEST DUP1 ISZERO PUSH2 0x15BA JUMPI POP DUP1 MLOAD DUP3 MLOAD EQ JUMPDEST PUSH2 0x15F9 JUMPI PUSH1 0x40 MLOAD PUSH32 0x8C379A000000000000000000000000000000000000000000000000000000000 DUP2 MSTORE PUSH1 0x4 ADD PUSH2 0x15F0 SWAP1 PUSH2 0x39A9 JUMP JUMPDEST PUSH1 0x40 MLOAD DUP1 SWAP2 SUB SWAP1 REVERT JUMPDEST PUSH1 0x0 DUP1 JUMPDEST DUP6 MLOAD DUP2 LT ISZERO PUSH2 0x1959 JUMPI PUSH1 0x0 DUP1 SHL PUSH1 0x7 PUSH1 0x0 DUP7 DUP5 DUP2 MLOAD DUP2 LT PUSH2 0x1621 JUMPI PUSH2 0x1620 PUSH2 0x39C9 JUMP JUMPDEST JUMPDEST PUSH1 0x20 MUL PUSH1 0x20 ADD ADD MLOAD DUP2 MSTORE PUSH1 0x20 ADD SWAP1 DUP2 MSTORE PUSH1 0x20 ADD PUSH1 0x0 KECCAK256 PUSH1 0x2 ADD SLOAD EQ PUSH2 0x167B JUMPI PUSH1 0x40 MLOAD PUSH32 0x8C379A000000000000000000000000000000000000000000000000000000000 DUP2 MSTORE PUSH1 0x4 ADD PUSH2 0x1672 SWAP1 PUSH2 0x3A44 JUMP JUMPDEST PUSH1 0x40 MLOAD DUP1 SWAP2 SUB SWAP1 REVERT JUMPDEST PUSH1 0x0 DUP7 DUP3 DUP2 MLOAD DUP2 LT PUSH2 0x1690 JUMPI PUSH2 0x168F PUSH2 0x39C9 JUMP JUMPDEST JUMPDEST PUSH1 0x20 MUL PUSH1 0x20 ADD ADD MLOAD MLOAD GT PUSH2 0x16D9 JUMPI PUSH1 0x40 MLOAD PUSH32 0x8C379A000000000000000000000000000000000000000000000000000000000 DUP2 MSTORE PUSH1 0x4 ADD PUSH2 0x16D0 SWAP1 PUSH2 0x302F JUMP JUMPDEST PUSH1 0x40 MLOAD DUP1 SWAP2 SUB SWAP1 REVERT JUMPDEST PUSH1 0x0 DUP6 DUP3 DUP2 MLOAD DUP2 LT PUSH2 0x16EE JUMPI PUSH2 0x16ED PUSH2 0x39C9 JUMP JUMPDEST JUMPDEST PUSH1 0x20 MUL PUSH1 0x20 ADD ADD MLOAD MLOAD GT PUSH2 0x1737 JUMPI PUSH1 0x40 MLOAD PUSH32 0x8C379A000000000000000000000000000000000000000000000000000000000 DUP2 MSTORE PUSH1 0x4 ADD PUSH2 0x172E SWAP1 PUSH2 0x309B JUMP JUMPDEST PUSH1 0x40 MLOAD DUP1 SWAP2 SUB SWAP1 REVERT JUMPDEST PUSH1 0x0 DUP4 DUP3 DUP2 MLOAD DUP2 LT PUSH2 0x174C JUMPI PUSH2 0x174B PUSH2 0x39C9 JUMP JUMPDEST JUMPDEST PUSH1 0x20 MUL PUSH1 0x20 ADD ADD MLOAD MLOAD GT PUSH2 0x1795 JUMPI PUSH1 0x40 MLOAD PUSH32 0x8C379A000000000000000000000000000000000000000000000000000000000 DUP2 MSTORE PUSH1 0x4 ADD PUSH2 0x178C SWAP1 PUSH2 0x3107 JUMP JUMPDEST PUSH1 0x40 MLOAD DUP1 SWAP2 SUB SWAP1 REVERT JUMPDEST PUSH1 0x40 MLOAD DUP1 PUSH1 0x80 ADD PUSH1 0x40 MSTORE DUP1 DUP8 DUP4 DUP2 MLOAD DUP2 LT PUSH2 0x17B3 JUMPI PUSH2 0x17B2 PUSH2 0x39C9 JUMP JUMPDEST JUMPDEST PUSH1 0x20 MUL PUSH1 0x20 ADD ADD MLOAD DUP2 MSTORE PUSH1 0x20 ADD DUP7 DUP4 DUP2 MLOAD DUP2 LT PUSH2 0x17D3 JUMPI PUSH2 0x17D2 PUSH2 0x39C9 JUMP JUMPDEST JUMPDEST PUSH1 0x20 MUL PUSH1 0x20 ADD ADD MLOAD DUP2 MSTORE PUSH1 0x20 ADD DUP6 DUP4 DUP2 MLOAD DUP2 LT PUSH2 0x17F3 JUMPI PUSH2 0x17F2 PUSH2 0x39C9 JUMP JUMPDEST JUMPDEST PUSH1 0x20 MUL PUSH1 0x20 ADD ADD MLOAD DUP2 MSTORE PUSH1 0x20 ADD DUP5 DUP4 DUP2 MLOAD DUP2 LT PUSH2 0x1813 JUMPI PUSH2 0x1812 PUSH2 0x39C9 JUMP JUMPDEST JUMPDEST PUSH1 0x20 MUL PUSH1 0x20 ADD ADD MLOAD DUP2 MSTORE POP PUSH1 0x7 PUSH1 0x0 DUP7 DUP5 DUP2 MLOAD DUP2 LT PUSH2 0x1835 JUMPI PUSH2 0x1834 PUSH2 0x39C9 JUMP JUMPDEST JUMPDEST PUSH1 0x20 MUL PUSH1 0x20 ADD ADD MLOAD DUP2 MSTORE PUSH1 0x20 ADD SWAP1 DUP2 MSTORE PUSH1 0x20 ADD PUSH1 0x0 KECCAK256 PUSH1 0x0 DUP3 ADD MLOAD DUP2 PUSH1 0x0 ADD SWAP1 DUP2 PUSH2 0x1860 SWAP2 SWAP1 PUSH2 0x32D3 JUMP JUMPDEST POP PUSH1 0x20 DUP3 ADD MLOAD DUP2 PUSH1 0x1 ADD SWAP1 DUP2 PUSH2 0x1876 SWAP2 SWAP1 PUSH2 0x32D3 JUMP JUMPDEST POP PUSH1 0x40 DUP3 ADD MLOAD DUP2 PUSH1 0x2 ADD SSTORE PUSH1 0x60 DUP3 ADD MLOAD DUP2 PUSH1 0x3 ADD SWAP1 DUP2 PUSH2 0x1896 SWAP2 SWAP1 PUSH2 0x32D3 JUMP JUMPDEST POP SWAP1 POP POP DUP4 DUP2 DUP2 MLOAD DUP2 LT PUSH2 0x18AD JUMPI PUSH2 0x18AC PUSH2 0x39C9 JUMP JUMPDEST JUMPDEST PUSH1 0x20 MUL PUSH1 0x20 ADD ADD MLOAD PUSH32 0xDD5DCBF222AEF8B9D7FCAAFF69BBCC6B0C91631A1F1BF156FCDACFB1D2D1ED0B DUP8 DUP4 DUP2 MLOAD DUP2 LT PUSH2 0x18E9 JUMPI PUSH2 0x18E8 PUSH2 0x39C9 JUMP JUMPDEST JUMPDEST PUSH1 0x20 MUL PUSH1 0x20 ADD ADD MLOAD DUP8 DUP5 DUP2 MLOAD DUP2 LT PUSH2 0x1904 JUMPI PUSH2 0x1903 PUSH2 0x39C9 JUMP JUMPDEST JUMPDEST PUSH1 0x20 MUL PUSH1 0x20 ADD ADD MLOAD DUP7 DUP6 DUP2 MLOAD DUP2 LT PUSH2 0x191F JUMPI PUSH2 0x191E PUSH2 0x39C9 JUMP JUMPDEST JUMPDEST PUSH1 0x20 MUL PUSH1 0x20 ADD ADD MLOAD PUSH1 0x40 MLOAD PUSH2 0x1936 SWAP4 SWAP3 SWAP2 SWAP1 PUSH2 0x294C JUMP JUMPDEST PUSH1 0x40 MLOAD DUP1 SWAP2 SUB SWAP1 LOG2 DUP2 DUP1 PUSH2 0x1949 SWAP1 PUSH2 0x3A93 JUMP JUMPDEST SWAP3 POP POP DUP1 DUP1 PUSH1 0x1 ADD SWAP2 POP POP PUSH2 0x15FD JUMP JUMPDEST POP PUSH32 0x325D2EB1AEC8F7019309A6D6167E5E242224B000BF25B45286E9CFE2E43C9566 DUP2 PUSH1 0x40 MLOAD PUSH2 0x1989 SWAP2 SWAP1 PUSH2 0x2A16 JUMP JUMPDEST PUSH1 0x40 MLOAD DUP1 SWAP2 SUB SWAP1 LOG1 POP POP POP POP POP JUMP JUMPDEST PUSH1 0x60 PUSH2 0x19A3 DUP3 PUSH2 0x1B83 JUMP JUMPDEST PUSH2 0x19E2 JUMPI PUSH1 0x40 MLOAD PUSH32 0x8C379A000000000000000000000000000000000000000000000000000000000 DUP2 MSTORE PUSH1 0x4 ADD PUSH2 0x19D9 SWAP1 PUSH2 0x3B27 JUMP JUMPDEST PUSH1 0x40 MLOAD DUP1 SWAP2 SUB SWAP1 REVERT JUMPDEST PUSH1 0x8 PUSH1 0x0 DUP4 DUP2 MSTORE PUSH1 0x20 ADD SWAP1 DUP2 MSTORE PUSH1 0x20 ADD PUSH1 0x0 KECCAK256 DUP1 SLOAD PUSH2 0x1A00 SWAP1 PUSH2 0x2F46 JUMP JUMPDEST DUP1 PUSH1 0x1F ADD PUSH1 0x20 DUP1 SWAP2 DIV MUL PUSH1 0x20 ADD PUSH1 0x40 MLOAD SWAP1 DUP2 ADD PUSH1 0x40 MSTORE DUP1 SWAP3 SWAP2 SWAP1 DUP2 DUP2 MSTORE PUSH1 0x20 ADD DUP3 DUP1 SLOAD PUSH2 0x1A2C SWAP1 PUSH2 0x2F46 JUMP JUMPDEST DUP1 ISZERO PUSH2 0x1A79 JUMPI DUP1 PUSH1 0x1F LT PUSH2 0x1A4E JUMPI PUSH2 0x100 DUP1 DUP4 SLOAD DIV MUL DUP4 MSTORE SWAP2 PUSH1 0x20 ADD SWAP2 PUSH2 0x1A79 JUMP JUMPDEST DUP3 ADD SWAP2 SWAP1 PUSH1 0x0 MSTORE PUSH1 0x20 PUSH1 0x0 KECCAK256 SWAP1 JUMPDEST DUP2 SLOAD DUP2 MSTORE SWAP1 PUSH1 0x1 ADD SWAP1 PUSH1 0x20 ADD DUP1 DUP4 GT PUSH2 0x1A5C JUMPI DUP3 SWAP1 SUB PUSH1 0x1F AND DUP3 ADD SWAP2 JUMPDEST POP POP POP POP POP SWAP1 POP SWAP2 SWAP1 POP JUMP JUMPDEST PUSH1 0x0 PUSH1 0x5 PUSH1 0x0 DUP5 PUSH20 0xFFFFFFFFFFFFFFFFFFFFFFFFFFFFFFFFFFFFFFFF AND PUSH20 0xFFFFFFFFFFFFFFFFFFFFFFFFFFFFFFFFFFFFFFFF AND DUP2 MSTORE PUSH1 0x20 ADD SWAP1 DUP2 MSTORE PUSH1 0x20 ADD PUSH1 0x0 KECCAK256 PUSH1 0x0 DUP4 PUSH20 0xFFFFFFFFFFFFFFFFFFFFFFFFFFFFFFFFFFFFFFFF AND PUSH20 0xFFFFFFFFFFFFFFFFFFFFFFFFFFFFFFFFFFFFFFFF AND DUP2 MSTORE PUSH1 0x20 ADD SWAP1 DUP2 MSTORE PUSH1 0x20 ADD PUSH1 0x0 KECCAK256 PUSH1 0x0 SWAP1 SLOAD SWAP1 PUSH2 0x100 EXP SWAP1 DIV PUSH1 0xFF AND SWAP1 POP SWAP3 SWAP2 POP POP JUMP JUMPDEST PUSH1 0x0 PUSH32 0x1FFC9A700000000000000000000000000000000000000000000000000000000 PUSH28 0xFFFFFFFFFFFFFFFFFFFFFFFFFFFFFFFFFFFFFFFFFFFFFFFFFFFFFFFF NOT AND DUP3 PUSH28 0xFFFFFFFFFFFFFFFFFFFFFFFFFFFFFFFFFFFFFFFFFFFFFFFFFFFFFFFF NOT AND EQ SWAP1 POP SWAP2 SWAP1 POP JUMP JUMPDEST PUSH1 0x0 DUP1 PUSH20 0xFFFFFFFFFFFFFFFFFFFFFFFFFFFFFFFFFFFFFFFF AND PUSH1 0x2 PUSH1 0x0 DUP5 DUP2 MSTORE PUSH1 0x20 ADD SWAP1 DUP2 MSTORE PUSH1 0x20 ADD PUSH1 0x0 KECCAK256 PUSH1 0x0 SWAP1 SLOAD SWAP1 PUSH2 0x100 EXP SWAP1 DIV PUSH20 0xFFFFFFFFFFFFFFFFFFFFFFFFFFFFFFFFFFFFFFFF AND PUSH20 0xFFFFFFFFFFFFFFFFFFFFFFFFFFFFFFFFFFFFFFFF AND EQ ISZERO SWAP1 POP SWAP2 SWAP1 POP JUMP JUMPDEST PUSH1 0x0 CALLER SWAP1 POP SWAP1 JUMP JUMPDEST DUP2 PUSH1 0x4 PUSH1 0x0 DUP4 DUP2 MSTORE PUSH1 0x20 ADD SWAP1 DUP2 MSTORE PUSH1 0x20 ADD PUSH1 0x0 KECCAK256 PUSH1 0x0 PUSH2 0x100 EXP DUP2 SLOAD DUP2 PUSH20 0xFFFFFFFFFFFFFFFFFFFFFFFFFFFFFFFFFFFFFFFF MUL NOT AND SWAP1 DUP4 PUSH20 0xFFFFFFFFFFFFFFFFFFFFFFFFFFFFFFFFFFFFFFFF AND MUL OR SWAP1 SSTORE POP DUP1 DUP3 PUSH20 0xFFFFFFFFFFFFFFFFFFFFFFFFFFFFFFFFFFFFFFFF AND PUSH2 0x1C6A DUP4 PUSH2 0xDA1 JUMP JUMPDEST PUSH20 0xFFFFFFFFFFFFFFFFFFFFFFFFFFFFFFFFFFFFFFFF AND PUSH32 0x8C5BE1E5EBEC7D5BD14F71427D1E84F3DD0314C0F7B2291E5B200AC8C7C3B925 PUSH1 0x40 MLOAD PUSH1 0x40 MLOAD DUP1 SWAP2 SUB SWAP1 LOG4 POP POP JUMP JUMPDEST PUSH1 0x0 PUSH2 0x1CBB DUP3 PUSH2 0x1B83 JUMP JUMPDEST PUSH2 0x1CFA JUMPI PUSH1 0x40 MLOAD PUSH32 0x8C379A000000000000000000000000000000000000000000000000000000000 DUP2 MSTORE PUSH1 0x4 ADD PUSH2 0x1CF1 SWAP1 PUSH2 0x3BB9 JUMP JUMPDEST PUSH1 0x40 MLOAD DUP1 SWAP2 SUB SWAP1 REVERT JUMPDEST PUSH1 0x0 PUSH2 0x1D05 DUP4 PUSH2 0xDA1 JUMP JUMPDEST SWAP1 POP DUP1 PUSH20 0xFFFFFFFFFFFFFFFFFFFFFFFFFFFFFFFFFFFFFFFF AND DUP5 PUSH20 0xFFFFFFFFFFFFFFFFFFFFFFFFFFFFFFFFFFFFFFFF AND EQ DUP1 PUSH2 0x1D74 JUMPI POP DUP4 PUSH20 0xFFFFFFFFFFFFFFFFFFFFFFFFFFFFFFFFFFFFFFFF AND PUSH2 0x1D5C DUP5 PUSH2 0x7E1 JUMP JUMPDEST PUSH20 0xFFFFFFFFFFFFFFFFFFFFFFFFFFFFFFFFFFFFFFFF AND EQ JUMPDEST DUP1 PUSH2 0x1D85 JUMPI POP PUSH2 0x1D84 DUP2 DUP6 PUSH2 0x1A85 JUMP JUMPDEST JUMPDEST SWAP2 POP POP SWAP3 SWAP2 POP POP JUMP JUMPDEST DUP3 PUSH20 0xFFFFFFFFFFFFFFFFFFFFFFFFFFFFFFFFFFFFFFFF AND PUSH2 0x1DAE DUP3 PUSH2 0xDA1 JUMP JUMPDEST PUSH20 0xFFFFFFFFFFFFFFFFFFFFFFFFFFFFFFFFFFFFFFFF AND EQ PUSH2 0x1E04 JUMPI PUSH1 0x40 MLOAD PUSH32 0x8C379A000000000000000000000000000000000000000000000000000000000 DUP2 MSTORE PUSH1 0x4 ADD PUSH2 0x1DFB SWAP1 PUSH2 0x3C4B JUMP JUMPDEST PUSH1 0x40 MLOAD DUP1 SWAP2 SUB SWAP1 REVERT JUMPDEST PUSH1 0x0 PUSH20 0xFFFFFFFFFFFFFFFFFFFFFFFFFFFFFFFFFFFFFFFF AND DUP3 PUSH20 0xFFFFFFFFFFFFFFFFFFFFFFFFFFFFFFFFFFFFFFFF AND SUB PUSH2 0x1E73 JUMPI PUSH1 0x40 MLOAD PUSH32 0x8C379A000000000000000000000000000000000000000000000000000000000 DUP2 MSTORE PUSH1 0x4 ADD PUSH2 0x1E6A SWAP1 PUSH2 0x3CDD JUMP JUMPDEST PUSH1 0x40 MLOAD DUP1 SWAP2 SUB SWAP1 REVERT JUMPDEST PUSH2 0x1E7E DUP4 DUP4 DUP4 PUSH2 0x225B JUMP JUMPDEST PUSH2 0x1E89 PUSH1 0x0 DUP3 PUSH2 0x1BF7 JUMP JUMPDEST PUSH1 0x1 PUSH1 0x3 PUSH1 0x0 DUP6 PUSH20 0xFFFFFFFFFFFFFFFFFFFFFFFFFFFFFFFFFFFFFFFF AND PUSH20 0xFFFFFFFFFFFFFFFFFFFFFFFFFFFFFFFFFFFFFFFF AND DUP2 MSTORE PUSH1 0x20 ADD SWAP1 DUP2 MSTORE PUSH1 0x20 ADD PUSH1 0x0 KECCAK256 PUSH1 0x0 DUP3 DUP3 SLOAD PUSH2 0x1ED9 SWAP2 SWAP1 PUSH2 0x3CFD JUMP JUMPDEST SWAP3 POP POP DUP2 SWAP1 SSTORE POP PUSH1 0x1 PUSH1 0x3 PUSH1 0x0 DUP5 PUSH20 0xFFFFFFFFFFFFFFFFFFFFFFFFFFFFFFFFFFFFFFFF AND PUSH20 0xFFFFFFFFFFFFFFFFFFFFFFFFFFFFFFFFFFFFFFFF AND DUP2 MSTORE PUSH1 0x20 ADD SWAP1 DUP2 MSTORE PUSH1 0x20 ADD PUSH1 0x0 KECCAK256 PUSH1 0x0 DUP3 DUP3 SLOAD PUSH2 0x1F30 SWAP2 SWAP1 PUSH2 0x3D31 JUMP JUMPDEST SWAP3 POP POP DUP2 SWAP1 SSTORE POP DUP2 PUSH1 0x2 PUSH1 0x0 DUP4 DUP2 MSTORE PUSH1 0x20 ADD SWAP1 DUP2 MSTORE PUSH1 0x20 ADD PUSH1 0x0 KECCAK256 PUSH1 0x0 PUSH2 0x100 EXP DUP2 SLOAD DUP2 PUSH20 0xFFFFFFFFFFFFFFFFFFFFFFFFFFFFFFFFFFFFFFFF MUL NOT AND SWAP1 DUP4 PUSH20 0xFFFFFFFFFFFFFFFFFFFFFFFFFFFFFFFFFFFFFFFF AND MUL OR SWAP1 SSTORE POP DUP1 DUP3 PUSH20 0xFFFFFFFFFFFFFFFFFFFFFFFFFFFFFFFFFFFFFFFF AND DUP5 PUSH20 0xFFFFFFFFFFFFFFFFFFFFFFFFFFFFFFFFFFFFFFFF AND PUSH32 0xDDF252AD1BE2C89B69C2B068FC378DAA952BA7F163C4A11628F55A4DF523B3EF PUSH1 0x40 MLOAD PUSH1 0x40 MLOAD DUP1 SWAP2 SUB SWAP1 LOG4 POP POP POP JUMP JUMPDEST PUSH1 0x1 DUP2 PUSH1 0x0 ADD PUSH1 0x0 DUP3 DUP3 SLOAD ADD SWAP3 POP POP DUP2 SWAP1 SSTORE POP POP JUMP JUMPDEST PUSH1 0x0 DUP2 PUSH1 0x0 ADD SLOAD SWAP1 POP SWAP2 SWAP1 POP JUMP JUMPDEST PUSH1 0x0 PUSH20 0xFFFFFFFFFFFFFFFFFFFFFFFFFFFFFFFFFFFFFFFF AND DUP3 PUSH20 0xFFFFFFFFFFFFFFFFFFFFFFFFFFFFFFFFFFFFFFFF AND SUB PUSH2 0x207C JUMPI PUSH1 0x40 MLOAD PUSH32 0x8C379A000000000000000000000000000000000000000000000000000000000 DUP2 MSTORE PUSH1 0x4 ADD PUSH2 0x2073 SWAP1 PUSH2 0x3DB1 JUMP JUMPDEST PUSH1 0x40 MLOAD DUP1 SWAP2 SUB SWAP1 REVERT JUMPDEST PUSH2 0x2085 DUP2 PUSH2 0x1B83 JUMP JUMPDEST ISZERO PUSH2 0x20C5 JUMPI PUSH1 0x40 MLOAD PUSH32 0x8C379A000000000000000000000000000000000000000000000000000000000 DUP2 MSTORE PUSH1 0x4 ADD PUSH2 0x20BC SWAP1 PUSH2 0x3E1D JUMP JUMPDEST PUSH1 0x40 MLOAD DUP1 SWAP2 SUB SWAP1 REVERT JUMPDEST PUSH2 0x20D1 PUSH1 0x0 DUP4 DUP4 PUSH2 0x225B JUMP JUMPDEST PUSH1 0x1 PUSH1 0x3 PUSH1 0x0 DUP5 PUSH20 0xFFFFFFFFFFFFFFFFFFFFFFFFFFFFFFFFFFFFFFFF AND PUSH20 0xFFFFFFFFFFFFFFFFFFFFFFFFFFFFFFFFFFFFFFFF AND DUP2 MSTORE PUSH1 0x20 ADD SWAP1 DUP2 MSTORE PUSH1 0x20 ADD PUSH1 0x0 KECCAK256 PUSH1 0x0 DUP3 DUP3 SLOAD PUSH2 0x2121 SWAP2 SWAP1 PUSH2 0x3D31 JUMP JUMPDEST SWAP3 POP POP DUP2 SWAP1 SSTORE POP DUP2 PUSH1 0x2 PUSH1 0x0 DUP4 DUP2 MSTORE PUSH1 0x20 ADD SWAP1 DUP2 MSTORE PUSH1 0x20 ADD PUSH1 0x0 KECCAK256 PUSH1 0x0 PUSH2 0x100 EXP DUP2 SLOAD DUP2 PUSH20 0xFFFFFFFFFFFFFFFFFFFFFFFFFFFFFFFFFFFFFFFF MUL NOT AND SWAP1 DUP4 PUSH20 0xFFFFFFFFFFFFFFFFFFFFFFFFFFFFFFFFFFFFFFFF AND MUL OR SWAP1 SSTORE POP DUP1 DUP3 PUSH20 0xFFFFFFFFFFFFFFFFFFFFFFFFFFFFFFFFFFFFFFFF AND PUSH1 0x0 PUSH20 0xFFFFFFFFFFFFFFFFFFFFFFFFFFFFFFFFFFFFFFFF AND PUSH32 0xDDF252AD1BE2C89B69C2B068FC378DAA952BA7F163C4A11628F55A4DF523B3EF PUSH1 0x40 MLOAD PUSH1 0x40 MLOAD DUP1 SWAP2 SUB SWAP1 LOG4 POP POP JUMP JUMPDEST DUP1 PUSH1 0x8 PUSH1 0x0 DUP5 DUP2 MSTORE PUSH1 0x20 ADD SWAP1 DUP2 MSTORE PUSH1 0x20 ADD PUSH1 0x0 KECCAK256 SWAP1 DUP2 PUSH2 0x21FA SWAP2 SWAP1 PUSH2 0x32D3 JUMP JUMPDEST POP POP POP JUMP JUMPDEST PUSH2 0x220A DUP5 DUP5 DUP5 PUSH2 0x1D8E JUMP JUMPDEST PUSH2 0x2216 DUP5 DUP5 DUP5 DUP5 PUSH2 0x2260 JUMP JUMPDEST PUSH2 0x2255 JUMPI PUSH1 0x40 MLOAD PUSH32 0x8C379A000000000000000000000000000000000000000000000000000000000 DUP2 MSTORE PUSH1 0x4 ADD PUSH2 0x224C SWAP1 PUSH2 0x3EAF JUMP JUMPDEST PUSH1 0x40 MLOAD DUP1 SWAP2 SUB SWAP1 REVERT JUMPDEST POP POP POP POP JUMP JUMPDEST POP POP POP JUMP JUMPDEST PUSH1 0x0 PUSH2 0x2281 DUP5 PUSH20 0xFFFFFFFFFFFFFFFFFFFFFFFFFFFFFFFFFFFFFFFF AND PUSH2 0x23E7 JUMP JUMPDEST ISZERO PUSH2 0x23DA JUMPI DUP4 PUSH20 0xFFFFFFFFFFFFFFFFFFFFFFFFFFFFFFFFFFFFFFFF AND PUSH4 0x150B7A02 PUSH2 0x22AA PUSH2 0x1BEF JUMP JUMPDEST DUP8 DUP7 DUP7 PUSH1 0x40 MLOAD DUP6 PUSH4 0xFFFFFFFF AND PUSH1 0xE0 SHL DUP2 MSTORE PUSH1 0x4 ADD PUSH2 0x22CC SWAP5 SWAP4 SWAP3 SWAP2 SWAP1 PUSH2 0x3F24 JUMP JUMPDEST PUSH1 0x20 PUSH1 0x40 MLOAD DUP1 DUP4 SUB DUP2 PUSH1 0x0 DUP8 GAS CALL SWAP3 POP POP POP DUP1 ISZERO PUSH2 0x2308 JUMPI POP PUSH1 0x40 MLOAD RETURNDATASIZE PUSH1 0x1F NOT PUSH1 0x1F DUP3 ADD AND DUP3 ADD DUP1 PUSH1 0x40 MSTORE POP DUP2 ADD SWAP1 PUSH2 0x2305 SWAP2 SWAP1 PUSH2 0x3F85 JUMP JUMPDEST PUSH1 0x1 JUMPDEST PUSH2 0x238A JUMPI RETURNDATASIZE DUP1 PUSH1 0x0 DUP2 EQ PUSH2 0x2338 JUMPI PUSH1 0x40 MLOAD SWAP2 POP PUSH1 0x1F NOT PUSH1 0x3F RETURNDATASIZE ADD AND DUP3 ADD PUSH1 0x40 MSTORE RETURNDATASIZE DUP3 MSTORE RETURNDATASIZE PUSH1 0x0 PUSH1 0x20 DUP5 ADD RETURNDATACOPY PUSH2 0x233D JUMP JUMPDEST PUSH1 0x60 SWAP2 POP JUMPDEST POP PUSH1 0x0 DUP2 MLOAD SUB PUSH2 0x2382 JUMPI PUSH1 0x40 MLOAD PUSH32 0x8C379A000000000000000000000000000000000000000000000000000000000 DUP2 MSTORE PUSH1 0x4 ADD PUSH2 0x2379 SWAP1 PUSH2 0x3EAF JUMP JUMPDEST PUSH1 0x40 MLOAD DUP1 SWAP2 SUB SWAP1 REVERT JUMPDEST DUP1 MLOAD DUP2 PUSH1 0x20 ADD REVERT JUMPDEST PUSH4 0x150B7A02 PUSH1 0xE0 SHL PUSH28 0xFFFFFFFFFFFFFFFFFFFFFFFFFFFFFFFFFFFFFFFFFFFFFFFFFFFFFFFF NOT AND DUP2 PUSH28 0xFFFFFFFFFFFFFFFFFFFFFFFFFFFFFFFFFFFFFFFFFFFFFFFFFFFFFFFF NOT AND EQ SWAP2 POP POP PUSH2 0x23DF JUMP JUMPDEST PUSH1 0x1 SWAP1 POP JUMPDEST SWAP5 SWAP4 POP POP POP POP JUMP JUMPDEST PUSH1 0x0 DUP1 DUP3 EXTCODESIZE SWAP1 POP PUSH1 0x0 DUP2 GT SWAP2 POP POP SWAP2 SWAP1 POP JUMP JUMPDEST PUSH1 0x0 PUSH1 0x40 MLOAD SWAP1 POP SWAP1 JUMP JUMPDEST PUSH1 0x0 DUP1 REVERT JUMPDEST PUSH1 0x0 DUP1 REVERT JUMPDEST PUSH1 0x0 PUSH32 0xFFFFFFFF00000000000000000000000000000000000000000000000000000000 DUP3 AND SWAP1 POP SWAP2 SWAP1 POP JUMP JUMPDEST PUSH2 0x2443 DUP2 PUSH2 0x240E JUMP JUMPDEST DUP2 EQ PUSH2 0x244E JUMPI PUSH1 0x0 DUP1 REVERT JUMPDEST POP JUMP JUMPDEST PUSH1 0x0 DUP2 CALLDATALOAD SWAP1 POP PUSH2 0x2460 DUP2 PUSH2 0x243A JUMP JUMPDEST SWAP3 SWAP2 POP POP JUMP JUMPDEST PUSH1 0x0 PUSH1 0x20 DUP3 DUP5 SUB SLT ISZERO PUSH2 0x247C JUMPI PUSH2 0x247B PUSH2 0x2404 JUMP JUMPDEST JUMPDEST PUSH1 0x0 PUSH2 0x248A DUP5 DUP3 DUP6 ADD PUSH2 0x2451 JUMP JUMPDEST SWAP2 POP POP SWAP3 SWAP2 POP POP JUMP JUMPDEST PUSH1 0x0 DUP2 ISZERO ISZERO SWAP1 POP SWAP2 SWAP1 POP JUMP JUMPDEST PUSH2 0x24A8 DUP2 PUSH2 0x2493 JUMP JUMPDEST DUP3 MSTORE POP POP JUMP JUMPDEST PUSH1 0x0 PUSH1 0x20 DUP3 ADD SWAP1 POP PUSH2 0x24C3 PUSH1 0x0 DUP4 ADD DUP5 PUSH2 0x249F JUMP JUMPDEST SWAP3 SWAP2 POP POP JUMP JUMPDEST PUSH1 0x0 DUP2 MLOAD SWAP1 POP SWAP2 SWAP1 POP JUMP JUMPDEST PUSH1 0x0 DUP3 DUP3 MSTORE PUSH1 0x20 DUP3 ADD SWAP1 POP SWAP3 SWAP2 POP POP JUMP JUMPDEST PUSH1 0x0 JUMPDEST DUP4 DUP2 LT ISZERO PUSH2 0x2503 JUMPI DUP1 DUP3 ADD MLOAD DUP2 DUP5 ADD MSTORE PUSH1 0x20 DUP2 ADD SWAP1 POP PUSH2 0x24E8 JUMP JUMPDEST PUSH1 0x0 DUP5 DUP5 ADD MSTORE POP POP POP POP JUMP JUMPDEST PUSH1 0x0 PUSH1 0x1F NOT PUSH1 0x1F DUP4 ADD AND SWAP1 POP SWAP2 SWAP1 POP JUMP JUMPDEST PUSH1 0x0 PUSH2 0x252B DUP3 PUSH2 0x24C9 JUMP JUMPDEST PUSH2 0x2535 DUP2 DUP6 PUSH2 0x24D4 JUMP JUMPDEST SWAP4 POP PUSH2 0x2545 DUP2 DUP6 PUSH1 0x20 DUP7 ADD PUSH2 0x24E5 JUMP JUMPDEST PUSH2 0x254E DUP2 PUSH2 0x250F JUMP JUMPDEST DUP5 ADD SWAP2 POP POP SWAP3 SWAP2 POP POP JUMP JUMPDEST PUSH1 0x0 PUSH1 0x20 DUP3 ADD SWAP1 POP DUP2 DUP2 SUB PUSH1 0x0 DUP4 ADD MSTORE PUSH2 0x2573 DUP2 DUP5 PUSH2 0x2520 JUMP JUMPDEST SWAP1 POP SWAP3 SWAP2 POP POP JUMP JUMPDEST PUSH1 0x0 DUP1 REVERT JUMPDEST PUSH1 0x0 DUP1 REVERT JUMPDEST PUSH32 0x4E487B7100000000000000000000000000000000000000000000000000000000 PUSH1 0x0 MSTORE PUSH1 0x41 PUSH1 0x4 MSTORE PUSH1 0x24 PUSH1 0x0 REVERT JUMPDEST PUSH2 0x25BD DUP3 PUSH2 0x250F JUMP JUMPDEST DUP2 ADD DUP2 DUP2 LT PUSH8 0xFFFFFFFFFFFFFFFF DUP3 GT OR ISZERO PUSH2 0x25DC JUMPI PUSH2 0x25DB PUSH2 0x2585 JUMP JUMPDEST JUMPDEST DUP1 PUSH1 0x40 MSTORE POP POP POP JUMP JUMPDEST PUSH1 0x0 PUSH2 0x25EF PUSH2 0x23FA JUMP JUMPDEST SWAP1 POP PUSH2 0x25FB DUP3 DUP3 PUSH2 0x25B4 JUMP JUMPDEST SWAP2 SWAP1 POP JUMP JUMPDEST PUSH1 0x0 PUSH8 0xFFFFFFFFFFFFFFFF DUP3 GT ISZERO PUSH2 0x261B JUMPI PUSH2 0x261A PUSH2 0x2585 JUMP JUMPDEST JUMPDEST PUSH2 0x2624 DUP3 PUSH2 0x250F JUMP JUMPDEST SWAP1 POP PUSH1 0x20 DUP2 ADD SWAP1 POP SWAP2 SWAP1 POP JUMP JUMPDEST DUP3 DUP2 DUP4 CALLDATACOPY PUSH1 0x0 DUP4 DUP4 ADD MSTORE POP POP POP JUMP JUMPDEST PUSH1 0x0 PUSH2 0x2653 PUSH2 0x264E DUP5 PUSH2 0x2600 JUMP JUMPDEST PUSH2 0x25E5 JUMP JUMPDEST SWAP1 POP DUP3 DUP2 MSTORE PUSH1 0x20 DUP2 ADD DUP5 DUP5 DUP5 ADD GT ISZERO PUSH2 0x266F JUMPI PUSH2 0x266E PUSH2 0x2580 JUMP JUMPDEST JUMPDEST PUSH2 0x267A DUP5 DUP3 DUP6 PUSH2 0x2631 JUMP JUMPDEST POP SWAP4 SWAP3 POP POP POP JUMP JUMPDEST PUSH1 0x0 DUP3 PUSH1 0x1F DUP4 ADD SLT PUSH2 0x2697 JUMPI PUSH2 0x2696 PUSH2 0x257B JUMP JUMPDEST JUMPDEST DUP2 CALLDATALOAD PUSH2 0x26A7 DUP5 DUP3 PUSH1 0x20 DUP7 ADD PUSH2 0x2640 JUMP JUMPDEST SWAP2 POP POP SWAP3 SWAP2 POP POP JUMP JUMPDEST PUSH1 0x0 DUP2 SWAP1 POP SWAP2 SWAP1 POP JUMP JUMPDEST PUSH2 0x26C3 DUP2 PUSH2 0x26B0 JUMP JUMPDEST DUP2 EQ PUSH2 0x26CE JUMPI PUSH1 0x0 DUP1 REVERT JUMPDEST POP JUMP JUMPDEST PUSH1 0x0 DUP2 CALLDATALOAD SWAP1 POP PUSH2 0x26E0 DUP2 PUSH2 0x26BA JUMP JUMPDEST SWAP3 SWAP2 POP POP JUMP JUMPDEST PUSH1 0x0 DUP1 PUSH1 0x0 DUP1 PUSH1 0x80 DUP6 DUP8 SUB SLT ISZERO PUSH2 0x2700 JUMPI PUSH2 0x26FF PUSH2 0x2404 JUMP JUMPDEST JUMPDEST PUSH1 0x0 DUP6 ADD CALLDATALOAD PUSH8 0xFFFFFFFFFFFFFFFF DUP2 GT ISZERO PUSH2 0x271E JUMPI PUSH2 0x271D PUSH2 0x2409 JUMP JUMPDEST JUMPDEST PUSH2 0x272A DUP8 DUP3 DUP9 ADD PUSH2 0x2682 JUMP JUMPDEST SWAP5 POP POP PUSH1 0x20 DUP6 ADD CALLDATALOAD PUSH8 0xFFFFFFFFFFFFFFFF DUP2 GT ISZERO PUSH2 0x274B JUMPI PUSH2 0x274A PUSH2 0x2409 JUMP JUMPDEST JUMPDEST PUSH2 0x2757 DUP8 DUP3 DUP9 ADD PUSH2 0x2682 JUMP JUMPDEST SWAP4 POP POP PUSH1 0x40 PUSH2 0x2768 DUP8 DUP3 DUP9 ADD PUSH2 0x26D1 JUMP JUMPDEST SWAP3 POP POP PUSH1 0x60 DUP6 ADD CALLDATALOAD PUSH8 0xFFFFFFFFFFFFFFFF DUP2 GT ISZERO PUSH2 0x2789 JUMPI PUSH2 0x2788 PUSH2 0x2409 JUMP JUMPDEST JUMPDEST PUSH2 0x2795 DUP8 DUP3 DUP9 ADD PUSH2 0x2682 JUMP JUMPDEST SWAP2 POP POP SWAP3 SWAP6 SWAP2 SWAP5 POP SWAP3 POP JUMP JUMPDEST PUSH1 0x0 DUP2 SWAP1 POP SWAP2 SWAP1 POP JUMP JUMPDEST PUSH2 0x27B4 DUP2 PUSH2 0x27A1 JUMP JUMPDEST DUP2 EQ PUSH2 0x27BF JUMPI PUSH1 0x0 DUP1 REVERT JUMPDEST POP JUMP JUMPDEST PUSH1 0x0 DUP2 CALLDATALOAD SWAP1 POP PUSH2 0x27D1 DUP2 PUSH2 0x27AB JUMP JUMPDEST SWAP3 SWAP2 POP POP JUMP JUMPDEST PUSH1 0x0 PUSH1 0x20 DUP3 DUP5 SUB SLT ISZERO PUSH2 0x27ED JUMPI PUSH2 0x27EC PUSH2 0x2404 JUMP JUMPDEST JUMPDEST PUSH1 0x0 PUSH2 0x27FB DUP5 DUP3 DUP6 ADD PUSH2 0x27C2 JUMP JUMPDEST SWAP2 POP POP SWAP3 SWAP2 POP POP JUMP JUMPDEST PUSH1 0x0 PUSH20 0xFFFFFFFFFFFFFFFFFFFFFFFFFFFFFFFFFFFFFFFF DUP3 AND SWAP1 POP SWAP2 SWAP1 POP JUMP JUMPDEST PUSH1 0x0 PUSH2 0x282F DUP3 PUSH2 0x2804 JUMP JUMPDEST SWAP1 POP SWAP2 SWAP1 POP JUMP JUMPDEST PUSH2 0x283F DUP2 PUSH2 0x2824 JUMP JUMPDEST DUP3 MSTORE POP POP JUMP JUMPDEST PUSH1 0x0 PUSH1 0x20 DUP3 ADD SWAP1 POP PUSH2 0x285A PUSH1 0x0 DUP4 ADD DUP5 PUSH2 0x2836 JUMP JUMPDEST SWAP3 SWAP2 POP POP JUMP JUMPDEST PUSH2 0x2869 DUP2 PUSH2 0x2824 JUMP JUMPDEST DUP2 EQ PUSH2 0x2874 JUMPI PUSH1 0x0 DUP1 REVERT JUMPDEST POP JUMP JUMPDEST PUSH1 0x0 DUP2 CALLDATALOAD SWAP1 POP PUSH2 0x2886 DUP2 PUSH2 0x2860 JUMP JUMPDEST SWAP3 SWAP2 POP POP JUMP JUMPDEST PUSH1 0x0 DUP1 PUSH1 0x40 DUP4 DUP6 SUB SLT ISZERO PUSH2 0x28A3 JUMPI PUSH2 0x28A2 PUSH2 0x2404 JUMP JUMPDEST JUMPDEST PUSH1 0x0 PUSH2 0x28B1 DUP6 DUP3 DUP7 ADD PUSH2 0x2877 JUMP JUMPDEST SWAP3 POP POP PUSH1 0x20 PUSH2 0x28C2 DUP6 DUP3 DUP7 ADD PUSH2 0x27C2 JUMP JUMPDEST SWAP2 POP POP SWAP3 POP SWAP3 SWAP1 POP JUMP JUMPDEST PUSH1 0x0 DUP1 PUSH1 0x0 PUSH1 0x60 DUP5 DUP7 SUB SLT ISZERO PUSH2 0x28E5 JUMPI PUSH2 0x28E4 PUSH2 0x2404 JUMP JUMPDEST JUMPDEST PUSH1 0x0 PUSH2 0x28F3 DUP7 DUP3 DUP8 ADD PUSH2 0x2877 JUMP JUMPDEST SWAP4 POP POP PUSH1 0x20 PUSH2 0x2904 DUP7 DUP3 DUP8 ADD PUSH2 0x2877 JUMP JUMPDEST SWAP3 POP POP PUSH1 0x40 PUSH2 0x2915 DUP7 DUP3 DUP8 ADD PUSH2 0x27C2 JUMP JUMPDEST SWAP2 POP POP SWAP3 POP SWAP3 POP SWAP3 JUMP JUMPDEST PUSH1 0x0 PUSH1 0x20 DUP3 DUP5 SUB SLT ISZERO PUSH2 0x2935 JUMPI PUSH2 0x2934 PUSH2 0x2404 JUMP JUMPDEST JUMPDEST PUSH1 0x0 PUSH2 0x2943 DUP5 DUP3 DUP6 ADD PUSH2 0x26D1 JUMP JUMPDEST SWAP2 POP POP SWAP3 SWAP2 POP POP JUMP JUMPDEST PUSH1 0x0 PUSH1 0x60 DUP3 ADD SWAP1 POP DUP2 DUP2 SUB PUSH1 0x0 DUP4 ADD MSTORE PUSH2 0x2966 DUP2 DUP7 PUSH2 0x2520 JUMP JUMPDEST SWAP1 POP DUP2 DUP2 SUB PUSH1 0x20 DUP4 ADD MSTORE PUSH2 0x297A DUP2 DUP6 PUSH2 0x2520 JUMP JUMPDEST SWAP1 POP DUP2 DUP2 SUB PUSH1 0x40 DUP4 ADD MSTORE PUSH2 0x298E DUP2 DUP5 PUSH2 0x2520 JUMP JUMPDEST SWAP1 POP SWAP5 SWAP4 POP POP POP POP JUMP JUMPDEST PUSH1 0x0 DUP1 PUSH1 0x0 PUSH1 0x60 DUP5 DUP7 SUB SLT ISZERO PUSH2 0x29B1 JUMPI PUSH2 0x29B0 PUSH2 0x2404 JUMP JUMPDEST JUMPDEST PUSH1 0x0 PUSH2 0x29BF DUP7 DUP3 DUP8 ADD PUSH2 0x2877 JUMP JUMPDEST SWAP4 POP POP PUSH1 0x20 DUP5 ADD CALLDATALOAD PUSH8 0xFFFFFFFFFFFFFFFF DUP2 GT ISZERO PUSH2 0x29E0 JUMPI PUSH2 0x29DF PUSH2 0x2409 JUMP JUMPDEST JUMPDEST PUSH2 0x29EC DUP7 DUP3 DUP8 ADD PUSH2 0x2682 JUMP JUMPDEST SWAP3 POP POP PUSH1 0x40 PUSH2 0x29FD DUP7 DUP3 DUP8 ADD PUSH2 0x26D1 JUMP JUMPDEST SWAP2 POP POP SWAP3 POP SWAP3 POP SWAP3 JUMP JUMPDEST PUSH2 0x2A10 DUP2 PUSH2 0x27A1 JUMP JUMPDEST DUP3 MSTORE POP POP JUMP JUMPDEST PUSH1 0x0 PUSH1 0x20 DUP3 ADD SWAP1 POP PUSH2 0x2A2B PUSH1 0x0 DUP4 ADD DUP5 PUSH2 0x2A07 JUMP JUMPDEST SWAP3 SWAP2 POP POP JUMP JUMPDEST PUSH1 0x0 PUSH1 0x20 DUP3 DUP5 SUB SLT ISZERO PUSH2 0x2A47 JUMPI PUSH2 0x2A46 PUSH2 0x2404 JUMP JUMPDEST JUMPDEST PUSH1 0x0 PUSH2 0x2A55 DUP5 DUP3 DUP6 ADD PUSH2 0x2877 JUMP JUMPDEST SWAP2 POP POP SWAP3 SWAP2 POP POP JUMP JUMPDEST PUSH2 0x2A67 DUP2 PUSH2 0x26B0 JUMP JUMPDEST DUP3 MSTORE POP POP JUMP JUMPDEST PUSH1 0x0 PUSH1 0x80 DUP3 ADD SWAP1 POP DUP2 DUP2 SUB PUSH1 0x0 DUP4 ADD MSTORE PUSH2 0x2A87 DUP2 DUP8 PUSH2 0x2520 JUMP JUMPDEST SWAP1 POP DUP2 DUP2 SUB PUSH1 0x20 DUP4 ADD MSTORE PUSH2 0x2A9B DUP2 DUP7 PUSH2 0x2520 JUMP JUMPDEST SWAP1 POP PUSH2 0x2AAA PUSH1 0x40 DUP4 ADD DUP6 PUSH2 0x2A5E JUMP JUMPDEST DUP2 DUP2 SUB PUSH1 0x60 DUP4 ADD MSTORE PUSH2 0x2ABC DUP2 DUP5 PUSH2 0x2520 JUMP JUMPDEST SWAP1 POP SWAP6 SWAP5 POP POP POP POP POP JUMP JUMPDEST PUSH2 0x2AD0 DUP2 PUSH2 0x2493 JUMP JUMPDEST DUP2 EQ PUSH2 0x2ADB JUMPI PUSH1 0x0 DUP1 REVERT JUMPDEST POP JUMP JUMPDEST PUSH1 0x0 DUP2 CALLDATALOAD SWAP1 POP PUSH2 0x2AED DUP2 PUSH2 0x2AC7 JUMP JUMPDEST SWAP3 SWAP2 POP POP JUMP JUMPDEST PUSH1 0x0 DUP1 PUSH1 0x40 DUP4 DUP6 SUB SLT ISZERO PUSH2 0x2B0A JUMPI PUSH2 0x2B09 PUSH2 0x2404 JUMP JUMPDEST JUMPDEST PUSH1 0x0 PUSH2 0x2B18 DUP6 DUP3 DUP7 ADD PUSH2 0x2877 JUMP JUMPDEST SWAP3 POP POP PUSH1 0x20 PUSH2 0x2B29 DUP6 DUP3 DUP7 ADD PUSH2 0x2ADE JUMP JUMPDEST SWAP2 POP POP SWAP3 POP SWAP3 SWAP1 POP JUMP JUMPDEST PUSH1 0x0 PUSH8 0xFFFFFFFFFFFFFFFF DUP3 GT ISZERO PUSH2 0x2B4E JUMPI PUSH2 0x2B4D PUSH2 0x2585 JUMP JUMPDEST JUMPDEST PUSH2 0x2B57 DUP3 PUSH2 0x250F JUMP JUMPDEST SWAP1 POP PUSH1 0x20 DUP2 ADD SWAP1 POP SWAP2 SWAP1 POP JUMP JUMPDEST PUSH1 0x0 PUSH2 0x2B77 PUSH2 0x2B72 DUP5 PUSH2 0x2B33 JUMP JUMPDEST PUSH2 0x25E5 JUMP JUMPDEST SWAP1 POP DUP3 DUP2 MSTORE PUSH1 0x20 DUP2 ADD DUP5 DUP5 DUP5 ADD GT ISZERO PUSH2 0x2B93 JUMPI PUSH2 0x2B92 PUSH2 0x2580 JUMP JUMPDEST JUMPDEST PUSH2 0x2B9E DUP5 DUP3 DUP6 PUSH2 0x2631 JUMP JUMPDEST POP SWAP4 SWAP3 POP POP POP JUMP JUMPDEST PUSH1 0x0 DUP3 PUSH1 0x1F DUP4 ADD SLT PUSH2 0x2BBB JUMPI PUSH2 0x2BBA PUSH2 0x257B JUMP JUMPDEST JUMPDEST DUP2 CALLDATALOAD PUSH2 0x2BCB DUP5 DUP3 PUSH1 0x20 DUP7 ADD PUSH2 0x2B64 JUMP JUMPDEST SWAP2 POP POP SWAP3 SWAP2 POP POP JUMP JUMPDEST PUSH1 0x0 DUP1 PUSH1 0x0 DUP1 PUSH1 0x80 DUP6 DUP8 SUB SLT ISZERO PUSH2 0x2BEE JUMPI PUSH2 0x2BED PUSH2 0x2404 JUMP JUMPDEST JUMPDEST PUSH1 0x0 PUSH2 0x2BFC DUP8 DUP3 DUP9 ADD PUSH2 0x2877 JUMP JUMPDEST SWAP5 POP POP PUSH1 0x20 PUSH2 0x2C0D DUP8 DUP3 DUP9 ADD PUSH2 0x2877 JUMP JUMPDEST SWAP4 POP POP PUSH1 0x40 PUSH2 0x2C1E DUP8 DUP3 DUP9 ADD PUSH2 0x27C2 JUMP JUMPDEST SWAP3 POP POP PUSH1 0x60 DUP6 ADD CALLDATALOAD PUSH8 0xFFFFFFFFFFFFFFFF DUP2 GT ISZERO PUSH2 0x2C3F JUMPI PUSH2 0x2C3E PUSH2 0x2409 JUMP JUMPDEST JUMPDEST PUSH2 0x2C4B DUP8 DUP3 DUP9 ADD PUSH2 0x2BA6 JUMP JUMPDEST SWAP2 POP POP SWAP3 SWAP6 SWAP2 SWAP5 POP SWAP3 POP JUMP JUMPDEST PUSH1 0x0 PUSH8 0xFFFFFFFFFFFFFFFF DUP3 GT ISZERO PUSH2 0x2C72 JUMPI PUSH2 0x2C71 PUSH2 0x2585 JUMP JUMPDEST JUMPDEST PUSH1 0x20 DUP3 MUL SWAP1 POP PUSH1 0x20 DUP2 ADD SWAP1 POP SWAP2 SWAP1 POP JUMP JUMPDEST PUSH1 0x0 DUP1 REVERT JUMPDEST PUSH1 0x0 PUSH2 0x2C9B PUSH2 0x2C96 DUP5 PUSH2 0x2C57 JUMP JUMPDEST PUSH2 0x25E5 JUMP JUMPDEST SWAP1 POP DUP1 DUP4 DUP3 MSTORE PUSH1 0x20 DUP3 ADD SWAP1 POP PUSH1 0x20 DUP5 MUL DUP4 ADD DUP6 DUP2 GT ISZERO PUSH2 0x2CBE JUMPI PUSH2 0x2CBD PUSH2 0x2C83 JUMP JUMPDEST JUMPDEST DUP4 JUMPDEST DUP2 DUP2 LT ISZERO PUSH2 0x2D05 JUMPI DUP1 CALLDATALOAD PUSH8 0xFFFFFFFFFFFFFFFF DUP2 GT ISZERO PUSH2 0x2CE3 JUMPI PUSH2 0x2CE2 PUSH2 0x257B JUMP JUMPDEST JUMPDEST DUP1 DUP7 ADD PUSH2 0x2CF0 DUP10 DUP3 PUSH2 0x2682 JUMP JUMPDEST DUP6 MSTORE PUSH1 0x20 DUP6 ADD SWAP5 POP POP POP PUSH1 0x20 DUP2 ADD SWAP1 POP PUSH2 0x2CC0 JUMP JUMPDEST POP POP POP SWAP4 SWAP3 POP POP POP JUMP JUMPDEST PUSH1 0x0 DUP3 PUSH1 0x1F DUP4 ADD SLT PUSH2 0x2D24 JUMPI PUSH2 0x2D23 PUSH2 0x257B JUMP JUMPDEST JUMPDEST DUP2 CALLDATALOAD PUSH2 0x2D34 DUP5 DUP3 PUSH1 0x20 DUP7 ADD PUSH2 0x2C88 JUMP JUMPDEST SWAP2 POP POP SWAP3 SWAP2 POP POP JUMP JUMPDEST PUSH1 0x0 PUSH8 0xFFFFFFFFFFFFFFFF DUP3 GT ISZERO PUSH2 0x2D58 JUMPI PUSH2 0x2D57 PUSH2 0x2585 JUMP JUMPDEST JUMPDEST PUSH1 0x20 DUP3 MUL SWAP1 POP PUSH1 0x20 DUP2 ADD SWAP1 POP SWAP2 SWAP1 POP JUMP JUMPDEST PUSH1 0x0 PUSH2 0x2D7C PUSH2 0x2D77 DUP5 PUSH2 0x2D3D JUMP JUMPDEST PUSH2 0x25E5 JUMP JUMPDEST SWAP1 POP DUP1 DUP4 DUP3 MSTORE PUSH1 0x20 DUP3 ADD SWAP1 POP PUSH1 0x20 DUP5 MUL DUP4 ADD DUP6 DUP2 GT ISZERO PUSH2 0x2D9F JUMPI PUSH2 0x2D9E PUSH2 0x2C83 JUMP JUMPDEST JUMPDEST DUP4 JUMPDEST DUP2 DUP2 LT ISZERO PUSH2 0x2DC8 JUMPI DUP1 PUSH2 0x2DB4 DUP9 DUP3 PUSH2 0x26D1 JUMP JUMPDEST DUP5 MSTORE PUSH1 0x20 DUP5 ADD SWAP4 POP POP PUSH1 0x20 DUP2 ADD SWAP1 POP PUSH2 0x2DA1 JUMP JUMPDEST POP POP POP SWAP4 SWAP3 POP POP POP JUMP JUMPDEST PUSH1 0x0 DUP3 PUSH1 0x1F DUP4 ADD SLT PUSH2 0x2DE7 JUMPI PUSH2 0x2DE6 PUSH2 0x257B JUMP JUMPDEST JUMPDEST DUP2 CALLDATALOAD PUSH2 0x2DF7 DUP5 DUP3 PUSH1 0x20 DUP7 ADD PUSH2 0x2D69 JUMP JUMPDEST SWAP2 POP POP SWAP3 SWAP2 POP POP JUMP JUMPDEST PUSH1 0x0 DUP1 PUSH1 0x0 DUP1 PUSH1 0x80 DUP6 DUP8 SUB SLT ISZERO PUSH2 0x2E1A JUMPI PUSH2 0x2E19 PUSH2 0x2404 JUMP JUMPDEST JUMPDEST PUSH1 0x0 DUP6 ADD CALLDATALOAD PUSH8 0xFFFFFFFFFFFFFFFF DUP2 GT ISZERO PUSH2 0x2E38 JUMPI PUSH2 0x2E37 PUSH2 0x2409 JUMP JUMPDEST JUMPDEST PUSH2 0x2E44 DUP8 DUP3 DUP9 ADD PUSH2 0x2D0F JUMP JUMPDEST SWAP5 POP POP PUSH1 0x20 DUP6 ADD CALLDATALOAD PUSH8 0xFFFFFFFFFFFFFFFF DUP2 GT ISZERO PUSH2 0x2E65 JUMPI PUSH2 0x2E64 PUSH2 0x2409 JUMP JUMPDEST JUMPDEST PUSH2 0x2E71 DUP8 DUP3 DUP9 ADD PUSH2 0x2D0F JUMP JUMPDEST SWAP4 POP POP PUSH1 0x40 DUP6 ADD CALLDATALOAD PUSH8 0xFFFFFFFFFFFFFFFF DUP2 GT ISZERO PUSH2 0x2E92 JUMPI PUSH2 0x2E91 PUSH2 0x2409 JUMP JUMPDEST JUMPDEST PUSH2 0x2E9E DUP8 DUP3 DUP9 ADD PUSH2 0x2DD2 JUMP JUMPDEST SWAP3 POP POP PUSH1 0x60 DUP6 ADD CALLDATALOAD PUSH8 0xFFFFFFFFFFFFFFFF DUP2 GT ISZERO PUSH2 0x2EBF JUMPI PUSH2 0x2EBE PUSH2 0x2409 JUMP JUMPDEST JUMPDEST PUSH2 0x2ECB DUP8 DUP3 DUP9 ADD PUSH2 0x2D0F JUMP JUMPDEST SWAP2 POP POP SWAP3 SWAP6 SWAP2 SWAP5 POP SWAP3 POP JUMP JUMPDEST PUSH1 0x0 DUP1 PUSH1 0x40 DUP4 DUP6 SUB SLT ISZERO PUSH2 0x2EEE JUMPI PUSH2 0x2EED PUSH2 0x2404 JUMP JUMPDEST JUMPDEST PUSH1 0x0 PUSH2 0x2EFC DUP6 DUP3 DUP7 ADD PUSH2 0x2877 JUMP JUMPDEST SWAP3 POP POP PUSH1 0x20 PUSH2 0x2F0D DUP6 DUP3 DUP7 ADD PUSH2 0x2877 JUMP JUMPDEST SWAP2 POP POP SWAP3 POP SWAP3 SWAP1 POP JUMP JUMPDEST PUSH32 0x4E487B7100000000000000000000000000000000000000000000000000000000 PUSH1 0x0 MSTORE PUSH1 0x22 PUSH1 0x4 MSTORE PUSH1 0x24 PUSH1 0x0 REVERT JUMPDEST PUSH1 0x0 PUSH1 0x2 DUP3 DIV SWAP1 POP PUSH1 0x1 DUP3 AND DUP1 PUSH2 0x2F5E JUMPI PUSH1 0x7F DUP3 AND SWAP2 POP JUMPDEST PUSH1 0x20 DUP3 LT DUP2 SUB PUSH2 0x2F71 JUMPI PUSH2 0x2F70 PUSH2 0x2F17 JUMP JUMPDEST JUMPDEST POP SWAP2 SWAP1 POP JUMP JUMPDEST PUSH32 0x4D61726B736865657420616C7265616479206578697374730000000000000000 PUSH1 0x0 DUP3 ADD MSTORE POP JUMP JUMPDEST PUSH1 0x0 PUSH2 0x2FAD PUSH1 0x18 DUP4 PUSH2 0x24D4 JUMP JUMPDEST SWAP2 POP PUSH2 0x2FB8 DUP3 PUSH2 0x2F77 JUMP JUMPDEST PUSH1 0x20 DUP3 ADD SWAP1 POP SWAP2 SWAP1 POP JUMP JUMPDEST PUSH1 0x0 PUSH1 0x20 DUP3 ADD SWAP1 POP DUP2 DUP2 SUB PUSH1 0x0 DUP4 ADD MSTORE PUSH2 0x2FDC DUP2 PUSH2 0x2FA0 JUMP JUMPDEST SWAP1 POP SWAP2 SWAP1 POP JUMP JUMPDEST PUSH32 0x53747564656E74206E616D652063616E6E6F7420626520656D70747900000000 PUSH1 0x0 DUP3 ADD MSTORE POP JUMP JUMPDEST PUSH1 0x0 PUSH2 0x3019 PUSH1 0x1C DUP4 PUSH2 0x24D4 JUMP JUMPDEST SWAP2 POP PUSH2 0x3024 DUP3 PUSH2 0x2FE3 JUMP JUMPDEST PUSH1 0x20 DUP3 ADD SWAP1 POP SWAP2 SWAP1 POP JUMP JUMPDEST PUSH1 0x0 PUSH1 0x20 DUP3 ADD SWAP1 POP DUP2 DUP2 SUB PUSH1 0x0 DUP4 ADD MSTORE PUSH2 0x3048 DUP2 PUSH2 0x300C JUMP JUMPDEST SWAP1 POP SWAP2 SWAP1 POP JUMP JUMPDEST PUSH32 0x50524E2063616E6E6F7420626520656D70747900000000000000000000000000 PUSH1 0x0 DUP3 ADD MSTORE POP JUMP JUMPDEST PUSH1 0x0 PUSH2 0x3085 PUSH1 0x13 DUP4 PUSH2 0x24D4 JUMP JUMPDEST SWAP2 POP PUSH2 0x3090 DUP3 PUSH2 0x304F JUMP JUMPDEST PUSH1 0x20 DUP3 ADD SWAP1 POP SWAP2 SWAP1 POP JUMP JUMPDEST PUSH1 0x0 PUSH1 0x20 DUP3 ADD SWAP1 POP DUP2 DUP2 SUB PUSH1 0x0 DUP4 ADD MSTORE PUSH2 0x30B4 DUP2 PUSH2 0x3078 JUMP JUMPDEST SWAP1 POP SWAP2 SWAP1 POP JUMP JUMPDEST PUSH32 0x4950465320686173682063616E6E6F7420626520656D70747900000000000000 PUSH1 0x0 DUP3 ADD MSTORE POP JUMP JUMPDEST PUSH1 0x0 PUSH2 0x30F1 PUSH1 0x19 DUP4 PUSH2 0x24D4 JUMP JUMPDEST SWAP2 POP PUSH2 0x30FC DUP3 PUSH2 0x30BB JUMP JUMPDEST PUSH1 0x20 DUP3 ADD SWAP1 POP SWAP2 SWAP1 POP JUMP JUMPDEST PUSH1 0x0 PUSH1 0x20 DUP3 ADD SWAP1 POP DUP2 DUP2 SUB PUSH1 0x0 DUP4 ADD MSTORE PUSH2 0x3120 DUP2 PUSH2 0x30E4 JUMP JUMPDEST SWAP1 POP SWAP2 SWAP1 POP JUMP JUMPDEST PUSH1 0x0 DUP2 SWAP1 POP DUP2 PUSH1 0x0 MSTORE PUSH1 0x20 PUSH1 0x0 KECCAK256 SWAP1 POP SWAP2 SWAP1 POP JUMP JUMPDEST PUSH1 0x0 PUSH1 0x20 PUSH1 0x1F DUP4 ADD DIV SWAP1 POP SWAP2 SWAP1 POP JUMP JUMPDEST PUSH1 0x0 DUP3 DUP3 SHL SWAP1 POP SWAP3 SWAP2 POP POP JUMP JUMPDEST PUSH1 0x0 PUSH1 0x8 DUP4 MUL PUSH2 0x3189 PUSH32 0xFFFFFFFFFFFFFFFFFFFFFFFFFFFFFFFFFFFFFFFFFFFFFFFFFFFFFFFFFFFFFFFF DUP3 PUSH2 0x314C JUMP JUMPDEST PUSH2 0x3193 DUP7 DUP4 PUSH2 0x314C JUMP JUMPDEST SWAP6 POP DUP1 NOT DUP5 AND SWAP4 POP DUP1 DUP7 AND DUP5 OR SWAP3 POP POP POP SWAP4 SWAP3 POP POP POP JUMP JUMPDEST PUSH1 0x0 DUP2 SWAP1 POP SWAP2 SWAP1 POP JUMP JUMPDEST PUSH1 0x0 PUSH2 0x31D0 PUSH2 0x31CB PUSH2 0x31C6 DUP5 PUSH2 0x27A1 JUMP JUMPDEST PUSH2 0x31AB JUMP JUMPDEST PUSH2 0x27A1 JUMP JUMPDEST SWAP1 POP SWAP2 SWAP1 POP JUMP JUMPDEST PUSH1 0x0 DUP2 SWAP1 POP SWAP2 SWAP1 POP JUMP JUMPDEST PUSH2 0x31EA DUP4 PUSH2 0x31B5 JUMP JUMPDEST PUSH2 0x31FE PUSH2 0x31F6 DUP3 PUSH2 0x31D7 JUMP JUMPDEST DUP5 DUP5 SLOAD PUSH2 0x3159 JUMP JUMPDEST DUP3 SSTORE POP POP POP POP JUMP JUMPDEST PUSH1 0x0 SWAP1 JUMP JUMPDEST PUSH2 0x3213 PUSH2 0x3206 JUMP JUMPDEST PUSH2 0x321E DUP2 DUP5 DUP5 PUSH2 0x31E1 JUMP JUMPDEST POP POP POP JUMP JUMPDEST JUMPDEST DUP2 DUP2 LT ISZERO PUSH2 0x3242 JUMPI PUSH2 0x3237 PUSH1 0x0 DUP3 PUSH2 0x320B JUMP JUMPDEST PUSH1 0x1 DUP2 ADD SWAP1 POP PUSH2 0x3224 JUMP JUMPDEST POP POP JUMP JUMPDEST PUSH1 0x1F DUP3 GT ISZERO PUSH2 0x3287 JUMPI PUSH2 0x3258 DUP2 PUSH2 0x3127 JUMP JUMPDEST PUSH2 0x3261 DUP5 PUSH2 0x313C JUMP JUMPDEST DUP2 ADD PUSH1 0x20 DUP6 LT ISZERO PUSH2 0x3270 JUMPI DUP2 SWAP1 POP JUMPDEST PUSH2 0x3284 PUSH2 0x327C DUP6 PUSH2 0x313C JUMP JUMPDEST DUP4 ADD DUP3 PUSH2 0x3223 JUMP JUMPDEST POP POP JUMPDEST POP POP POP JUMP JUMPDEST PUSH1 0x0 DUP3 DUP3 SHR SWAP1 POP SWAP3 SWAP2 POP POP JUMP JUMPDEST PUSH1 0x0 PUSH2 0x32AA PUSH1 0x0 NOT DUP5 PUSH1 0x8 MUL PUSH2 0x328C JUMP JUMPDEST NOT DUP1 DUP4 AND SWAP2 POP POP SWAP3 SWAP2 POP POP JUMP JUMPDEST PUSH1 0x0 PUSH2 0x32C3 DUP4 DUP4 PUSH2 0x3299 JUMP JUMPDEST SWAP2 POP DUP3 PUSH1 0x2 MUL DUP3 OR SWAP1 POP SWAP3 SWAP2 POP POP JUMP JUMPDEST PUSH2 0x32DC DUP3 PUSH2 0x24C9 JUMP JUMPDEST PUSH8 0xFFFFFFFFFFFFFFFF DUP2 GT ISZERO PUSH2 0x32F5 JUMPI PUSH2 0x32F4 PUSH2 0x2585 JUMP JUMPDEST JUMPDEST PUSH2 0x32FF DUP3 SLOAD PUSH2 0x2F46 JUMP JUMPDEST PUSH2 0x330A DUP3 DUP3 DUP6 PUSH2 0x3246 JUMP JUMPDEST PUSH1 0x0 PUSH1 0x20 SWAP1 POP PUSH1 0x1F DUP4 GT PUSH1 0x1 DUP2 EQ PUSH2 0x333D JUMPI PUSH1 0x0 DUP5 ISZERO PUSH2 0x332B JUMPI DUP3 DUP8 ADD MLOAD SWAP1 POP JUMPDEST PUSH2 0x3335 DUP6 DUP3 PUSH2 0x32B7 JUMP JUMPDEST DUP7 SSTORE POP PUSH2 0x339D JUMP JUMPDEST PUSH1 0x1F NOT DUP5 AND PUSH2 0x334B DUP7 PUSH2 0x3127 JUMP JUMPDEST PUSH1 0x0 JUMPDEST DUP3 DUP2 LT ISZERO PUSH2 0x3373 JUMPI DUP5 DUP10 ADD MLOAD DUP3 SSTORE PUSH1 0x1 DUP3 ADD SWAP2 POP PUSH1 0x20 DUP6 ADD SWAP5 POP PUSH1 0x20 DUP2 ADD SWAP1 POP PUSH2 0x334E JUMP JUMPDEST DUP7 DUP4 LT ISZERO PUSH2 0x3390 JUMPI DUP5 DUP10 ADD MLOAD PUSH2 0x338C PUSH1 0x1F DUP10 AND DUP3 PUSH2 0x3299 JUMP JUMPDEST DUP4 SSTORE POP JUMPDEST PUSH1 0x1 PUSH1 0x2 DUP9 MUL ADD DUP9 SSTORE POP POP POP JUMPDEST POP POP POP POP POP POP JUMP JUMPDEST PUSH32 0x4552433732313A20617070726F76656420717565727920666F72206E6F6E6578 PUSH1 0x0 DUP3 ADD MSTORE PUSH32 0x697374656E7420746F6B656E0000000000000000000000000000000000000000 PUSH1 0x20 DUP3 ADD MSTORE POP JUMP JUMPDEST PUSH1 0x0 PUSH2 0x3401 PUSH1 0x2C DUP4 PUSH2 0x24D4 JUMP JUMPDEST SWAP2 POP PUSH2 0x340C DUP3 PUSH2 0x33A5 JUMP JUMPDEST PUSH1 0x40 DUP3 ADD SWAP1 POP SWAP2 SWAP1 POP JUMP JUMPDEST PUSH1 0x0 PUSH1 0x20 DUP3 ADD SWAP1 POP DUP2 DUP2 SUB PUSH1 0x0 DUP4 ADD MSTORE PUSH2 0x3430 DUP2 PUSH2 0x33F4 JUMP JUMPDEST SWAP1 POP SWAP2 SWAP1 POP JUMP JUMPDEST PUSH32 0x4552433732313A20617070726F76616C20746F2063757272656E74206F776E65 PUSH1 0x0 DUP3 ADD MSTORE PUSH32 0x7200000000000000000000000000000000000000000000000000000000000000 PUSH1 0x20 DUP3 ADD MSTORE POP JUMP JUMPDEST PUSH1 0x0 PUSH2 0x3493 PUSH1 0x21 DUP4 PUSH2 0x24D4 JUMP JUMPDEST SWAP2 POP PUSH2 0x349E DUP3 PUSH2 0x3437 JUMP JUMPDEST PUSH1 0x40 DUP3 ADD SWAP1 POP SWAP2 SWAP1 POP JUMP JUMPDEST PUSH1 0x0 PUSH1 0x20 DUP3 ADD SWAP1 POP DUP2 DUP2 SUB PUSH1 0x0 DUP4 ADD MSTORE PUSH2 0x34C2 DUP2 PUSH2 0x3486 JUMP JUMPDEST SWAP1 POP SWAP2 SWAP1 POP JUMP JUMPDEST PUSH32 0x4552433732313A20617070726F76652063616C6C6572206973206E6F74206F77 PUSH1 0x0 DUP3 ADD MSTORE PUSH32 0x6E6572206E6F7220617070726F76656420666F7220616C6C0000000000000000 PUSH1 0x20 DUP3 ADD MSTORE POP JUMP JUMPDEST PUSH1 0x0 PUSH2 0x3525 PUSH1 0x38 DUP4 PUSH2 0x24D4 JUMP JUMPDEST SWAP2 POP PUSH2 0x3530 DUP3 PUSH2 0x34C9 JUMP JUMPDEST PUSH1 0x40 DUP3 ADD SWAP1 POP SWAP2 SWAP1 POP JUMP JUMPDEST PUSH1 0x0 PUSH1 0x20 DUP3 ADD SWAP1 POP DUP2 DUP2 SUB PUSH1 0x0 DUP4 ADD MSTORE PUSH2 0x3554 DUP2 PUSH2 0x3518 JUMP JUMPDEST SWAP1 POP SWAP2 SWAP1 POP JUMP JUMPDEST PUSH32 0x4552433732313A207472616E736665722063616C6C6572206973206E6F74206F PUSH1 0x0 DUP3 ADD MSTORE PUSH32 0x776E6572206E6F7220617070726F766564000000000000000000000000000000 PUSH1 0x20 DUP3 ADD MSTORE POP JUMP JUMPDEST PUSH1 0x0 PUSH2 0x35B7 PUSH1 0x31 DUP4 PUSH2 0x24D4 JUMP JUMPDEST SWAP2 POP PUSH2 0x35C2 DUP3 PUSH2 0x355B JUMP JUMPDEST PUSH1 0x40 DUP3 ADD SWAP1 POP SWAP2 SWAP1 POP JUMP JUMPDEST PUSH1 0x0 PUSH1 0x20 DUP3 ADD SWAP1 POP DUP2 DUP2 SUB PUSH1 0x0 DUP4 ADD MSTORE PUSH2 0x35E6 DUP2 PUSH2 0x35AA JUMP JUMPDEST SWAP1 POP SWAP2 SWAP1 POP JUMP JUMPDEST PUSH32 0x4D61726B736865657420646F6573206E6F742065786973740000000000000000 PUSH1 0x0 DUP3 ADD MSTORE POP JUMP JUMPDEST PUSH1 0x0 PUSH2 0x3623 PUSH1 0x18 DUP4 PUSH2 0x24D4 JUMP JUMPDEST SWAP2 POP PUSH2 0x362E DUP3 PUSH2 0x35ED JUMP JUMPDEST PUSH1 0x20 DUP3 ADD SWAP1 POP SWAP2 SWAP1 POP JUMP JUMPDEST PUSH1 0x0 PUSH1 0x20 DUP3 ADD SWAP1 POP DUP2 DUP2 SUB PUSH1 0x0 DUP4 ADD MSTORE PUSH2 0x3652 DUP2 PUSH2 0x3616 JUMP JUMPDEST SWAP1 POP SWAP2 SWAP1 POP JUMP JUMPDEST PUSH32 0x4552433732313A206F776E657220717565727920666F72206E6F6E6578697374 PUSH1 0x0 DUP3 ADD MSTORE PUSH32 0x656E7420746F6B656E0000000000000000000000000000000000000000000000 PUSH1 0x20 DUP3 ADD MSTORE POP JUMP JUMPDEST PUSH1 0x0 PUSH2 0x36B5 PUSH1 0x29 DUP4 PUSH2 0x24D4 JUMP JUMPDEST SWAP2 POP PUSH2 0x36C0 DUP3 PUSH2 0x3659 JUMP JUMPDEST PUSH1 0x40 DUP3 ADD SWAP1 POP SWAP2 SWAP1 POP JUMP JUMPDEST PUSH1 0x0 PUSH1 0x20 DUP3 ADD SWAP1 POP DUP2 DUP2 SUB PUSH1 0x0 DUP4 ADD MSTORE PUSH2 0x36E4 DUP2 PUSH2 0x36A8 JUMP JUMPDEST SWAP1 POP SWAP2 SWAP1 POP JUMP JUMPDEST PUSH32 0x5552492063616E6E6F7420626520656D70747900000000000000000000000000 PUSH1 0x0 DUP3 ADD MSTORE POP JUMP JUMPDEST PUSH1 0x0 PUSH2 0x3721 PUSH1 0x13 DUP4 PUSH2 0x24D4 JUMP JUMPDEST SWAP2 POP PUSH2 0x372C DUP3 PUSH2 0x36EB JUMP JUMPDEST PUSH1 0x20 DUP3 ADD SWAP1 POP SWAP2 SWAP1 POP JUMP JUMPDEST PUSH1 0x0 PUSH1 0x20 DUP3 ADD SWAP1 POP DUP2 DUP2 SUB PUSH1 0x0 DUP4 ADD MSTORE PUSH2 0x3750 DUP2 PUSH2 0x3714 JUMP JUMPDEST SWAP1 POP SWAP2 SWAP1 POP JUMP JUMPDEST PUSH32 0x496E76616C696420726563697069656E74000000000000000000000000000000 PUSH1 0x0 DUP3 ADD MSTORE POP JUMP JUMPDEST PUSH1 0x0 PUSH2 0x378D PUSH1 0x11 DUP4 PUSH2 0x24D4 JUMP JUMPDEST SWAP2 POP PUSH2 0x3798 DUP3 PUSH2 0x3757 JUMP JUMPDEST PUSH1 0x20 DUP3 ADD SWAP1 POP SWAP2 SWAP1 POP JUMP JUMPDEST PUSH1 0x0 PUSH1 0x20 DUP3 ADD SWAP1 POP DUP2 DUP2 SUB PUSH1 0x0 DUP4 ADD MSTORE PUSH2 0x37BC DUP2 PUSH2 0x3780 JUMP JUMPDEST SWAP1 POP SWAP2 SWAP1 POP JUMP JUMPDEST PUSH32 0x446F63756D656E7420686173682063616E6E6F7420626520656D707479000000 PUSH1 0x0 DUP3 ADD MSTORE POP JUMP JUMPDEST PUSH1 0x0 PUSH2 0x37F9 PUSH1 0x1D DUP4 PUSH2 0x24D4 JUMP JUMPDEST SWAP2 POP PUSH2 0x3804 DUP3 PUSH2 0x37C3 JUMP JUMPDEST PUSH1 0x20 DUP3 ADD SWAP1 POP SWAP2 SWAP1 POP JUMP JUMPDEST PUSH1 0x0 PUSH1 0x20 DUP3 ADD SWAP1 POP DUP2 DUP2 SUB PUSH1 0x0 DUP4 ADD MSTORE PUSH2 0x3828 DUP2 PUSH2 0x37EC JUMP JUMPDEST SWAP1 POP SWAP2 SWAP1 POP JUMP JUMPDEST PUSH1 0x0 PUSH1 0x40 DUP3 ADD SWAP1 POP PUSH2 0x3844 PUSH1 0x0 DUP4 ADD DUP6 PUSH2 0x2A07 JUMP JUMPDEST DUP2 DUP2 SUB PUSH1 0x20 DUP4 ADD MSTORE PUSH2 0x3856 DUP2 DUP5 PUSH2 0x2520 JUMP JUMPDEST SWAP1 POP SWAP4 SWAP3 POP POP POP JUMP JUMPDEST PUSH32 0x4552433732313A2062616C616E636520717565727920666F7220746865207A65 PUSH1 0x0 DUP3 ADD MSTORE PUSH32 0x726F206164647265737300000000000000000000000000000000000000000000 PUSH1 0x20 DUP3 ADD MSTORE POP JUMP JUMPDEST PUSH1 0x0 PUSH2 0x38BB PUSH1 0x2A DUP4 PUSH2 0x24D4 JUMP JUMPDEST SWAP2 POP PUSH2 0x38C6 DUP3 PUSH2 0x385F JUMP JUMPDEST PUSH1 0x40 DUP3 ADD SWAP1 POP SWAP2 SWAP1 POP JUMP JUMPDEST PUSH1 0x0 PUSH1 0x20 DUP3 ADD SWAP1 POP DUP2 DUP2 SUB PUSH1 0x0 DUP4 ADD MSTORE PUSH2 0x38EA DUP2 PUSH2 0x38AE JUMP JUMPDEST SWAP1 POP SWAP2 SWAP1 POP JUMP JUMPDEST PUSH32 0x4552433732313A20617070726F766520746F2063616C6C657200000000000000 PUSH1 0x0 DUP3 ADD MSTORE POP JUMP JUMPDEST PUSH1 0x0 PUSH2 0x3927 PUSH1 0x19 DUP4 PUSH2 0x24D4 JUMP JUMPDEST SWAP2 POP PUSH2 0x3932 DUP3 PUSH2 0x38F1 JUMP JUMPDEST PUSH1 0x20 DUP3 ADD SWAP1 POP SWAP2 SWAP1 POP JUMP JUMPDEST PUSH1 0x0 PUSH1 0x20 DUP3 ADD SWAP1 POP DUP2 DUP2 SUB PUSH1 0x0 DUP4 ADD MSTORE PUSH2 0x3956 DUP2 PUSH2 0x391A JUMP JUMPDEST SWAP1 POP SWAP2 SWAP1 POP JUMP JUMPDEST PUSH32 0x496E707574206172726179206C656E67746873206D757374206D617463680000 PUSH1 0x0 DUP3 ADD MSTORE POP JUMP JUMPDEST PUSH1 0x0 PUSH2 0x3993 PUSH1 0x1E DUP4 PUSH2 0x24D4 JUMP JUMPDEST SWAP2 POP PUSH2 0x399E DUP3 PUSH2 0x395D JUMP JUMPDEST PUSH1 0x20 DUP3 ADD SWAP1 POP SWAP2 SWAP1 POP JUMP JUMPDEST PUSH1 0x0 PUSH1 0x20 DUP3 ADD SWAP1 POP DUP2 DUP2 SUB PUSH1 0x0 DUP4 ADD MSTORE PUSH2 0x39C2 DUP2 PUSH2 0x3986 JUMP JUMPDEST SWAP1 POP SWAP2 SWAP1 POP JUMP JUMPDEST PUSH32 0x4E487B7100000000000000000000000000000000000000000000000000000000 PUSH1 0x0 MSTORE PUSH1 0x32 PUSH1 0x4 MSTORE PUSH1 0x24 PUSH1 0x0 REVERT JUMPDEST PUSH32 0x4475706C6963617465206D61726B736865657420646574656374656400000000 PUSH1 0x0 DUP3 ADD MSTORE POP JUMP JUMPDEST PUSH1 0x0 PUSH2 0x3A2E PUSH1 0x1C DUP4 PUSH2 0x24D4 JUMP JUMPDEST SWAP2 POP PUSH2 0x3A39 DUP3 PUSH2 0x39F8 JUMP JUMPDEST PUSH1 0x20 DUP3 ADD SWAP1 POP SWAP2 SWAP1 POP JUMP JUMPDEST PUSH1 0x0 PUSH1 0x20 DUP3 ADD SWAP1 POP DUP2 DUP2 SUB PUSH1 0x0 DUP4 ADD MSTORE PUSH2 0x3A5D DUP2 PUSH2 0x3A21 JUMP JUMPDEST SWAP1 POP SWAP2 SWAP1 POP JUMP JUMPDEST PUSH32 0x4E487B7100000000000000000000000000000000000000000000000000000000 PUSH1 0x0 MSTORE PUSH1 0x11 PUSH1 0x4 MSTORE PUSH1 0x24 PUSH1 0x0 REVERT JUMPDEST PUSH1 0x0 PUSH2 0x3A9E DUP3 PUSH2 0x27A1 JUMP JUMPDEST SWAP2 POP PUSH32 0xFFFFFFFFFFFFFFFFFFFFFFFFFFFFFFFFFFFFFFFFFFFFFFFFFFFFFFFFFFFFFFFF DUP3 SUB PUSH2 0x3AD0 JUMPI PUSH2 0x3ACF PUSH2 0x3A64 JUMP JUMPDEST JUMPDEST PUSH1 0x1 DUP3 ADD SWAP1 POP SWAP2 SWAP1 POP JUMP JUMPDEST PUSH32 0x55524920717565727920666F72206E6F6E6578697374656E7420746F6B656E00 PUSH1 0x0 DUP3 ADD MSTORE POP JUMP JUMPDEST PUSH1 0x0 PUSH2 0x3B11 PUSH1 0x1F DUP4 PUSH2 0x24D4 JUMP JUMPDEST SWAP2 POP PUSH2 0x3B1C DUP3 PUSH2 0x3ADB JUMP JUMPDEST PUSH1 0x20 DUP3 ADD SWAP1 POP SWAP2 SWAP1 POP JUMP JUMPDEST PUSH1 0x0 PUSH1 0x20 DUP3 ADD SWAP1 POP DUP2 DUP2 SUB PUSH1 0x0 DUP4 ADD MSTORE PUSH2 0x3B40 DUP2 PUSH2 0x3B04 JUMP JUMPDEST SWAP1 POP SWAP2 SWAP1 POP JUMP JUMPDEST PUSH32 0x4552433732313A206F70657261746F7220717565727920666F72206E6F6E6578 PUSH1 0x0 DUP3 ADD MSTORE PUSH32 0x697374656E7420746F6B656E0000000000000000000000000000000000000000 PUSH1 0x20 DUP3 ADD MSTORE POP JUMP JUMPDEST PUSH1 0x0 PUSH2 0x3BA3 PUSH1 0x2C DUP4 PUSH2 0x24D4 JUMP JUMPDEST SWAP2 POP PUSH2 0x3BAE DUP3 PUSH2 0x3B47 JUMP JUMPDEST PUSH1 0x40 DUP3 ADD SWAP1 POP SWAP2 SWAP1 POP JUMP JUMPDEST PUSH1 0x0 PUSH1 0x20 DUP3 ADD SWAP1 POP DUP2 DUP2 SUB PUSH1 0x0 DUP4 ADD MSTORE PUSH2 0x3BD2 DUP2 PUSH2 0x3B96 JUMP JUMPDEST SWAP1 POP SWAP2 SWAP1 POP JUMP JUMPDEST PUSH32 0x4552433732313A207472616E73666572206F6620746F6B656E20746861742069 PUSH1 0x0 DUP3 ADD MSTORE PUSH32 0x73206E6F74206F776E0000000000000000000000000000000000000000000000 PUSH1 0x20 DUP3 ADD MSTORE POP JUMP JUMPDEST PUSH1 0x0 PUSH2 0x3C35 PUSH1 0x29 DUP4 PUSH2 0x24D4 JUMP JUMPDEST SWAP2 POP PUSH2 0x3C40 DUP3 PUSH2 0x3BD9 JUMP JUMPDEST PUSH1 0x40 DUP3 ADD SWAP1 POP SWAP2 SWAP1 POP JUMP JUMPDEST PUSH1 0x0 PUSH1 0x20 DUP3 ADD SWAP1 POP DUP2 DUP2 SUB PUSH1 0x0 DUP4 ADD MSTORE PUSH2 0x3C64 DUP2 PUSH2 0x3C28 JUMP JUMPDEST SWAP1 POP SWAP2 SWAP1 POP JUMP JUMPDEST PUSH32 0x4552433732313A207472616E7366657220746F20746865207A65726F20616464 PUSH1 0x0 DUP3 ADD MSTORE PUSH32 0x7265737300000000000000000000000000000000000000000000000000000000 PUSH1 0x20 DUP3 ADD MSTORE POP JUMP JUMPDEST PUSH1 0x0 PUSH2 0x3CC7 PUSH1 0x24 DUP4 PUSH2 0x24D4 JUMP JUMPDEST SWAP2 POP PUSH2 0x3CD2 DUP3 PUSH2 0x3C6B JUMP JUMPDEST PUSH1 0x40 DUP3 ADD SWAP1 POP SWAP2 SWAP1 POP JUMP JUMPDEST PUSH1 0x0 PUSH1 0x20 DUP3 ADD SWAP1 POP DUP2 DUP2 SUB PUSH1 0x0 DUP4 ADD MSTORE PUSH2 0x3CF6 DUP2 PUSH2 0x3CBA JUMP JUMPDEST SWAP1 POP SWAP2 SWAP1 POP JUMP JUMPDEST PUSH1 0x0 PUSH2 0x3D08 DUP3 PUSH2 0x27A1 JUMP JUMPDEST SWAP2 POP PUSH2 0x3D13 DUP4 PUSH2 0x27A1 JUMP JUMPDEST SWAP3 POP DUP3 DUP3 SUB SWAP1 POP DUP2 DUP2 GT ISZERO PUSH2 0x3D2B JUMPI PUSH2 0x3D2A PUSH2 0x3A64 JUMP JUMPDEST JUMPDEST SWAP3 SWAP2 POP POP JUMP JUMPDEST PUSH1 0x0 PUSH2 0x3D3C DUP3 PUSH2 0x27A1 JUMP JUMPDEST SWAP2 POP PUSH2 0x3D47 DUP4 PUSH2 0x27A1 JUMP JUMPDEST SWAP3 POP DUP3 DUP3 ADD SWAP1 POP DUP1 DUP3 GT ISZERO PUSH2 0x3D5F JUMPI PUSH2 0x3D5E PUSH2 0x3A64 JUMP JUMPDEST JUMPDEST SWAP3 SWAP2 POP POP JUMP JUMPDEST PUSH32 0x4552433732313A206D696E7420746F20746865207A65726F2061646472657373 PUSH1 0x0 DUP3 ADD MSTORE POP JUMP JUMPDEST PUSH1 0x0 PUSH2 0x3D9B PUSH1 0x20 DUP4 PUSH2 0x24D4 JUMP JUMPDEST SWAP2 POP PUSH2 0x3DA6 DUP3 PUSH2 0x3D65 JUMP JUMPDEST PUSH1 0x20 DUP3 ADD SWAP1 POP SWAP2 SWAP1 POP JUMP JUMPDEST PUSH1 0x0 PUSH1 0x20 DUP3 ADD SWAP1 POP DUP2 DUP2 SUB PUSH1 0x0 DUP4 ADD MSTORE PUSH2 0x3DCA DUP2 PUSH2 0x3D8E JUMP JUMPDEST SWAP1 POP SWAP2 SWAP1 POP JUMP JUMPDEST PUSH32 0x4552433732313A20746F6B656E20616C7265616479206D696E74656400000000 PUSH1 0x0 DUP3 ADD MSTORE POP JUMP JUMPDEST PUSH1 0x0 PUSH2 0x3E07 PUSH1 0x1C DUP4 PUSH2 0x24D4 JUMP JUMPDEST SWAP2 POP PUSH2 0x3E12 DUP3 PUSH2 0x3DD1 JUMP JUMPDEST PUSH1 0x20 DUP3 ADD SWAP1 POP SWAP2 SWAP1 POP JUMP JUMPDEST PUSH1 0x0 PUSH1 0x20 DUP3 ADD SWAP1 POP DUP2 DUP2 SUB PUSH1 0x0 DUP4 ADD MSTORE PUSH2 0x3E36 DUP2 PUSH2 0x3DFA JUMP JUMPDEST SWAP1 POP SWAP2 SWAP1 POP JUMP JUMPDEST PUSH32 0x4552433732313A207472616E7366657220746F206E6F6E204552433732315265 PUSH1 0x0 DUP3 ADD MSTORE PUSH32 0x63656976657220696D706C656D656E7465720000000000000000000000000000 PUSH1 0x20 DUP3 ADD MSTORE POP JUMP JUMPDEST PUSH1 0x0 PUSH2 0x3E99 PUSH1 0x32 DUP4 PUSH2 0x24D4 JUMP JUMPDEST SWAP2 POP PUSH2 0x3EA4 DUP3 PUSH2 0x3E3D JUMP JUMPDEST PUSH1 0x40 DUP3 ADD SWAP1 POP SWAP2 SWAP1 POP JUMP JUMPDEST PUSH1 0x0 PUSH1 0x20 DUP3 ADD SWAP1 POP DUP2 DUP2 SUB PUSH1 0x0 DUP4 ADD MSTORE PUSH2 0x3EC8 DUP2 PUSH2 0x3E8C JUMP JUMPDEST SWAP1 POP SWAP2 SWAP1 POP JUMP JUMPDEST PUSH1 0x0 DUP2 MLOAD SWAP1 POP SWAP2 SWAP1 POP JUMP JUMPDEST PUSH1 0x0 DUP3 DUP3 MSTORE PUSH1 0x20 DUP3 ADD SWAP1 POP SWAP3 SWAP2 POP POP JUMP JUMPDEST PUSH1 0x0 PUSH2 0x3EF6 DUP3 PUSH2 0x3ECF JUMP JUMPDEST PUSH2 0x3F00 DUP2 DUP6 PUSH2 0x3EDA JUMP JUMPDEST SWAP4 POP PUSH2 0x3F10 DUP2 DUP6 PUSH1 0x20 DUP7 ADD PUSH2 0x24E5 JUMP JUMPDEST PUSH2 0x3F19 DUP2 PUSH2 0x250F JUMP JUMPDEST DUP5 ADD SWAP2 POP POP SWAP3 SWAP2 POP POP JUMP JUMPDEST PUSH1 0x0 PUSH1 0x80 DUP3 ADD SWAP1 POP PUSH2 0x3F39 PUSH1 0x0 DUP4 ADD DUP8 PUSH2 0x2836 JUMP JUMPDEST PUSH2 0x3F46 PUSH1 0x20 DUP4 ADD DUP7 PUSH2 0x2836 JUMP JUMPDEST PUSH2 0x3F53 PUSH1 0x40 DUP4 ADD DUP6 PUSH2 0x2A07 JUMP JUMPDEST DUP2 DUP2 SUB PUSH1 0x60 DUP4 ADD MSTORE PUSH2 0x3F65 DUP2 DUP5 PUSH2 0x3EEB JUMP JUMPDEST SWAP1 POP SWAP6 SWAP5 POP POP POP POP POP JUMP JUMPDEST PUSH1 0x0 DUP2 MLOAD SWAP1 POP PUSH2 0x3F7F DUP2 PUSH2 0x243A JUMP JUMPDEST SWAP3 SWAP2 POP POP JUMP JUMPDEST PUSH1 0x0 PUSH1 0x20 DUP3 DUP5 SUB SLT ISZERO PUSH2 0x3F9B JUMPI PUSH2 0x3F9A PUSH2 0x2404 JUMP JUMPDEST JUMPDEST PUSH1 0x0 PUSH2 0x3FA9 DUP5 DUP3 DUP6 ADD PUSH2 0x3F70 JUMP JUMPDEST SWAP2 POP POP SWAP3 SWAP2 POP POP JUMP INVALID LOG2 PUSH5 0x6970667358 0x22 SLT KECCAK256 CALLCODE PUSH26 0x689563F1693579C2196A3773C2A7BAC560262A80EB827DD146FB PUSH24 0x330CB864736F6C6343000818003300000000000000000000 "},"methodIdentifiers":{"approve(address,uint256)":"095ea7b3","balanceOf(address)":"70a08231","documentHashToTokenURI(bytes32)":"3e451d07","getApproved(uint256)":"081812fc","getMarksheetDetails(bytes32)":"3c14bea6","getTokenURIByHash(bytes32)":"5a9e37f0","isApprovedForAll(address,address)":"e985e9c5","marksheets(bytes32)":"93d86011","mintCertificateNFT(address,string,bytes32)":"6ea80f34","name()":"06fdde03","ownerOf(uint256)":"6352211e","safeTransferFrom(address,address,uint256)":"42842e0e","safeTransferFrom(address,address,uint256,bytes)":"b88d4fde","setApprovalForAll(address,bool)":"a22cb465","supportsInterface(bytes4)":"01ffc9a7","symbol()":"95d89b41","tokenURI(uint256)":"c87b56dd","transferFrom(address,address,uint256)":"23b872dd","uploadMarksheet(string,string,bytes32,string)":"073dcbd6","uploadMultipleMarkSheets(string[],string[],bytes32[],string[])":"c8024cf3","verifyMarksheet(bytes32)":"a55ebd80"}}}}}