{
  "_format": "hh-sol-artifact-1",
  "contractName": "MarksheetVerification",
  "sourceName": "contracts/MarksheetVerification.sol",
  "abi": [
    {
      "inputs": [],
      "stateMutability": "nonpayable",
      "type": "constructor"
    },
    {
      "anonymous": false,
      "inputs": [
        {
          "indexed": true,
          "internalType": "address",
          "name": "owner",
          "type": "address"
        },
        {
          "indexed": true,
          "internalType": "address",
          "name": "approved",
          "type": "address"
        },
        {
          "indexed": true,
          "internalType": "uint256",
          "name": "tokenId",
          "type": "uint256"
        }
      ],
      "name": "Approval",
      "type": "event"
    },
    {
      "anonymous": false,
      "inputs": [
        {
          "indexed": true,
          "internalType": "address",
          "name": "owner",
          "type": "address"
        },
        {
          "indexed": true,
          "internalType": "address",
          "name": "operator",
          "type": "address"
        },
        {
          "indexed": false,
          "internalType": "bool",
          "name": "approved",
          "type": "bool"
        }
      ],
      "name": "ApprovalForAll",
      "type": "event"
    },
    {
      "anonymous": false,
      "inputs": [
        {
          "indexed": false,
          "internalType": "uint256",
          "name": "totalUploaded",
          "type": "uint256"
        }
      ],
      "name": "BatchUploadCompleted",
      "type": "event"
    },
    {
      "anonymous": false,
      "inputs": [
        {
          "indexed": true,
          "internalType": "address",
          "name": "recipient",
          "type": "address"
        },
        {
          "indexed": false,
          "internalType": "uint256",
          "name": "tokenId",
          "type": "uint256"
        },
        {
          "indexed": false,
          "internalType": "string",
          "name": "uri",
          "type": "string"
        }
      ],
      "name": "CertificateNFTMinted",
      "type": "event"
    },
    {
      "anonymous": false,
      "inputs": [
        {
          "indexed": true,
          "internalType": "bytes32",
          "name": "marksheetHash",
          "type": "bytes32"
        },
        {
          "indexed": false,
          "internalType": "string",
          "name": "studentName",
          "type": "string"
        },
        {
          "indexed": false,
          "internalType": "string",
          "name": "prn",
          "type": "string"
        },
        {
          "indexed": false,
          "internalType": "string",
          "name": "ipfsHash",
          "type": "string"
        }
      ],
      "name": "MarksheetUploaded",
      "type": "event"
    },
    {
      "anonymous": false,
      "inputs": [
        {
          "indexed": true,
          "internalType": "address",
          "name": "from",
          "type": "address"
        },
        {
          "indexed": true,
          "internalType": "address",
          "name": "to",
          "type": "address"
        },
        {
          "indexed": true,
          "internalType": "uint256",
          "name": "tokenId",
          "type": "uint256"
        }
      ],
      "name": "Transfer",
      "type": "event"
    },
    {
      "anonymous": false,
      "inputs": [
        {
          "indexed": true,
          "internalType": "address",
          "name": "verifier",
          "type": "address"
        },
        {
          "indexed": true,
          "internalType": "bytes32",
          "name": "marksheetHash",
          "type": "bytes32"
        },
        {
          "indexed": false,
          "internalType": "uint256",
          "name": "timestamp",
          "type": "uint256"
        }
      ],
      "name": "VerificationAttempt",
      "type": "event"
    },
    {
      "inputs": [
        {
          "internalType": "address",
          "name": "to",
          "type": "address"
        },
        {
          "internalType": "uint256",
          "name": "tokenId",
          "type": "uint256"
        }
      ],
      "name": "approve",
      "outputs": [],
      "stateMutability": "nonpayable",
      "type": "function"
    },
    {
      "inputs": [
        {
          "internalType": "address",
          "name": "owner",
          "type": "address"
        }
      ],
      "name": "balanceOf",
      "outputs": [
        {
          "internalType": "uint256",
          "name": "",
          "type": "uint256"
        }
      ],
      "stateMutability": "view",
      "type": "function"
    },
    {
      "inputs": [
        {
          "internalType": "bytes32",
          "name": "",
          "type": "bytes32"
        }
      ],
      "name": "documentHashToTokenURI",
      "outputs": [
        {
          "internalType": "string",
          "name": "",
          "type": "string"
        }
      ],
      "stateMutability": "view",
      "type": "function"
    },
    {
      "inputs": [
        {
          "internalType": "uint256",
          "name": "tokenId",
          "type": "uint256"
        }
      ],
      "name": "getApproved",
      "outputs": [
        {
          "internalType": "address",
          "name": "",
          "type": "address"
        }
      ],
      "stateMutability": "view",
      "type": "function"
    },
    {
      "inputs": [
        {
          "internalType": "bytes32",
          "name": "_providedHash",
          "type": "bytes32"
        }
      ],
      "name": "getMarksheetDetails",
      "outputs": [
        {
          "internalType": "string",
          "name": "",
          "type": "string"
        },
        {
          "internalType": "string",
          "name": "",
          "type": "string"
        },
        {
          "internalType": "string",
          "name": "",
          "type": "string"
        }
      ],
      "stateMutability": "view",
      "type": "function"
    },
    {
      "inputs": [
        {
          "internalType": "bytes32",
          "name": "hash",
          "type": "bytes32"
        }
      ],
      "name": "getTokenURIByHash",
      "outputs": [
        {
          "internalType": "string",
          "name": "",
          "type": "string"
        }
      ],
      "stateMutability": "view",
      "type": "function"
    },
    {
      "inputs": [
        {
          "internalType": "address",
          "name": "owner",
          "type": "address"
        },
        {
          "internalType": "address",
          "name": "operator",
          "type": "address"
        }
      ],
      "name": "isApprovedForAll",
      "outputs": [
        {
          "internalType": "bool",
          "name": "",
          "type": "bool"
        }
      ],
      "stateMutability": "view",
      "type": "function"
    },
    {
      "inputs": [
        {
          "internalType": "bytes32",
          "name": "",
          "type": "bytes32"
        }
      ],
      "name": "marksheets",
      "outputs": [
        {
          "internalType": "string",
          "name": "studentName",
          "type": "string"
        },
        {
          "internalType": "string",
          "name": "prn",
          "type": "string"
        },
        {
          "internalType": "bytes32",
          "name": "marksheetHash",
          "type": "bytes32"
        },
        {
          "internalType": "string",
          "name": "ipfsHash",
          "type": "string"
        }
      ],
      "stateMutability": "view",
      "type": "function"
    },
    {
      "inputs": [
        {
          "internalType": "address",
          "name": "recipient",
          "type": "address"
        },
        {
          "internalType": "string",
          "name": "uri",
          "type": "string"
        },
        {
          "internalType": "bytes32",
          "name": "documentHash",
          "type": "bytes32"
        }
      ],
      "name": "mintCertificateNFT",
      "outputs": [
        {
          "internalType": "uint256",
          "name": "",
          "type": "uint256"
        }
      ],
      "stateMutability": "nonpayable",
      "type": "function"
    },
    {
      "inputs": [],
      "name": "name",
      "outputs": [
        {
          "internalType": "string",
          "name": "",
          "type": "string"
        }
      ],
      "stateMutability": "view",
      "type": "function"
    },
    {
      "inputs": [
        {
          "internalType": "uint256",
          "name": "tokenId",
          "type": "uint256"
        }
      ],
      "name": "ownerOf",
      "outputs": [
        {
          "internalType": "address",
          "name": "",
          "type": "address"
        }
      ],
      "stateMutability": "view",
      "type": "function"
    },
    {
      "inputs": [
        {
          "internalType": "address",
          "name": "from",
          "type": "address"
        },
        {
          "internalType": "address",
          "name": "to",
          "type": "address"
        },
        {
          "internalType": "uint256",
          "name": "tokenId",
          "type": "uint256"
        }
      ],
      "name": "safeTransferFrom",
      "outputs": [],
      "stateMutability": "nonpayable",
      "type": "function"
    },
    {
      "inputs": [
        {
          "internalType": "address",
          "name": "from",
          "type": "address"
        },
        {
          "internalType": "address",
          "name": "to",
          "type": "address"
        },
        {
          "internalType": "uint256",
          "name": "tokenId",
          "type": "uint256"
        },
        {
          "internalType": "bytes",
          "name": "_data",
          "type": "bytes"
        }
      ],
      "name": "safeTransferFrom",
      "outputs": [],
      "stateMutability": "nonpayable",
      "type": "function"
    },
    {
      "inputs": [
        {
          "internalType": "address",
          "name": "operator",
          "type": "address"
        },
        {
          "internalType": "bool",
          "name": "approved",
          "type": "bool"
        }
      ],
      "name": "setApprovalForAll",
      "outputs": [],
      "stateMutability": "nonpayable",
      "type": "function"
    },
    {
      "inputs": [
        {
          "internalType": "bytes4",
          "name": "interfaceId",
          "type": "bytes4"
        }
      ],
      "name": "supportsInterface",
      "outputs": [
        {
          "internalType": "bool",
          "name": "",
          "type": "bool"
        }
      ],
      "stateMutability": "view",
      "type": "function"
    },
    {
      "inputs": [],
      "name": "symbol",
      "outputs": [
        {
          "internalType": "string",
          "name": "",
          "type": "string"
        }
      ],
      "stateMutability": "view",
      "type": "function"
    },
    {
      "inputs": [
        {
          "internalType": "uint256",
          "name": "tokenId",
          "type": "uint256"
        }
      ],
      "name": "tokenURI",
      "outputs": [
        {
          "internalType": "string",
          "name": "",
          "type": "string"
        }
      ],
      "stateMutability": "view",
      "type": "function"
    },
    {
      "inputs": [
        {
          "internalType": "address",
          "name": "from",
          "type": "address"
        },
        {
          "internalType": "address",
          "name": "to",
          "type": "address"
        },
        {
          "internalType": "uint256",
          "name": "tokenId",
          "type": "uint256"
        }
      ],
      "name": "transferFrom",
      "outputs": [],
      "stateMutability": "nonpayable",
      "type": "function"
    },
    {
      "inputs": [
        {
          "internalType": "string",
          "name": "_studentName",
          "type": "string"
        },
        {
          "internalType": "string",
          "name": "_prn",
          "type": "string"
        },
        {
          "internalType": "bytes32",
          "name": "_marksheetHash",
          "type": "bytes32"
        },
        {
          "internalType": "string",
          "name": "_ipfsHash",
          "type": "string"
        }
      ],
      "name": "uploadMarksheet",
      "outputs": [],
      "stateMutability": "nonpayable",
      "type": "function"
    },
    {
      "inputs": [
        {
          "internalType": "string[]",
          "name": "_studentNames",
          "type": "string[]"
        },
        {
          "internalType": "string[]",
          "name": "_prns",
          "type": "string[]"
        },
        {
          "internalType": "bytes32[]",
          "name": "_marksheetHashes",
          "type": "bytes32[]"
        },
        {
          "internalType": "string[]",
          "name": "_ipfsHashes",
          "type": "string[]"
        }
      ],
      "name": "uploadMultipleMarkSheets",
      "outputs": [],
      "stateMutability": "nonpayable",
      "type": "function"
    },
    {
      "inputs": [
        {
          "internalType": "bytes32",
          "name": "_providedHash",
          "type": "bytes32"
        }
      ],
      "name": "verifyMarksheet",
      "outputs": [
        {
          "internalType": "bool",
          "name": "",
          "type": "bool"
        }
      ],
      "stateMutability": "nonpayable",
      "type": "function"
    }
  ],
  "bytecode": "0x60806040523480156200001157600080fd5b506040518060400160405280600e81526020017f43657274696669636174654e46540000000000000000000000000000000000008152506040518060400160405280600481526020017f434552540000000000000000000000000000000000000000000000000000000081525081600090816200008f919062000324565b508060019081620000a1919062000324565b5050506200040b565b600081519050919050565b7f4e487b7100000000000000000000000000000000000000000000000000000000600052604160045260246000fd5b7f4e487b7100000000000000000000000000000000000000000000000000000000600052602260045260246000fd5b600060028204905060018216806200012c57607f821691505b602082108103620001425762000141620000e4565b5b50919050565b60008190508160005260206000209050919050565b60006020601f8301049050919050565b600082821b905092915050565b600060088302620001ac7fffffffffffffffffffffffffffffffffffffffffffffffffffffffffffffffff826200016d565b620001b886836200016d565b95508019841693508086168417925050509392505050565b6000819050919050565b6000819050919050565b600062000205620001ff620001f984620001d0565b620001da565b620001d0565b9050919050565b6000819050919050565b6200022183620001e4565b6200023962000230826200020c565b8484546200017a565b825550505050565b600090565b6200025062000241565b6200025d81848462000216565b505050565b5b8181101562000285576200027960008262000246565b60018101905062000263565b5050565b601f821115620002d4576200029e8162000148565b620002a9846200015d565b81016020851015620002b9578190505b620002d1620002c8856200015d565b83018262000262565b50505b505050565b600082821c905092915050565b6000620002f960001984600802620002d9565b1980831691505092915050565b6000620003148383620002e6565b9150826002028217905092915050565b6200032f82620000aa565b67ffffffffffffffff8111156200034b576200034a620000b5565b5b62000357825462000113565b6200036482828562000289565b600060209050601f8311600181146200039c576000841562000387578287015190505b62000393858262000306565b86555062000403565b601f198416620003ac8662000148565b60005b82811015620003d657848901518255600182019150602085019450602081019050620003af565b86831015620003f65784890151620003f2601f891682620002e6565b8355505b6001600288020188555050505b505050505050565b613fe8806200041b6000396000f3fe608060405234801561001057600080fd5b50600436106101375760003560e01c80636352211e116100b8578063a22cb4651161007c578063a22cb4651461039d578063a55ebd80146103b9578063b88d4fde146103e9578063c8024cf314610405578063c87b56dd14610421578063e985e9c51461045157610137565b80636352211e146102bc5780636ea80f34146102ec57806370a082311461031c57806393d860111461034c57806395d89b411461037f57610137565b806323b872dd116100ff57806323b872dd146101f25780633c14bea61461020e5780633e451d071461024057806342842e0e146102705780635a9e37f01461028c57610137565b806301ffc9a71461013c57806306fdde031461016c578063073dcbd61461018a578063081812fc146101a6578063095ea7b3146101d6575b600080fd5b61015660048036038101906101519190612466565b610481565b60405161016391906124ae565b60405180910390f35b610174610563565b6040516101819190612559565b60405180910390f35b6101a4600480360381019061019f91906126e6565b6105f5565b005b6101c060048036038101906101bb91906127d7565b6107e1565b6040516101cd9190612845565b60405180910390f35b6101f060048036038101906101eb919061288c565b610866565b005b61020c600480360381019061020791906128cc565b61097d565b005b6102286004803603810190610223919061291f565b6109dd565b6040516102379392919061294c565b60405180910390f35b61025a6004803603810190610255919061291f565b610c3c565b6040516102679190612559565b60405180910390f35b61028a600480360381019061028591906128cc565b610cdc565b005b6102a660048036038101906102a1919061291f565b610cfc565b6040516102b39190612559565b60405180910390f35b6102d660048036038101906102d191906127d7565b610da1565b6040516102e39190612845565b60405180910390f35b61030660048036038101906103019190612998565b610e52565b6040516103139190612a16565b60405180910390f35b61033660048036038101906103319190612a31565b610ff3565b6040516103439190612a16565b60405180910390f35b6103666004803603810190610361919061291f565b6110aa565b6040516103769493929190612a6d565b60405180910390f35b610387611272565b6040516103949190612559565b60405180910390f35b6103b760048036038101906103b29190612af3565b611304565b005b6103d360048036038101906103ce919061291f565b611484565b6040516103e091906124ae565b60405180910390f35b61040360048036038101906103fe9190612bd4565b611539565b005b61041f600480360381019061041a9190612e00565b61159b565b005b61043b600480360381019061043691906127d7565b611998565b6040516104489190612559565b60405180910390f35b61046b60048036038101906104669190612ed7565b611a85565b60405161047891906124ae565b60405180910390f35b60007f80ac58cd000000000000000000000000000000000000000000000000000000007bffffffffffffffffffffffffffffffffffffffffffffffffffffffff1916827bffffffffffffffffffffffffffffffffffffffffffffffffffffffff1916148061054c57507f5b5e139f000000000000000000000000000000000000000000000000000000007bffffffffffffffffffffffffffffffffffffffffffffffffffffffff1916827bffffffffffffffffffffffffffffffffffffffffffffffffffffffff1916145b8061055c575061055b82611b19565b5b9050919050565b60606000805461057290612f46565b80601f016020809104026020016040519081016040528092919081815260200182805461059e90612f46565b80156105eb5780601f106105c0576101008083540402835291602001916105eb565b820191906000526020600020905b8154815290600101906020018083116105ce57829003601f168201915b5050505050905090565b6000801b600760008481526020019081526020016000206002015414610650576040517f08c379a000000000000000000000000000000000000000000000000000000000815260040161064790612fc3565b60405180910390fd5b6000845111610694576040517f08c379a000000000000000000000000000000000000000000000000000000000815260040161068b9061302f565b60405180910390fd5b60008351116106d8576040517f08c379a00000000000000000000000000000000000000000000000000000000081526004016106cf9061309b565b60405180910390fd5b600081511161071c576040517f08c379a000000000000000000000000000000000000000000000000000000000815260040161071390613107565b60405180910390fd5b60405180608001604052808581526020018481526020018381526020018281525060076000848152602001908152602001600020600082015181600001908161076591906132d3565b50602082015181600101908161077b91906132d3565b5060408201518160020155606082015181600301908161079b91906132d3565b50905050817fdd5dcbf222aef8b9d7fcaaff69bbcc6b0c91631a1f1bf156fcdacfb1d2d1ed0b8585846040516107d39392919061294c565b60405180910390a250505050565b60006107ec82611b83565b61082b576040517f08c379a000000000000000000000000000000000000000000000000000000000815260040161082290613417565b60405180910390fd5b6004600083815260200190815260200160002060009054906101000a900473ffffffffffffffffffffffffffffffffffffffff169050919050565b600061087182610da1565b90508073ffffffffffffffffffffffffffffffffffffffff168373ffffffffffffffffffffffffffffffffffffffff16036108e1576040517f08c379a00000000000000000000000000000000000000000000000000000000081526004016108d8906134a9565b60405180910390fd5b8073ffffffffffffffffffffffffffffffffffffffff16610900611bef565b73ffffffffffffffffffffffffffffffffffffffff16148061092f575061092e81610929611bef565b611a85565b5b61096e576040517f08c379a00000000000000000000000000000000000000000000000000000000081526004016109659061353b565b60405180910390fd5b6109788383611bf7565b505050565b61098e610988611bef565b82611cb0565b6109cd576040517f08c379a00000000000000000000000000000000000000000000000000000000081526004016109c4906135cd565b60405180910390fd5b6109d8838383611d8e565b505050565b60608060606000801b600760008681526020019081526020016000206002015403610a3d576040517f08c379a0000000000000000000000000000000000000000000000000000000008152600401610a3490613639565b60405180910390fd5b600060076000868152602001908152602001600020604051806080016040529081600082018054610a6d90612f46565b80601f0160208091040260200160405190810160405280929190818152602001828054610a9990612f46565b8015610ae65780601f10610abb57610100808354040283529160200191610ae6565b820191906000526020600020905b815481529060010190602001808311610ac957829003601f168201915b50505050508152602001600182018054610aff90612f46565b80601f0160208091040260200160405190810160405280929190818152602001828054610b2b90612f46565b8015610b785780601f10610b4d57610100808354040283529160200191610b78565b820191906000526020600020905b815481529060010190602001808311610b5b57829003601f168201915b5050505050815260200160028201548152602001600382018054610b9b90612f46565b80601f0160208091040260200160405190810160405280929190818152602001828054610bc790612f46565b8015610c145780601f10610be957610100808354040283529160200191610c14565b820191906000526020600020905b815481529060010190602001808311610bf757829003601f168201915b5050505050815250509050806000015181602001518260600151935093509350509193909250565b60096020528060005260406000206000915090508054610c5b90612f46565b80601f0160208091040260200160405190810160405280929190818152602001828054610c8790612f46565b8015610cd45780601f10610ca957610100808354040283529160200191610cd4565b820191906000526020600020905b815481529060010190602001808311610cb757829003601f168201915b505050505081565b610cf783838360405180602001604052806000815250611539565b505050565b6060600960008381526020019081526020016000208054610d1c90612f46565b80601f0160208091040260200160405190810160405280929190818152602001828054610d4890612f46565b8015610d955780601f10610d6a57610100808354040283529160200191610d95565b820191906000526020600020905b815481529060010190602001808311610d7857829003601f168201915b50505050509050919050565b6000806002600084815260200190815260200160002060009054906101000a900473ffffffffffffffffffffffffffffffffffffffff169050600073ffffffffffffffffffffffffffffffffffffffff168173ffffffffffffffffffffffffffffffffffffffff1603610e49576040517f08c379a0000000000000000000000000000000000000000000000000000000008152600401610e40906136cb565b60405180910390fd5b80915050919050565b600080835111610e97576040517f08c379a0000000000000000000000000000000000000000000000000000000008152600401610e8e90613737565b60405180910390fd5b600073ffffffffffffffffffffffffffffffffffffffff168473ffffffffffffffffffffffffffffffffffffffff1603610f06576040517f08c379a0000000000000000000000000000000000000000000000000000000008152600401610efd906137a3565b60405180910390fd5b6000801b8203610f4b576040517f08c379a0000000000000000000000000000000000000000000000000000000008152600401610f429061380f565b60405180910390fd5b610f556006611fe9565b6000610f616006611fff565b9050610f6d858261200d565b610f7781856121da565b83600960008581526020019081526020016000209081610f9791906132d3565b508473ffffffffffffffffffffffffffffffffffffffff167fd365109541e56a01d10f82079302356a6f67a0ea812aa056441a99071b916c9a8286604051610fe092919061382f565b60405180910390a2809150509392505050565b60008073ffffffffffffffffffffffffffffffffffffffff168273ffffffffffffffffffffffffffffffffffffffff1603611063576040517f08c379a000000000000000000000000000000000000000000000000000000000815260040161105a906138d1565b60405180910390fd5b600360008373ffffffffffffffffffffffffffffffffffffffff1673ffffffffffffffffffffffffffffffffffffffff168152602001908152602001600020549050919050565b60076020528060005260406000206000915090508060000180546110cd90612f46565b80601f01602080910402602001604051908101604052809291908181526020018280546110f990612f46565b80156111465780601f1061111b57610100808354040283529160200191611146565b820191906000526020600020905b81548152906001019060200180831161112957829003601f168201915b50505050509080600101805461115b90612f46565b80601f016020809104026020016040519081016040528092919081815260200182805461118790612f46565b80156111d45780601f106111a9576101008083540402835291602001916111d4565b820191906000526020600020905b8154815290600101906020018083116111b757829003601f168201915b5050505050908060020154908060030180546111ef90612f46565b80601f016020809104026020016040519081016040528092919081815260200182805461121b90612f46565b80156112685780601f1061123d57610100808354040283529160200191611268565b820191906000526020600020905b81548152906001019060200180831161124b57829003601f168201915b5050505050905084565b60606001805461128190612f46565b80601f01602080910402602001604051908101604052809291908181526020018280546112ad90612f46565b80156112fa5780601f106112cf576101008083540402835291602001916112fa565b820191906000526020600020905b8154815290600101906020018083116112dd57829003601f168201915b5050505050905090565b61130c611bef565b73ffffffffffffffffffffffffffffffffffffffff168273ffffffffffffffffffffffffffffffffffffffff1603611379576040517f08c379a00000000000000000000000000000000000000000000000000000000081526004016113709061393d565b60405180910390fd5b8060056000611386611bef565b73ffffffffffffffffffffffffffffffffffffffff1673ffffffffffffffffffffffffffffffffffffffff16815260200190815260200160002060008473ffffffffffffffffffffffffffffffffffffffff1673ffffffffffffffffffffffffffffffffffffffff16815260200190815260200160002060006101000a81548160ff0219169083151502179055508173ffffffffffffffffffffffffffffffffffffffff16611433611bef565b73ffffffffffffffffffffffffffffffffffffffff167f17307eab39ab6107e8899845ad3d59bd9653f200f220920489ca2b5937696c318360405161147891906124ae565b60405180910390a35050565b60008060001b6007600084815260200190815260200160002060020154036114e1576040517f08c379a00000000000000000000000000000000000000000000000000000000081526004016114d890613639565b60405180910390fd5b813373ffffffffffffffffffffffffffffffffffffffff167f59f56502d3dda330c978152a745d7df39110b2795dc69a0c82de880e452ab4d4426040516115289190612a16565b60405180910390a360019050919050565b61154a611544611bef565b83611cb0565b611589576040517f08c379a0000000000000000000000000000000000000000000000000000000008152600401611580906135cd565b60405180910390fd5b611595848484846121ff565b50505050565b825184511480156115ad575081518351145b80156115ba575080518251145b6115f9576040517f08c379a00000000000000000000000000000000000000000000000000000000081526004016115f0906139a9565b60405180910390fd5b6000805b8551811015611959576000801b60076000868481518110611621576116206139c9565b5b60200260200101518152602001908152602001600020600201541461167b576040517f08c379a000000000000000000000000000000000000000000000000000000000815260040161167290613a44565b60405180910390fd5b60008682815181106116905761168f6139c9565b5b602002602001015151116116d9576040517f08c379a00000000000000000000000000000000000000000000000000000000081526004016116d09061302f565b60405180910390fd5b60008582815181106116ee576116ed6139c9565b5b60200260200101515111611737576040517f08c379a000000000000000000000000000000000000000000000000000000000815260040161172e9061309b565b60405180910390fd5b600083828151811061174c5761174b6139c9565b5b60200260200101515111611795576040517f08c379a000000000000000000000000000000000000000000000000000000000815260040161178c90613107565b60405180910390fd5b60405180608001604052808783815181106117b3576117b26139c9565b5b602002602001015181526020018683815181106117d3576117d26139c9565b5b602002602001015181526020018583815181106117f3576117f26139c9565b5b60200260200101518152602001848381518110611813576118126139c9565b5b602002602001015181525060076000868481518110611835576118346139c9565b5b60200260200101518152602001908152602001600020600082015181600001908161186091906132d3565b50602082015181600101908161187691906132d3565b5060408201518160020155606082015181600301908161189691906132d3565b509050508381815181106118ad576118ac6139c9565b5b60200260200101517fdd5dcbf222aef8b9d7fcaaff69bbcc6b0c91631a1f1bf156fcdacfb1d2d1ed0b8783815181106118e9576118e86139c9565b5b6020026020010151878481518110611904576119036139c9565b5b602002602001015186858151811061191f5761191e6139c9565b5b60200260200101516040516119369392919061294c565b60405180910390a2818061194990613a93565b92505080806001019150506115fd565b507f325d2eb1aec8f7019309a6d6167e5e242224b000bf25b45286e9cfe2e43c9566816040516119899190612a16565b60405180910390a15050505050565b60606119a382611b83565b6119e2576040517f08c379a00000000000000000000000000000000000000000000000000000000081526004016119d990613b27565b60405180910390fd5b600860008381526020019081526020016000208054611a0090612f46565b80601f0160208091040260200160405190810160405280929190818152602001828054611a2c90612f46565b8015611a795780601f10611a4e57610100808354040283529160200191611a79565b820191906000526020600020905b815481529060010190602001808311611a5c57829003601f168201915b50505050509050919050565b6000600560008473ffffffffffffffffffffffffffffffffffffffff1673ffffffffffffffffffffffffffffffffffffffff16815260200190815260200160002060008373ffffffffffffffffffffffffffffffffffffffff1673ffffffffffffffffffffffffffffffffffffffff16815260200190815260200160002060009054906101000a900460ff16905092915050565b60007f01ffc9a7000000000000000000000000000000000000000000000000000000007bffffffffffffffffffffffffffffffffffffffffffffffffffffffff1916827bffffffffffffffffffffffffffffffffffffffffffffffffffffffff1916149050919050565b60008073ffffffffffffffffffffffffffffffffffffffff166002600084815260200190815260200160002060009054906101000a900473ffffffffffffffffffffffffffffffffffffffff1673ffffffffffffffffffffffffffffffffffffffff1614159050919050565b600033905090565b816004600083815260200190815260200160002060006101000a81548173ffffffffffffffffffffffffffffffffffffffff021916908373ffffffffffffffffffffffffffffffffffffffff160217905550808273ffffffffffffffffffffffffffffffffffffffff16611c6a83610da1565b73ffffffffffffffffffffffffffffffffffffffff167f8c5be1e5ebec7d5bd14f71427d1e84f3dd0314c0f7b2291e5b200ac8c7c3b92560405160405180910390a45050565b6000611cbb82611b83565b611cfa576040517f08c379a0000000000000000000000000000000000000000000000000000000008152600401611cf190613bb9565b60405180910390fd5b6000611d0583610da1565b90508073ffffffffffffffffffffffffffffffffffffffff168473ffffffffffffffffffffffffffffffffffffffff161480611d7457508373ffffffffffffffffffffffffffffffffffffffff16611d5c846107e1565b73ffffffffffffffffffffffffffffffffffffffff16145b80611d855750611d848185611a85565b5b91505092915050565b8273ffffffffffffffffffffffffffffffffffffffff16611dae82610da1565b73ffffffffffffffffffffffffffffffffffffffff1614611e04576040517f08c379a0000000000000000000000000000000000000000000000000000000008152600401611dfb90613c4b565b60405180910390fd5b600073ffffffffffffffffffffffffffffffffffffffff168273ffffffffffffffffffffffffffffffffffffffff1603611e73576040517f08c379a0000000000000000000000000000000000000000000000000000000008152600401611e6a90613cdd565b60405180910390fd5b611e7e83838361225b565b611e89600082611bf7565b6001600360008573ffffffffffffffffffffffffffffffffffffffff1673ffffffffffffffffffffffffffffffffffffffff1681526020019081526020016000206000828254611ed99190613cfd565b925050819055506001600360008473ffffffffffffffffffffffffffffffffffffffff1673ffffffffffffffffffffffffffffffffffffffff1681526020019081526020016000206000828254611f309190613d31565b92505081905550816002600083815260200190815260200160002060006101000a81548173ffffffffffffffffffffffffffffffffffffffff021916908373ffffffffffffffffffffffffffffffffffffffff160217905550808273ffffffffffffffffffffffffffffffffffffffff168473ffffffffffffffffffffffffffffffffffffffff167fddf252ad1be2c89b69c2b068fc378daa952ba7f163c4a11628f55a4df523b3ef60405160405180910390a4505050565b6001816000016000828254019250508190555050565b600081600001549050919050565b600073ffffffffffffffffffffffffffffffffffffffff168273ffffffffffffffffffffffffffffffffffffffff160361207c576040517f08c379a000000000000000000000000000000000000000000000000000000000815260040161207390613db1565b60405180910390fd5b61208581611b83565b156120c5576040517f08c379a00000000000000000000000000000000000000000000000000000000081526004016120bc90613e1d565b60405180910390fd5b6120d16000838361225b565b6001600360008473ffffffffffffffffffffffffffffffffffffffff1673ffffffffffffffffffffffffffffffffffffffff16815260200190815260200160002060008282546121219190613d31565b92505081905550816002600083815260200190815260200160002060006101000a81548173ffffffffffffffffffffffffffffffffffffffff021916908373ffffffffffffffffffffffffffffffffffffffff160217905550808273ffffffffffffffffffffffffffffffffffffffff16600073ffffffffffffffffffffffffffffffffffffffff167fddf252ad1be2c89b69c2b068fc378daa952ba7f163c4a11628f55a4df523b3ef60405160405180910390a45050565b806008600084815260200190815260200160002090816121fa91906132d3565b505050565b61220a848484611d8e565b61221684848484612260565b612255576040517f08c379a000000000000000000000000000000000000000000000000000000000815260040161224c90613eaf565b60405180910390fd5b50505050565b505050565b60006122818473ffffffffffffffffffffffffffffffffffffffff166123e7565b156123da578373ffffffffffffffffffffffffffffffffffffffff1663150b7a026122aa611bef565b8786866040518563ffffffff1660e01b81526004016122cc9493929190613f24565b6020604051808303816000875af192505050801561230857506040513d601f19601f820116820180604052508101906123059190613f85565b60015b61238a573d8060008114612338576040519150601f19603f3d011682016040523d82523d6000602084013e61233d565b606091505b506000815103612382576040517f08c379a000000000000000000000000000000000000000000000000000000000815260040161237990613eaf565b60405180910390fd5b805181602001fd5b63150b7a0260e01b7bffffffffffffffffffffffffffffffffffffffffffffffffffffffff1916817bffffffffffffffffffffffffffffffffffffffffffffffffffffffff1916149150506123df565b600190505b949350505050565b600080823b905060008111915050919050565b6000604051905090565b600080fd5b600080fd5b60007fffffffff0000000000000000000000000000000000000000000000000000000082169050919050565b6124438161240e565b811461244e57600080fd5b50565b6000813590506124608161243a565b92915050565b60006020828403121561247c5761247b612404565b5b600061248a84828501612451565b91505092915050565b60008115159050919050565b6124a881612493565b82525050565b60006020820190506124c3600083018461249f565b92915050565b600081519050919050565b600082825260208201905092915050565b60005b838110156125035780820151818401526020810190506124e8565b60008484015250505050565b6000601f19601f8301169050919050565b600061252b826124c9565b61253581856124d4565b93506125458185602086016124e5565b61254e8161250f565b840191505092915050565b600060208201905081810360008301526125738184612520565b905092915050565b600080fd5b600080fd5b7f4e487b7100000000000000000000000000000000000000000000000000000000600052604160045260246000fd5b6125bd8261250f565b810181811067ffffffffffffffff821117156125dc576125db612585565b5b80604052505050565b60006125ef6123fa565b90506125fb82826125b4565b919050565b600067ffffffffffffffff82111561261b5761261a612585565b5b6126248261250f565b9050602081019050919050565b82818337600083830152505050565b600061265361264e84612600565b6125e5565b90508281526020810184848401111561266f5761266e612580565b5b61267a848285612631565b509392505050565b600082601f8301126126975761269661257b565b5b81356126a7848260208601612640565b91505092915050565b6000819050919050565b6126c3816126b0565b81146126ce57600080fd5b50565b6000813590506126e0816126ba565b92915050565b60008060008060808587031215612700576126ff612404565b5b600085013567ffffffffffffffff81111561271e5761271d612409565b5b61272a87828801612682565b945050602085013567ffffffffffffffff81111561274b5761274a612409565b5b61275787828801612682565b9350506040612768878288016126d1565b925050606085013567ffffffffffffffff81111561278957612788612409565b5b61279587828801612682565b91505092959194509250565b6000819050919050565b6127b4816127a1565b81146127bf57600080fd5b50565b6000813590506127d1816127ab565b92915050565b6000602082840312156127ed576127ec612404565b5b60006127fb848285016127c2565b91505092915050565b600073ffffffffffffffffffffffffffffffffffffffff82169050919050565b600061282f82612804565b9050919050565b61283f81612824565b82525050565b600060208201905061285a6000830184612836565b92915050565b61286981612824565b811461287457600080fd5b50565b60008135905061288681612860565b92915050565b600080604083850312156128a3576128a2612404565b5b60006128b185828601612877565b92505060206128c2858286016127c2565b9150509250929050565b6000806000606084860312156128e5576128e4612404565b5b60006128f386828701612877565b935050602061290486828701612877565b9250506040612915868287016127c2565b9150509250925092565b60006020828403121561293557612934612404565b5b6000612943848285016126d1565b91505092915050565b600060608201905081810360008301526129668186612520565b9050818103602083015261297a8185612520565b9050818103604083015261298e8184612520565b9050949350505050565b6000806000606084860312156129b1576129b0612404565b5b60006129bf86828701612877565b935050602084013567ffffffffffffffff8111156129e0576129df612409565b5b6129ec86828701612682565b92505060406129fd868287016126d1565b9150509250925092565b612a10816127a1565b82525050565b6000602082019050612a2b6000830184612a07565b92915050565b600060208284031215612a4757612a46612404565b5b6000612a5584828501612877565b91505092915050565b612a67816126b0565b82525050565b60006080820190508181036000830152612a878187612520565b90508181036020830152612a9b8186612520565b9050612aaa6040830185612a5e565b8181036060830152612abc8184612520565b905095945050505050565b612ad081612493565b8114612adb57600080fd5b50565b600081359050612aed81612ac7565b92915050565b60008060408385031215612b0a57612b09612404565b5b6000612b1885828601612877565b9250506020612b2985828601612ade565b9150509250929050565b600067ffffffffffffffff821115612b4e57612b4d612585565b5b612b578261250f565b9050602081019050919050565b6000612b77612b7284612b33565b6125e5565b905082815260208101848484011115612b9357612b92612580565b5b612b9e848285612631565b509392505050565b600082601f830112612bbb57612bba61257b565b5b8135612bcb848260208601612b64565b91505092915050565b60008060008060808587031215612bee57612bed612404565b5b6000612bfc87828801612877565b9450506020612c0d87828801612877565b9350506040612c1e878288016127c2565b925050606085013567ffffffffffffffff811115612c3f57612c3e612409565b5b612c4b87828801612ba6565b91505092959194509250565b600067ffffffffffffffff821115612c7257612c71612585565b5b602082029050602081019050919050565b600080fd5b6000612c9b612c9684612c57565b6125e5565b90508083825260208201905060208402830185811115612cbe57612cbd612c83565b5b835b81811015612d0557803567ffffffffffffffff811115612ce357612ce261257b565b5b808601612cf08982612682565b85526020850194505050602081019050612cc0565b5050509392505050565b600082601f830112612d2457612d2361257b565b5b8135612d34848260208601612c88565b91505092915050565b600067ffffffffffffffff821115612d5857612d57612585565b5b602082029050602081019050919050565b6000612d7c612d7784612d3d565b6125e5565b90508083825260208201905060208402830185811115612d9f57612d9e612c83565b5b835b81811015612dc85780612db488826126d1565b845260208401935050602081019050612da1565b5050509392505050565b600082601f830112612de757612de661257b565b5b8135612df7848260208601612d69565b91505092915050565b60008060008060808587031215612e1a57612e19612404565b5b600085013567ffffffffffffffff811115612e3857612e37612409565b5b612e4487828801612d0f565b945050602085013567ffffffffffffffff811115612e6557612e64612409565b5b612e7187828801612d0f565b935050604085013567ffffffffffffffff811115612e9257612e91612409565b5b612e9e87828801612dd2565b925050606085013567ffffffffffffffff811115612ebf57612ebe612409565b5b612ecb87828801612d0f565b91505092959194509250565b60008060408385031215612eee57612eed612404565b5b6000612efc85828601612877565b9250506020612f0d85828601612877565b9150509250929050565b7f4e487b7100000000000000000000000000000000000000000000000000000000600052602260045260246000fd5b60006002820490506001821680612f5e57607f821691505b602082108103612f7157612f70612f17565b5b50919050565b7f4d61726b736865657420616c7265616479206578697374730000000000000000600082015250565b6000612fad6018836124d4565b9150612fb882612f77565b602082019050919050565b60006020820190508181036000830152612fdc81612fa0565b9050919050565b7f53747564656e74206e616d652063616e6e6f7420626520656d70747900000000600082015250565b6000613019601c836124d4565b915061302482612fe3565b602082019050919050565b600060208201905081810360008301526130488161300c565b9050919050565b7f50524e2063616e6e6f7420626520656d70747900000000000000000000000000600082015250565b60006130856013836124d4565b91506130908261304f565b602082019050919050565b600060208201905081810360008301526130b481613078565b9050919050565b7f4950465320686173682063616e6e6f7420626520656d70747900000000000000600082015250565b60006130f16019836124d4565b91506130fc826130bb565b602082019050919050565b60006020820190508181036000830152613120816130e4565b9050919050565b60008190508160005260206000209050919050565b60006020601f8301049050919050565b600082821b905092915050565b6000600883026131897fffffffffffffffffffffffffffffffffffffffffffffffffffffffffffffffff8261314c565b613193868361314c565b95508019841693508086168417925050509392505050565b6000819050919050565b60006131d06131cb6131c6846127a1565b6131ab565b6127a1565b9050919050565b6000819050919050565b6131ea836131b5565b6131fe6131f6826131d7565b848454613159565b825550505050565b600090565b613213613206565b61321e8184846131e1565b505050565b5b818110156132425761323760008261320b565b600181019050613224565b5050565b601f8211156132875761325881613127565b6132618461313c565b81016020851015613270578190505b61328461327c8561313c565b830182613223565b50505b505050565b600082821c905092915050565b60006132aa6000198460080261328c565b1980831691505092915050565b60006132c38383613299565b9150826002028217905092915050565b6132dc826124c9565b67ffffffffffffffff8111156132f5576132f4612585565b5b6132ff8254612f46565b61330a828285613246565b600060209050601f83116001811461333d576000841561332b578287015190505b61333585826132b7565b86555061339d565b601f19841661334b86613127565b60005b828110156133735784890151825560018201915060208501945060208101905061334e565b86831015613390578489015161338c601f891682613299565b8355505b6001600288020188555050505b505050505050565b7f4552433732313a20617070726f76656420717565727920666f72206e6f6e657860008201527f697374656e7420746f6b656e0000000000000000000000000000000000000000602082015250565b6000613401602c836124d4565b915061340c826133a5565b604082019050919050565b60006020820190508181036000830152613430816133f4565b9050919050565b7f4552433732313a20617070726f76616c20746f2063757272656e74206f776e6560008201527f7200000000000000000000000000000000000000000000000000000000000000602082015250565b60006134936021836124d4565b915061349e82613437565b604082019050919050565b600060208201905081810360008301526134c281613486565b9050919050565b7f4552433732313a20617070726f76652063616c6c6572206973206e6f74206f7760008201527f6e6572206e6f7220617070726f76656420666f7220616c6c0000000000000000602082015250565b60006135256038836124d4565b9150613530826134c9565b604082019050919050565b6000602082019050818103600083015261355481613518565b9050919050565b7f4552433732313a207472616e736665722063616c6c6572206973206e6f74206f60008201527f776e6572206e6f7220617070726f766564000000000000000000000000000000602082015250565b60006135b76031836124d4565b91506135c28261355b565b604082019050919050565b600060208201905081810360008301526135e6816135aa565b9050919050565b7f4d61726b736865657420646f6573206e6f742065786973740000000000000000600082015250565b60006136236018836124d4565b915061362e826135ed565b602082019050919050565b6000602082019050818103600083015261365281613616565b9050919050565b7f4552433732313a206f776e657220717565727920666f72206e6f6e657869737460008201527f656e7420746f6b656e0000000000000000000000000000000000000000000000602082015250565b60006136b56029836124d4565b91506136c082613659565b604082019050919050565b600060208201905081810360008301526136e4816136a8565b9050919050565b7f5552492063616e6e6f7420626520656d70747900000000000000000000000000600082015250565b60006137216013836124d4565b915061372c826136eb565b602082019050919050565b6000602082019050818103600083015261375081613714565b9050919050565b7f496e76616c696420726563697069656e74000000000000000000000000000000600082015250565b600061378d6011836124d4565b915061379882613757565b602082019050919050565b600060208201905081810360008301526137bc81613780565b9050919050565b7f446f63756d656e7420686173682063616e6e6f7420626520656d707479000000600082015250565b60006137f9601d836124d4565b9150613804826137c3565b602082019050919050565b60006020820190508181036000830152613828816137ec565b9050919050565b60006040820190506138446000830185612a07565b81810360208301526138568184612520565b90509392505050565b7f4552433732313a2062616c616e636520717565727920666f7220746865207a6560008201527f726f206164647265737300000000000000000000000000000000000000000000602082015250565b60006138bb602a836124d4565b91506138c68261385f565b604082019050919050565b600060208201905081810360008301526138ea816138ae565b9050919050565b7f4552433732313a20617070726f766520746f2063616c6c657200000000000000600082015250565b60006139276019836124d4565b9150613932826138f1565b602082019050919050565b600060208201905081810360008301526139568161391a565b9050919050565b7f496e707574206172726179206c656e67746873206d757374206d617463680000600082015250565b6000613993601e836124d4565b915061399e8261395d565b602082019050919050565b600060208201905081810360008301526139c281613986565b9050919050565b7f4e487b7100000000000000000000000000000000000000000000000000000000600052603260045260246000fd5b7f4475706c6963617465206d61726b736865657420646574656374656400000000600082015250565b6000613a2e601c836124d4565b9150613a39826139f8565b602082019050919050565b60006020820190508181036000830152613a5d81613a21565b9050919050565b7f4e487b7100000000000000000000000000000000000000000000000000000000600052601160045260246000fd5b6000613a9e826127a1565b91507fffffffffffffffffffffffffffffffffffffffffffffffffffffffffffffffff8203613ad057613acf613a64565b5b600182019050919050565b7f55524920717565727920666f72206e6f6e6578697374656e7420746f6b656e00600082015250565b6000613b11601f836124d4565b9150613b1c82613adb565b602082019050919050565b60006020820190508181036000830152613b4081613b04565b9050919050565b7f4552433732313a206f70657261746f7220717565727920666f72206e6f6e657860008201527f697374656e7420746f6b656e0000000000000000000000000000000000000000602082015250565b6000613ba3602c836124d4565b9150613bae82613b47565b604082019050919050565b60006020820190508181036000830152613bd281613b96565b9050919050565b7f4552433732313a207472616e73666572206f6620746f6b656e2074686174206960008201527f73206e6f74206f776e0000000000000000000000000000000000000000000000602082015250565b6000613c356029836124d4565b9150613c4082613bd9565b604082019050919050565b60006020820190508181036000830152613c6481613c28565b9050919050565b7f4552433732313a207472616e7366657220746f20746865207a65726f2061646460008201527f7265737300000000000000000000000000000000000000000000000000000000602082015250565b6000613cc76024836124d4565b9150613cd282613c6b565b604082019050919050565b60006020820190508181036000830152613cf681613cba565b9050919050565b6000613d08826127a1565b9150613d13836127a1565b9250828203905081811115613d2b57613d2a613a64565b5b92915050565b6000613d3c826127a1565b9150613d47836127a1565b9250828201905080821115613d5f57613d5e613a64565b5b92915050565b7f4552433732313a206d696e7420746f20746865207a65726f2061646472657373600082015250565b6000613d9b6020836124d4565b9150613da682613d65565b602082019050919050565b60006020820190508181036000830152613dca81613d8e565b9050919050565b7f4552433732313a20746f6b656e20616c7265616479206d696e74656400000000600082015250565b6000613e07601c836124d4565b9150613e1282613dd1565b602082019050919050565b60006020820190508181036000830152613e3681613dfa565b9050919050565b7f4552433732313a207472616e7366657220746f206e6f6e20455243373231526560008201527f63656976657220696d706c656d656e7465720000000000000000000000000000602082015250565b6000613e996032836124d4565b9150613ea482613e3d565b604082019050919050565b60006020820190508181036000830152613ec881613e8c565b9050919050565b600081519050919050565b600082825260208201905092915050565b6000613ef682613ecf565b613f008185613eda565b9350613f108185602086016124e5565b613f198161250f565b840191505092915050565b6000608082019050613f396000830187612836565b613f466020830186612836565b613f536040830185612a07565b8181036060830152613f658184613eeb565b905095945050505050565b600081519050613f7f8161243a565b92915050565b600060208284031215613f9b57613f9a612404565b5b6000613fa984828501613f70565b9150509291505056fea2646970667358221220f279689563f1693579c2196a3773c2a7bac560262a80eb827dd146fb77330cb864736f6c63430008180033",
  "linkReferences": {},
  "deployedLinkReferences": {}
}